:020000040800F2
:1000000000500020855D0008D95C0008E55C000810
:10001000EB5C0008F15C0008F75C000800000000E1
:10002000000000000000000000000000613900082E
:10003000FD5C000800000000313B0008793B00082F
:10004000CD5D0008CD5D0008CD5D0008CD5D0008E8
:10005000CD5D0008CD5D0008CD5D0008CD5D0008D8
:10006000CD5D0008CD5D0008CD5D0008CD5D0008C8
:10007000CD5D0008CD5D0008CD5D0008CD5D0008B8
:10008000CD5D0008CD5D0008CD5D0008CD5D0008A8
:10009000CD5D0008CD5D0008CD5D0008CD5D000898
:1000A000CD5D0008CD5D0008CD5D0008CD5D000888
:1000B000CD5D0008CD5D0008095D0008CD5D00083C
:1000C000CD5D0008CD5D0008CD5D0008CD5D000868
:1000D000CD5D0008CD5D0008CD5D0008CD5D000858
:1000E000CD5D0008CD5D0008CD5D0008000000007A
:1000F0000000000000000000000000000000000000
:0C01000000000000000000005FF808F1A3
:1001100010B5054C237833B9044B13B10448AFF341
:1001200000800123237010BDF001002000000000BA
:10013000405E000808B5034B1BB103490348AFF309
:10014000008008BD00000000F4010020405E0008AF
:1001500080B500AF084B1B68074A43F010031360DB
:10016000032000F0E1FC002005F060FD05F0C6FC76
:100170000023184680BD00BF0020024080B400AFBD
:10018000054B1B781A46054B1B681344034A136042
:1001900000BFBD4680BC70470400002060110020F5
:1001A00080B400AF024B1B681846BD4680BC704748
:1001B0006011002080B586B000AF78600023FB7529
:1001C00000233B610023BB600023FB607B68002BA6
:1001D00001D10123BEE07B689B68002B7B689B6A92
:1001E000002B09D17B680022DA627B68002283F849
:1001F0002420786805F0BAFC786800F0B1FB03466B
:10020000FB757B689B6A03F01003002B40F099801C
:10021000FB7D002B40F095807B689B6A23F488531C
:1002200023F0020343F002027B689A627B685A68FB
:100230007B68DB691A437B681B7B5B001343BA68EE
:100240001343BB607B689B68B3F5807F03D07B68FA
:100250009B68012B02D14FF4807300E000233A69C0
:1002600013433B617B681B7D012B19D17B681B7B92
:10027000002B09D17B689B69013B5A033B691343FF
:1002800043F400633B610BE07B689B6A43F0200210
:100290007B689A627B68DB6A43F001027B68DA6202
:1002A0007B681B685B6823F469417B681B683A695B
:1002B0000A435A607B681B689A68284B13407A6827
:1002C0001268B9680B4393607B689B68B3F5807FC5
:1002D00003D07B689B68012B04D17B681B69013BC1
:1002E0001B05FB607B681B68DB6A23F470017B687D
:1002F0001B68FA680A43DA627B681B689A68184BC5
:100300001340BA689A420BD17B680022DA627B689C
:100310009B6A23F0030343F001027B689A6218E0B2
:100320007B689B6A23F0120343F010027B689A6299
:100330007B68DB6A43F001027B68DA620123FB75AC
:1003400007E07B689B6A43F010027B689A62012396
:10035000FB75FB7D18461837BD4680BDFDF7E1FFF4
:10036000FE0E1FFF80B584B000AF78600023FB73E2
:100370007B6893F82430012B01D1022398E07B683D
:10038000012283F82420786800F098FA0346FB7372
:10039000FB7B002B40F087807B689B6A23F44073D3
:1003A00023F0010343F480727B689A627B681B68C8
:1003B000414A934205D1414B5B6803F47023002B03
:1003C00015D17B689B6A23F480127B689A627B68F4
:1003D0001B685B6803F48063002B26D07B689B6AF4
:1003E00023F4405343F480527B689A621DE07B689B
:1003F0009B6A43F480127B689A627B681B682F4A71
:10040000934204D07B681B682B4A93420DD12B4B3F
:100410005B6803F48063002B07D07B689B6A23F43E
:10042000405343F480527B689A627B689B6A03F472
:100430008053002B06D07B68DB6A23F006027B68C2
:10044000DA6202E07B680022DA627B68002283F8CD
:1004500024207B681B686FF002021A607B681B68AF
:100460009B6803F46023B3F5602F13D17B681B688E
:10047000114A934205D1114B5B6803F47023002BA2
:1004800008D17B681B689A687B681B6842F4A002ED
:100490009A600CE07B681B689A687B681B6842F472
:1004A00080129A6003E07B68002283F82420FB7BA3
:1004B00018461037BD4680BD002801400024014089
:1004C00090B587B000AF7860396000237B6100236E
:1004D000FB6000233B61FFF763FE78617B681B686C
:1004E0009B6803F48073002B0BD07B689B6A43F0FE
:1004F00020027B689A627B68002283F82420012313
:10050000C8E07B681B685B6803F48073002B2AD10A
:100510007B681B68DB6A03F47003002B23D11AE0AD
:100520003B68B3F1FF3F16D03B68002B07D0FFF7C5
:1005300037FE02467B69D31A3A689A420BD27B682F
:100540009B6A43F004027B689A627B68002283F80E
:10055000242003239EE07B681B681B6803F00203D2
:10056000002BDDD06CE04D4B1C68022001F0AAF995
:100570000346B4FBF3F27B681B681969484B0B40D8
:10058000002B18D17B681B68D968464B0B40002BA9
:1005900011D17B681B681969434B0B40002B08D1B4
:1005A0007B681B68D968414B0B40002B01D1142399
:1005B00020E029231EE07B681B6819693A4B0B4039
:1005C000002B06D17B681B68D968384B0B40002B89
:1005D0000DD07B681B681969354B0B40002B08D187
:1005E0007B681B68D968324B0B40002B01D1542328
:1005F00000E0FC2302FB03F33B611DE03B68B3F129
:10060000FF3F16D03B68002B07D0FFF7C9FD02461D
:100610007B69D31A3A689A420BD27B689B6A43F093
:1006200004027B689A627B68002283F824200323FB
:1006300030E0FB680133FB60FB683A699A42DDD821
:100640007B681B686FF012021A607B689B6A43F438
:1006500000727B689A627B681B689B6803F4602366
:10066000B3F5602F15D17B681B7B002B11D17B6804
:100670009B6A23F480727B689A627B689B6A03F4AE
:100680008053002B05D17B689B6A43F001027B6895
:100690009A62002318461C37BD4690BDEC0100202D
:1006A0002449922424499200922449129224490018
:1006B0004992240080B483B000AF78607B681B68E7
:1006C000DB6C18460C37BD4680BC704780B485B0E3
:1006D00000AF786039600023FB730023BB607B6848
:1006E00093F82430012B01D10223DCE07B68012246
:1006F00083F824203B685B68062B1CD87B681B684A
:10070000596B3B685A6813469B001344053B1F22F4
:1007100002FA03F3DB4319403B6818683B685A68E8
:1007200013469B001344053B00FA03F27B681B68E9
:100730000A435A633CE03B685B680C2B1CD87B681F
:100740001B68196B3B685A6813469B001344233B94
:100750001F2202FA03F3DB4319403B6818683B6829
:100760005A6813469B001344233B00FA03F27B684C
:100770001B680A431A631BE07B681B68D96A3B68E5
:100780005A6813469B001344413B1F2202FA03F3AD
:10079000DB4319403B6818683B685A6813469B0066
:1007A0001344413B00FA03F27B681B680A43DA6298
:1007B0003B681B68092B1CD97B681B68D9683B68A0
:1007C0001A6813465B0013441E3B072202FA03F328
:1007D000DB4319403B6898683B681A6813465B0026
:1007E00013441E3B00FA03F27B681B680A43DA607D
:1007F00019E07B681B6819693B681A6813465B003F
:100800001344072202FA03F3DB4319403B6898685C
:100810003B681A6813465B00134400FA03F27B68D6
:100820001B680A431A613B681B68102B03D03B68A6
:100830001B68112B32D17B681B681D4A934225D15E
:100840007B681B689B6803F40003002B26D17B6840
:100850001B689A687B681B6842F400029A603B68D8
:100860001B68102B1AD1134B1B68134AA2FB0323DE
:100870009A0C13469B0013445B00BB6002E0BB680C
:10088000013BBB60BB68002BF9D107E07B689B6A2A
:1008900043F020027B689A620123FB737B6800228D
:1008A00083F82420FB7B18461437BD4680BC704774
:1008B00000240140EC01002083DE1B4380B584B09E
:1008C00000AF78600023FB600023BB607B681B687F
:1008D0009B6803F00103012B39D07B681B689A6881
:1008E0007B681B6842F001029A601B4B1B681B4A25
:1008F000A2FB03239B0CBB6002E0BB68013BBB6017
:10090000BB68002BF9D1FFF74BFCF86018E0FFF74C
:1009100047FC0246FB68D31A022B11D97B689B6AFD
:1009200043F010027B689A627B68DB6A43F0010245
:100930007B68DA627B68002283F82420012307E0C9
:100940007B681B689B6803F00103012BDFD1002348
:1009500018461037BD4680BDEC01002083DE1B43E6
:1009600080B584B000AF78600023FB607B681B68B3
:100970009B6803F00103012B27D17B681B689A68F1
:100980007B681B6822F001029A60FFF709FCF8609F
:1009900014E0FFF705FC0246FB68D31A022B0DD9C1
:1009A0007B689B6A43F010027B689A627B68DB6A13
:1009B00043F001027B68DA62012307E07B681B6871
:1009C0009B6803F00103012BE3D000231846103786
:1009D000BD4680BD80B485B000AF78607B6803F011
:1009E0000703FB600C4BDB68BB60BA684FF6FF0384
:1009F0001340BB60FB681A02BB68134343F0BF633C
:100A000043F40033BB60044ABB68D36000BF1437B3
:100A1000BD4680BC704700BF00ED00E080B400AF71
:100A2000044BDB681B0A03F007031846BD4680BC75
:100A3000704700BF00ED00E080B483B000AF034614
:100A4000FB7197F90730002B0BDBFB7903F01F02DA
:100A5000064997F907305B09012000FA02F241F8D4
:100A6000232000BF0C37BD4680BC704700E100E08A
:100A700080B483B000AF03463960FB7197F907304B
:100A8000002B0ADB3B68DAB20C4997F907301201F8
:100A9000D2B20B4483F800230AE03B68DAB208497B
:100AA000FB7903F00F03043B1201D2B20B441A7618
:100AB00000BF0C37BD4680BC704700BF00E100E0BE
:100AC00000ED00E080B489B000AFF860B9607A60F2
:100AD000FB6803F00703FB61FB69C3F10703042B09
:100AE00028BF0423BB61FB690433062B02D9FB69D1
:100AF000033B00E000237B614FF0FF32BB6902FA49
:100B000003F3DA43BB681A407B699A404FF0FF3128
:100B10007B6901FA03F3D9437B680B401343184602
:100B20002437BD4680BC704780B582B000AF786086
:100B30007868FFF74FFF00BF0837BD4680BD80B51E
:100B400086B000AF0346B9607A60FB7300237B6117
:100B5000FFF764FF78617A68B9687869FFF7B2FFD8
:100B6000024697F90F3011461846FFF781FF00BF84
:100B70001837BD4680BD80B582B000AF0346FB711B
:100B800097F907301846FFF757FF00BF0837BD46F3
:100B900080BD000080B48BB000AF78603960002366
:100BA0007B6200233B6227E101227B6A02FA03F3A6
:100BB000FB613B681B68FA691340BB61BA69FB695A
:100BC0009A4240F016813B685B68122B34D0122B9E
:100BD0000DD8022B2BD0022B04D8002B31D0012BA7
:100BE0001CD048E0032B43D0112B1BD043E0894A93
:100BF000934226D0874A934206D8874A934220D010
:100C0000864A93421DD036E0854A934219D0854AE0
:100C1000934216D0844A934213D02CE03B68DB68A1
:100C20003B6228E03B68DB6804333B6223E03B68BF
:100C3000DB6808333B621EE03B68DB680C333B62D9
:100C400019E03B689B68002B02D104233B6212E051
:100C50003B689B68012B05D108233B627B68FA69DE
:100C60001A6108E008233B627B68FA695A6102E076
:100C700000233B6200BFBB69FF2B01D87B6801E00A
:100C80007B6804337B61BB69FF2B02D87B6A9B00C6
:100C900002E07B6A083B9B003B617B691A680F217D
:100CA0003B6901FA03F3DB431A40396A3B6901FAF5
:100CB00003F31A437B691A603B685B6803F0805357
:100CC000002B00F09680594B9B69584A43F0010372
:100CD0009361564B9B6903F00103BB60BB68544AA8
:100CE0007B6A9B08023352F82330FB607B6A03F077
:100CF00003039B000F2202FA03F3DB43FA6813405D
:100D0000FB607B684B4A934213D07B684A4A93420C
:100D10000DD07B68494A934207D07B68484A93428A
:100D200001D1032306E0042304E0022302E00123AF
:100D300000E000237A6A02F0030292009340FA680E
:100D40001343FB603A497B6A9B080233FA6841F817
:100D500023203B685B6803F48033002B06D0394BBB
:100D60001A683849BB6913430B6006E0354B1A68B3
:100D7000BB69DB43334913400B603B685B6803F49A
:100D80000033002B06D02F4B5A682E49BB69134302
:100D90004B6006E02B4B5A68BB69DB432949134083
:100DA0004B603B685B6803F48013002B06D0254B37
:100DB0009A682449BB6913438B6006E0214B9A680B
:100DC000BB69DB431F4913408B603B685B6803F4DE
:100DD0000013002B06D01B4BDA681A49BB6913437A
:100DE000CB6006E0174BDA68BB69DB43154913405B
:100DF000CB607B6A01337B623B681A687B6A22FAAC
:100E000003F3002B7FF4D0AE00BF2C37BD4680BC6F
:100E1000704700BF000021100000111000001210E8
:100E200000003110000032100000221000100240BB
:100E30000000014000080140000C0140001001408A
:100E4000001401400004014080B485B000AF786018
:100E50000B467B807B689A687B881340002B02D00E
:100E60000123FB7301E00023FB73FB7B184614375F
:100E7000BD4680BC704780B483B000AF78600B463D
:100E80007B8013467B707B78002B03D07A887B684D
:100E90001A6103E07B881A047B681A6100BF0C3773
:100EA000BD4680BC7047000080B400AF034B0122F8
:100EB0001A6000BFBD4680BC704700BF20000E42D4
:100EC00080B586B000AF78607B68002B01D101232C
:100ED0006CE27B681B6803F00103002B00F0878045
:100EE000924B5B6803F00C03042B0CD08F4B5B68B8
:100EF00003F00C03082B12D18C4B5B6803F4803396
:100F0000B3F5803F0BD1894B1B6803F40033002BF2
:100F10006CD07B685B68002B68D1012346E27B685C
:100F20005B68B3F5803F06D1804B1B687F4A43F472
:100F3000803313602EE07B685B68002B0CD17B4B09
:100F40001B687A4A23F480331360784B1B68774A16
:100F500023F4802313601DE07B685B68B3F5A02F4A
:100F60000CD1724B1B68714A43F4802313606F4BA2
:100F70001B686E4A43F4803313600BE06B4B1B68B5
:100F80006A4A23F480331360684B1B68674A23F472
:100F9000802313607B685B68002B13D0FFF700F998
:100FA000386108E0FFF7FCF802463B69D31A642B6E
:100FB00001D90323FAE15D4B1B6803F40033002BD6
:100FC000F0D014E0FFF7ECF8386108E0FFF7E8F83C
:100FD00002463B69D31A642B01D90323E6E1534B44
:100FE0001B6803F40033002BF0D100E000BF7B68E6
:100FF0001B6803F00203002B63D04C4B5B6803F0CB
:101000000C03002B0BD0494B5B6803F00C03082B3F
:101010001CD1464B5B6803F48033002B16D1434B45
:101020001B6803F00203002B05D07B681B69012BB2
:1010300001D00123BAE13D4B1B6823F0F8027B6825
:101040005B69DB00394913430B603AE07B681B693D
:10105000002B20D0364B01221A60FFF7A1F838612F
:1010600008E0FFF79DF802463B69D31A022B01D92D
:1010700003239BE12D4B1B6803F00203002BF0D0F0
:101080002A4B1B6823F0F8027B685B69DB00274969
:1010900013430B6015E0264B00221A60FFF780F81F
:1010A000386108E0FFF77CF802463B69D31A022B4F
:1010B00001D903237AE11D4B1B6803F00203002BC7
:1010C000F0D17B681B6803F00803002B3AD07B68E3
:1010D0009B69002B19D0174B01221A60FFF760F8AB
:1010E000386108E0FFF75CF802463B69D31A022B2F
:1010F00001D903235AE10D4B5B6A03F00203002B75
:10110000F0D0012000F00AFB1CE00A4B00221A601C
:10111000FFF746F838610FE0FFF742F802463B69F7
:10112000D31A022B08D9032340E100BF001002406C
:1011300000004242800442429E4B5B6A03F002037D
:10114000002BE9D17B681B6803F00403002B00F03F
:10115000A6800023FB75974BDB6903F08053002BBF
:101160000DD1944BDB69934A43F08053D361914B8B
:10117000DB6903F08053BB60BB680123FB758E4BBA
:101180001B6803F48073002B18D18B4B1B688A4AB1
:1011900043F480731360FFF703F8386108E0FEF74B
:1011A000FFFF02463B69D31A642B01D90323FDE0FC
:1011B000814B1B6803F48073002BF0D07B68DB68E5
:1011C000012B06D17B4B1B6A7A4A43F00103136261
:1011D0002DE07B68DB68002B0CD1764B1B6A754ACF
:1011E00023F001031362734B1B6A724A23F004035A
:1011F00013621CE07B68DB68052B0CD16D4B1B6A0E
:101200006C4A43F0040313626A4B1B6A694A43F059
:10121000010313620BE0674B1B6A664A23F001036C
:101220001362644B1B6A634A23F0040313627B68F6
:10123000DB68002B15D0FEF7B3FF38610AE0FEF73C
:10124000AFFF02463B69D31A41F28832934201D97B
:101250000323ABE0574B1B6A03F00203002BEED0D5
:1012600014E0FEF79DFF38610AE0FEF799FF0246A1
:101270003B69D31A41F28832934201D9032395E0A6
:101280004C4B1B6A03F00203002BEED1FB7D012BBC
:1012900005D1484BDB69474A23F08053D3617B6813
:1012A000DB69002B00F08180424B5B6803F00C038C
:1012B000082B61D07B68DB69022B46D13F4B0022B3
:1012C0001A60FEF76DFF386108E0FEF769FF02461D
:1012D0003B69D31A022B01D9032367E0354B1B6806
:1012E00003F00073002BF0D17B681B6AB3F5803FDD
:1012F00008D1304B5B6823F400327B689B682D4932
:1013000013434B602B4B5B6823F474127B68196AA0
:101310007B685B6A0B43274913434B60274B0122D1
:101320001A60FEF73DFF386108E0FEF739FF02461C
:101330003B69D31A022B01D9032337E01D4B1B68ED
:1013400003F00073002BF0D02FE01C4B00221A603A
:10135000FEF726FF386108E0FEF722FF02463B69F0
:10136000D31A022B01D9032320E0124B1B6803F090
:101370000073002BF0D118E07B68DB69012B01D1F1
:10138000012313E00B4B5B68FB60FB6803F48032C6
:101390007B681B6A9A4206D1FB6803F470127B6873
:1013A0005B6A9A4201D0012300E0002318461837F7
:1013B000BD4680BD00100240007000406000424207
:1013C00080B584B000AF786039607B68002B01D1B4
:1013D0000123D0E06A4B1B6803F007033A689A4286
:1013E00010D9674B1B6823F0070265493B6813431C
:1013F0000B60634B1B6803F007033A689A4201D005
:101400000123B8E07B681B6803F00203002B20D0A7
:101410007B681B6803F00403002B05D0594B5B6805
:10142000584A43F4E06353607B681B6803F0080389
:10143000002B05D0534B5B68524A43F46053536012
:10144000504B5B6823F0F0027B689B684D49134367
:101450004B607B681B6803F00103002B40D07B6866
:101460005B68012B07D1474B1B6803F40033002B4B
:1014700015D101237FE07B685B68022B07D1414BCC
:101480001B6803F00073002B09D1012373E03D4B6F
:101490001B6803F00203002B01D101236BE0394BE1
:1014A0005B6823F003027B685B68364913434B603B
:1014B000FEF776FEF8600AE0FEF772FE0246FB6871
:1014C000D31A41F28832934201D9032353E02D4BC2
:1014D0005B6803F00C027B685B689B009A42EBD16F
:1014E000274B1B6803F007033A689A4210D2244B3B
:1014F0001B6823F0070222493B6813430B60204B13
:101500001B6803F007033A689A4201D0012332E0D6
:101510007B681B6803F00403002B08D0194B5B6841
:1015200023F4E0627B68DB68164913434B607B68F9
:101530001B6803F00803002B09D0124B5B6823F4EF
:1015400060527B681B69DB000E4913434B6000F05F
:1015500021F801460B4B5B681B0903F00F030A4A95
:10156000D35C21FA03F3094A1360094B1B68184640
:1015700004F05CFB002318461037BD4680BD00BF59
:101580000020024000100240E0670008EC0100204B
:101590000000002090B48AB000AF2A4B3C1D0FCB56
:1015A00084E80F00284B1B883B800023FB6100234D
:1015B000BB6100237B6200237B6100233B62234BE2
:1015C0005B68FB61FB6903F00C03042B02D0082B62
:1015D00003D02DE01E4B3B622DE0FB699B0C03F01A
:1015E0000F0307F12802134413F8243C7B61FB69C5
:1015F00003F48033002B13D0144B5B685B0C03F0B7
:10160000010307F12802134413F8283CBB617B69EE
:101610000F4A02FB03F2BB69B2FBF3F37B6204E007
:101620007B690C4A02FB03F37B627B6A3B6202E04C
:10163000074B3B6200BF3B6A18462837BD4690BC4B
:10164000704700BF585E0008685E00080010024046
:1016500000127A0000093D0080B400AF024B1B6805
:101660001846BD4680BC7047EC01002080B500AF35
:10167000FFF7F2FF0146054B5B681B0A03F0070307
:10168000034AD35C21FA03F3184680BD00100240E0
:10169000F067000880B500AFFFF7DEFF0146054B9D
:1016A0005B68DB0A03F00703034AD35C21FA03F308
:1016B000184680BD00100240F067000880B483B077
:1016C00000AF786039607B680F221A60114B5B684D
:1016D00003F003027B685A600E4B5B6803F0F00274
:1016E0007B689A600B4B5B6803F4E0627B68DA60AE
:1016F000084B5B68DB0803F4E0627B681A61064B09
:101700001B6803F007023B681A6000BF0C37BD4638
:1017100080BC7047001002400020024080B485B0B9
:1017200000AF78600A4B1B680A4AA2FB03235B0ADE
:101730007A6802FB03F3FB6000BFFB685A1EFA6085
:10174000002BF9D100BF1437BD4680BC704700BFE5
:10175000EC010020D34D621080B586B000AF7860F8
:1017600000233B610023FB607B681B6803F00103DF
:10177000002B7DD00023FB754F4BDB6903F08053BA
:10178000002B0DD14C4BDB694B4A43F08053D361A6
:10179000494BDB6903F08053BB60BB680123FB75D9
:1017A000464B1B6803F48073002B18D1434B1B6816
:1017B000424A43F480731360FEF7F2FC386108E09C
:1017C000FEF7EEFC02463B69D31A642B01D90323D2
:1017D0006DE03A4B1B6803F48073002BF0D0364B5E
:1017E0001B6A03F44073FB60FB68002B2ED07B6800
:1017F0005B6803F44073FA689A4227D02E4B1B6A49
:1018000023F44073FB602E4B01221A602C4B002204
:101810001A60294AFB681362FB6803F00103002B7E
:1018200014D0FEF7BDFC38610AE0FEF7B9FC0246B1
:101830003B69D31A41F28832934201D9032336E03F
:101840001D4B1B6A03F00203002BEED01A4B1B6AE0
:1018500023F440727B685B68174913430B62FB7D7E
:10186000012B05D1144BDB69134A23F08053D3615C
:101870007B681B6803F00203002B08D00E4B5B68EB
:1018800023F440427B689B680B4913434B607B68A1
:101890001B6803F01003002B08D0074B5B6823F490
:1018A00080027B68DB68044913434B6000231846C1
:1018B0001837BD4680BD00BF0010024000700040D8
:1018C0004004424290B58DB000AF7860554B07F1AF
:1018D0000C040FCB84E80F00534B1B883B81002383
:1018E0007B620023FB6200233B620023FB61002339
:1018F000BB627B68022B7FD0102B02D0012B48D01B
:101900008BE04A4B5B68FB61484B1B6803F08073BC
:10191000002B7FD0FB699B0C03F00F0307F1300213
:10192000134413F8243C3B62FB6903F48033002B1F
:1019300018D03E4B5B685B0C03F0010307F13002EB
:10194000134413F8283C7B62FB6903F48033002BBB
:101950000DD0374A7B6AB2FBF3F23B6A02FB03F31A
:10196000FB6204E03B6A334A02FB03F3FB622F4B4A
:101970005B6803F48003B3F5800F02D1FB6ABB629E
:1019800048E0FB6A5B002C4AA2FB03235B08BB62B6
:1019900040E0264B1B6AFB61FB6903F44073B3F51F
:1019A000807F08D1FB6903F00203002B03D04FF4C2
:1019B0000043BB621FE0FB6903F44073B3F5007F93
:1019C00009D11A4B5B6A03F00203002B03D049F6DE
:1019D0004043BB620FE0FB6903F44073B3F5407F03
:1019E0001AD1124B1B6803F40033002B14D04FF2B2
:1019F0002443BB6210E00FE0FFF74CFE02460B4BA6
:101A00005B689B0B03F0030301335B00B2FBF3F352
:101A1000BB6202E000BF00E000BFBB6A184634377B
:101A2000BD4690BD6C5E00087C5E00080010024060
:101A300000127A0000093D00ABAAAAAA80B584B0C2
:101A400000AF78600023FB607B68002B01D101238D
:101A500084E07B685B7CDBB2002B05D17B680022D5
:101A60001A74786804F0BEF87B6802225A747868A9
:101A700000F07AF80346002B04D07B6804225A74E5
:101A800001236BE0786800F09CF80346002B04D03B
:101A90007B6804225A74012360E07B681B685A68E3
:101AA0007B681B6822F007025A607B689B68002BEA
:101AB00005D02C4B1B6B2B4A23F001031363294BDE
:101AC000DB6A23F460727B689B6826491343CB6210
:101AD0007B685B68B3F1FF3F03D07B685B68FB60AA
:101AE0000EE00120FFF7EEFEF860FB68002B04D14A
:101AF0007B6804225A74012330E0FB68013BFB60E1
:101B00007B681B689B6823F00F01FB681A0C7B68DD
:101B10001B680A439A607B681B68DB681B0C1B040C
:101B2000FA6891B27A6812680B43D360786800F063
:101B300070F80346002B04D07B6804225A740123FA
:101B40000CE07B680022DA737B6801225A737B68A1
:101B500001229A737B6801225A74002318461037B9
:101B6000BD4680BD006C004080B584B000AF786099
:101B70000023FB607B68002B01D101231DE07B6803
:101B80001B685A687B681B6822F008025A60FEF7DF
:101B900007FBF86009E0FEF703FB0246FB68D31A77
:101BA000B3F57A7F01D9032307E07B681B685B6884
:101BB00003F00803002BEED0002318461037BD4673
:101BC00080BD80B584B000AF78600023FB60FEF775
:101BD000E7FAF86009E0FEF7E3FA0246FB68D31A79
:101BE000B3F57A7F01D903230FE07B681B685B683C
:101BF00003F02003002BEED07B681B685A687B68DB
:101C00001B6842F010025A60002318461037BD4688
:101C100080BD80B584B000AF78600023FB607B6836
:101C20001B685A687B681B6822F010025A60FEF736
:101C3000B7FAF86009E0FEF7B3FA0246FB68D31A78
:101C4000B3F57A7F01D9032307E07B681B685B68E3
:101C500003F02003002BEED0002318461037BD46BA
:101C600080BD80B582B000AF78607B68002B01D169
:101C700001231DE07B6893F83D30DBB2002B06D1D9
:101C80007B68002283F83C20786800F015F87B68B8
:101C9000022283F83D207B681A687B68043319466A
:101CA000104600F061F97B68012283F83D20002393
:101CB00018460837BD4680BD80B483B000AF786059
:101CC00000BF0C37BD4680BC704780B485B000AF04
:101CD00078607B681B68DA687B681B6842F00102E9
:101CE000DA607B681B689B6803F00703FB60FB6896
:101CF000062B07D07B681B681A687B681B6842F05C
:101D000001021A60002318461437BD4680BC704794
:101D100080B582B000AF78607B681B681B6903F0F8
:101D20000203022B22D17B681B68DB6803F00203ED
:101D3000022B1BD17B681B686FF002021A617B6863
:101D400001221A777B681B689B6903F00303002B51
:101D500003D0786800F0EDF805E0786800F0E0F86E
:101D6000786800F0EFF87B6800221A777B681B68C0
:101D70001B6903F00403042B22D17B681B68DB681A
:101D800003F00403042B1BD17B681B686FF0040273
:101D90001A617B6802221A777B681B689B6903F4CF
:101DA0004073002B03D0786800F0C3F805E0786832
:101DB00000F0B6F8786800F0C5F87B6800221A7762
:101DC0007B681B681B6903F00803082B22D17B6822
:101DD0001B68DB6803F00803082B1BD17B681B68BA
:101DE0006FF008021A617B6804221A777B681B680F
:101DF000DB6903F00303002B03D0786800F099F847
:101E000005E0786800F08CF8786800F09BF87B6853
:101E100000221A777B681B681B6903F01003102BE4
:101E200022D17B681B68DB6803F01003102B1BD1E9
:101E30007B681B686FF010021A617B6808221A77B2
:101E40007B681B68DB6903F44073002B03D0786860
:101E500000F06FF805E0786800F062F8786800F04C
:101E600071F87B6800221A777B681B681B6903F096
:101E70000103012B0ED17B681B68DB6803F00103B3
:101E8000012B07D17B681B686FF001021A6178682B
:101E900002F092F97B681B681B6903F08003802BBA
:101EA0000ED17B681B68DB6803F08003802B07D1B1
:101EB0007B681B686FF080021A61786800F0BFF8D9
:101EC0007B681B681B6903F04003402B0ED17B68C5
:101ED0001B68DB6803F04003402B07D17B681B685D
:101EE0006FF040021A61786800F035F87B681B6873
:101EF0001B6903F02003202B0ED17B681B68DB6875
:101F000003F02003202B07D17B681B686FF02002B1
:101F10001A61786800F08AF800BF0837BD4680BDB6
:101F200080B483B000AF786000BF0C37BD4680BC82
:101F3000704780B483B000AF786000BF0C37BD46F7
:101F400080BC704780B483B000AF786000BF0C37AE
:101F5000BD4680BC704780B483B000AF786000BFDE
:101F60000C37BD4680BC704780B485B000AF786048
:101F700039607B681B68FB607B68294A93420BD001
:101F80007B68B3F1804F07D07B68264A934203D029
:101F90007B68254A934208D1FB6823F07003FB60FD
:101FA0003B685B68FA681343FB607B681C4A93429A
:101FB0000BD07B68B3F1804F07D07B68194A9342FE
:101FC00003D07B68184A934208D1FB6823F440731E
:101FD000FB603B68DB68FA681343FB60FB6823F037
:101FE00080023B685B691343FB607B68FA681A6098
:101FF0003B689A687B68DA623B681A687B689A6219
:102000007B68074A934203D13B681A697B681A636D
:102010007B6801225A6100BF1437BD4680BC7047FF
:10202000002C0140000400400008004080B483B050
:1020300000AF786000BF0C37BD4680BC704780B4ED
:1020400083B000AF786000BF0C37BD4680BC7047DE
:1020500080B485B000AF0346FB800023FB60B7F976
:102060000630842B05D0B7F90620FB6813440333F0
:10207000FB60FB6818461437BD4680BC704780B5CE
:1020800000AF00F00DFE0023184680BDF0B587B00C
:1020900002AF786039607B685C687B681D687B682C
:1020A0001B699EB27B68B3F908301846FFF7D0FF72
:1020B000024607F10C03019300923B683246294621
:1020C000204600F090FC0346012B01D0002300E0E5
:1020D000FB6818461437BD46F0BD80B584B000AF2C
:1020E00078607B68FB60FB68002B01D0FB6800E038
:1020F0000123184600F0A0FD002318461037BD4606
:1021000080BD80B483B000AF78607B6803F10802C3
:102110007B685A607B684FF0FF329A607B6803F1FE
:1021200008027B68DA607B6803F108027B681A6149
:102130007B6800221A6000BF0C37BD4680BC704728
:1021400080B483B000AF78607B6800221A6100BF62
:102150000C37BD4680BC704780B485B000AF786056
:1021600039607B685B68FB603B68FA685A60FB68B3
:102170009A683B689A60FB689B683A685A60FB689B
:102180003A689A603B687A681A617B681B685A1CD7
:102190007B681A6000BF1437BD4680BC704780B4AE
:1021A00085B000AF786039603B681B68BB60BB6876
:1021B000B3F1FF3F03D17B681B69FB600CE07B68D8
:1021C0000833FB6002E0FB685B68FB60FB685B68F0
:1021D0001B68BA689A42F6D2FB685A683B685A6034
:1021E0003B685B683A689A603B68FA689A60FB688B
:1021F0003A685A603B687A681A617B681B685A1CA7
:102200007B681A6000BF1437BD4680BC704780B43D
:1022100085B000AF78607B681B69FB607B685B689A
:102220007A6892689A607B689B687A6852685A609C
:10223000FB685B687A689A4203D17B689A68FB689E
:102240005A607B6800221A61FB681B685A1EFB6893
:102250001A60FB681B6818461437BD4680BC70477F
:1022600080B584B000AF786039607B68FB60FB6844
:10227000002B09D14FF0500383F31188BFF36F8F08
:10228000BFF34F8FBB60FEE701F0FEFBFB681A68EF
:10229000FB68DB6BF968096C01FB03F31A44FB680C
:1022A0005A60FB6800229A63FB681A68FB689A60B0
:1022B000FB681A68FB68DB6B013BF968096C01FB82
:1022C00003F31A44FB68DA60FB68FF2283F84420BA
:1022D000FB68FF2283F845203B68002B14D1FB6884
:1022E0001B69002B1AD0FB681033184600F002FF60
:1022F0000346002B12D00D4B4FF080521A60BFF3F3
:102300004F8FBFF36F8F09E0FB6810331846FFF75C
:10231000F8FEFB6824331846FFF7F3FE01F0E2FBFA
:10232000012318461037BD4680BD00BF04ED00E014
:1023300080B58AB002AFF860B9601346FB71FB68E4
:10234000002B09D14FF0500383F31188BFF36F8F37
:10235000BFF34F8F3B61FEE7BB68002B02D1002328
:10236000FB6104E0FB68BA6802FB03F3FB61FB69F5
:102370004833184601F042FCB861BB69002B0BD012
:10238000BB6948337B61FA79BB69009313467A696C
:10239000B968F86800F005F8BB6918462037BD46F3
:1023A00080BD80B584B000AFF860B9607A60FB7022
:1023B000BB68002B03D1BB69BA691A6002E0BB6934
:1023C0007A681A60BB69FA68DA63BB69BA681A642A
:1023D0000121B869FFF744FF00BF1037BD4680BD3B
:1023E00080B58EB000AFF860B9607A603B600023C2
:1023F0007B63FB683B633B6B002B09D14FF05003C1
:1024000083F31188BFF36F8FBFF34F8FBB62FEE77B
:10241000BB68002B03D13B6B1B6C002B01D101234C
:1024200000E00023002B09D14FF0500383F3118803
:10243000BFF36F8FBFF34F8F7B62FEE73B68022BCA
:1024400003D13B6BDB6B012B01D1012300E00023A7
:10245000002B09D14FF0500383F31188BFF36F8F26
:10246000BFF34F8F3B62FEE700F0E0FF0346002B17
:1024700002D17B68002B01D1012300E00023002B57
:1024800009D14FF0500383F31188BFF36F8FBFF36F
:102490004F8FFB61FEE701F0F7FA3B6B9A6B3B6BEA
:1024A000DB6B9A4202D33B68022B29D13A68B968A8
:1024B000386B00F0AEF9F8623B6B5B6A002B10D012
:1024C0003B6B2433184600F015FE0346002B13D057
:1024D0003F4B4FF080521A60BFF34F8FBFF36F8FA7
:1024E0000AE0FB6A002B07D0394B4FF080521A608C
:1024F000BFF34F8FBFF36F8F01F0F4FA012363E056
:102500007B68002B03D101F0EDFA00235CE07B6BCC
:10251000002B06D107F11403184600F04DFE0123ED
:102520007B6301F0DFFA00F001FC01F0ADFA3B6BD8
:1025300093F844305BB2B3F1FF3F03D13B6B002211
:1025400083F844203B6B93F845305BB2B3F1FF3F17
:1025500003D13B6B002283F8452001F0C3FA3A1DFA
:1025600007F114031146184600F03CFE0346002B09
:1025700024D1386B00F01FFA0346002B18D03B6BB8
:1025800010337A681146184600F090FD386B00F061
:10259000AAF900F0D9FB0346002B7FF47CAF0C4B6B
:1025A0004FF080521A60BFF34F8FBFF36F8F72E707
:1025B000386B00F098F900F0C7FB6CE7386B00F05F
:1025C00092F900F0C1FB002318463837BD4680BDA4
:1025D00004ED00E080B58EB000AF78603960002374
:1025E0007B637B68FB6200233B63FB6A002B09D1A2
:1025F0004FF0500383F31188BFF36F8FBFF34F8FFA
:102600003B62FEE7FB6A1B6C002B09D04FF05003C6
:1026100083F31188BFF36F8FBFF34F8FFB61FEE72A
:1026200000F004FF0346002B02D13B68002B01D1D0
:10263000012300E00023002B09D14FF0500383F366
:102640001188BFF36F8FBFF34F8FBB61FEE701F0BF
:102650001BFAFB6A9B6BBB62BB6A002B24D0BB6A74
:102660005A1EFB6A9A63FB6A1B68002B04D101F0B7
:10267000A3F80246FB6A5A60FB6A1B69002B0FD065
:10268000FB6A1033184600F035FD0346002B07D0D7
:10269000534B4FF080521A60BFF34F8FBFF36F8FD1
:1026A00001F020FA012396E03B68002B10D13B6B30
:1026B000002B09D04FF0500383F31188BFF36F8FC5
:1026C000BFF34F8F7B61FEE701F00CFA002382E03D
:1026D0007B6B002B06D107F10C03184600F06CFD54
:1026E00001237B6301F0FEF900F020FB01F0CCF93F
:1026F000FB6A93F844305BB2B3F1FF3F03D1FB6A4E
:10270000002283F84420FB6A93F845305BB2B3F1B2
:10271000FF3F03D1FB6A002283F8452001F0E2F974
:102720003A4607F10C031146184600F05BFD0346DC
:10273000002B32D1F86A00F028F90346002B26D08E
:10274000FB6A1B68002B09D101F09EF9FB6A5B68EC
:10275000184600F089FE386301F0C4F9FB6A24339F
:102760003A681146184600F0A1FCF86A00F0BBF880
:1027700000F0EAFA0346002B7FF469AF184B4FF0E4
:1027800080521A60BFF34F8FBFF36F8F5FE7F86A15
:1027900000F0A9F800F0D8FA59E7F86A00F0A3F8B9
:1027A00000F0D2FAF86A00F0F0F80346002B3FF48C
:1027B0004EAF3B6B002B0DD001F066F9F86A00F0CC
:1027C00011F87862FB6A5B68796A184600F056FF78
:1027D00001F088F9002318463837BD4680BD00BF98
:1027E00004ED00E080B485B000AF78607B685B6A80
:1027F000002B06D07B681B6B1B68C3F10703FB60D3
:1028000001E00023FB60FB6818461437BD4680BC1E
:10281000704780B586B000AFF860B9607A60002379
:102820007B61FB689B6B3B61FB681B6C002B0DD1D4
:10283000FB681B68002B4DD1FB685B68184600F0F5
:1028400099FE7861FB6800225A6043E07B68002BA8
:1028500019D1FB689868FB681B6C1A46B96803F0CD
:10286000DBFAFB689A68FB681B6C1A44FB689A6089
:10287000FB689A68FB685B689A422BD3FB681A680E
:10288000FB689A6026E0FB68D868FB681B6C1A46F8
:10289000B96803F0C1FAFB68DA68FB681B6C5B423D
:1028A0001A44FB68DA60FB68DA68FB681B689A42C6
:1028B00007D2FB685A68FB681B6C5B421A44FB68D2
:1028C000DA607B68022B05D13B69002B02D03B69A3
:1028D000013B3B613B695A1CFB689A637B69184664
:1028E0001837BD4680BD80B584B000AF786001F078
:1028F000CBF87B6893F84530FB7311E07B685B6A2B
:10290000002B12D07B682433184600F0F3FB0346FB
:10291000002B01D000F0C6FCFB7B013BDBB2FB735C
:1029200097F90F30002BE9DC00E000BF7B68FF2245
:1029300083F8452001F0D6F801F0A6F87B6893F8FB
:102940004430BB7311E07B681B69002B12D07B689D
:102950001033184600F0CEFB0346002B01D000F0E8
:10296000A1FCBB7B013BDBB2BB7397F90E30002BA4
:10297000E9DC00E000BF7B68FF2283F8442001F01F
:10298000B1F800BF1037BD4680BD80B584B000AF40
:10299000786001F079F87B689B6B002B02D10123F2
:1029A000FB6001E00023FB6001F09CF8FB68184627
:1029B0001037BD4680BD80B584B000AF786001F0AF
:1029C00063F87B689A6B7B68DB6B9A4202D10123C8
:1029D000FB6001E00023FB6001F084F8FB6818460F
:1029E0001037BD4680BD80B58CB004AFF860B960CB
:1029F0003B601346FB80FB889B00184601F0FEF805
:102A000078617B69002B0ED0542001F0F7F8F86153
:102A1000FB69002B03D0FB697A691A6305E07869CA
:102A200001F0AEF901E00023FB61FB69002B13D03C
:102A3000FA8800230393FB690293FB6A0193BB6A44
:102A400000933B68B968F86800F00EF8F86900F088
:102A500089F80123BB6102E04FF0FF33BB61BB6922
:102A600018462037BD4680BD80B588B000AFF860FD
:102A7000B9607A603B603B6B1A6B7B6803F1804303
:102A8000013B9B001344BB61BB6923F00703BB619F
:102A9000BB6903F00703002B09D04FF0500383F309
:102AA0001188BFF36F8FBFF34F8F7B61FEE7002369
:102AB000FB6112E0BA68FB69134419783A6BFB6951
:102AC000134434330A461A70BA68FB6913441B78FE
:102AD000002B06D0FB690133FB61FB690F2BE9D9A1
:102AE00000E000BF3B6B002283F84320BB6A062B4B
:102AF00001D90623BB623B6BBA6ADA623B6BBA6AE6
:102B00005A643B6B00229A643B6B04331846FFF710
:102B100017FB3B6B18331846FFF712FB3B6B3A6B06
:102B20001A61BB6AC3F107023B6B9A613B6B3A6B5C
:102B30005A623B6B0022DA643B6B002283F8502020
:102B40003A68F968B86900F0B1FE02463B6B1A605A
:102B5000FB6A002B02D0FB6A3A6B1A6000BF203779
:102B6000BD4680BD80B582B000AF786000F08CFFBC
:102B70002A4B1B680133294A1360294B1B68002B21
:102B800009D1274A7B681360244B1B68012B10D1A5
:102B900000F0ACFB0DE0234B1B68002B09D1204B50
:102BA0001B68DA6A7B68DB6A9A4202D81C4A7B6837
:102BB00013601D4B1B6801331B4A13607B68DB6A83
:102BC00001229A40194B1B681343184A13607B6813
:102BD000DA6A13469B0013449B00154A1A447B682B
:102BE000043319461046FFF7B7FA00F07BFF0D4B90
:102BF0001B68002B0ED00A4B1B68DA6A7B68DB6A05
:102C00009A4207D20B4B4FF080521A60BFF34F8F9E
:102C1000BFF36F8F00BF0837BD4680BD0C03002097
:102C20000C020020180300202803002014030020B9
:102C30001002002004ED00E080B584B000AF7860A1
:102C40000023FB607B68002B16D0134B1B68002B06
:102C500009D04FF0500383F31188BFF36F8FBFF398
:102C60004F8FBB60FEE700F061F80021786800F04C
:102C7000B7FD00F069F8F860FB68002B07D1074B3F
:102C80004FF080521A60BFF34F8FBFF36F8F00BFBA
:102C90001037BD4680BD00BF3403002004ED00E0C6
:102CA00080B586B002AF1B4B019300230093002335
:102CB000802219491948FFF796FEF860FB68012B3E
:102CC00015D14FF0500383F31188BFF36F8FBFF31B
:102CD0004F8FBB60124B4FF0FF321A60114B012235
:102CE0001A60114B00221A6000F05EFE0DE0FB68D6
:102CF000B3F1FF3F09D14FF0500383F31188BFF3C5
:102D00006F8FBFF34F8F7B60FEE700BF1037BD466C
:102D100080BD00BF30030020805E0008BD32000887
:102D20002C030020180300201003002080B400AF03
:102D3000044B1B680133034A136000BFBD4680BCCF
:102D4000704700BF3403002080B584B000AF00237B
:102D5000FB600023BB60414B1B68002B09D14FF087
:102D6000500383F31188BFF36F8FBFF34F8F3B6026
:102D7000FEE700F089FE394B1B68013B374A1360C0
:102D8000364B1B68002B61D1354B1B68002B5DD087
:102D90002EE0344BDB68DB68FB60FB6818331846B9
:102DA000FFF735FAFB6804331846FFF730FAFB6883
:102DB000DB6A01229A402C4B1B6813432A4A13609A
:102DC000FB68DA6A13469B0013449B00274A1A44A7
:102DD000FB68043319461046FFF7BEF9FB68DA6A50
:102DE000234B1B68DB6A9A4202D3224B01221A60F2
:102DF0001C4B1B68002BCCD1FB68002B01D000F0D2
:102E0000F1FA1D4B1B687B607B68002B10D000F033
:102E100037F80346002B02D0164B01221A607B685C
:102E2000013B7B607B68002BF1D1134B00221A60C1
:102E3000104B1B68002B09D00123BB600F4B4FF0D8
:102E400080521A60BFF34F8FBFF36F8F00F04AFEBE
:102E5000BB6818461037BD4680BD00BF3403002054
:102E60000C030020CC0200201403002010020020DC
:102E70000C020020200300201C03002004ED00E0D1
:102E800080B586B000AF00237B61504B1B68002BE0
:102E900040F08C804E4B1B6801333B614C4A3B69D0
:102EA00013603B69002B1FD14A4B1B681B68002B2A
:102EB00009D04FF0500383F31188BFF36F8FBFF336
:102EC0004F8F3B60FEE7434B1B68FB60424B1B6828
:102ED000404A1360404AFB681360404B1B68013353
:102EE0003E4A136000F07EFA3D4B1B683A699A42F5
:102EF0004DD3384B1B681B68002B01D1012300E028
:102F00000023002B04D0364B4FF0FF321A603EE016
:102F1000304B1B68DB68DB68BB60BB685B687B6051
:102F20003A697B689A4203D22D4A7B6813602EE08F
:102F3000BB6804331846FFF76AF9BB689B6A002B2D
:102F400004D0BB6818331846FFF761F9BB68DB6A29
:102F500001229A40234B1B681343224A1360BB682B
:102F6000DA6A13469B0013449B001F4A1A44BB684D
:102F7000043319461046FFF7EFF8BB68DA6A1B4BBB
:102F80001B68DB6A9A42B4D301237B61B1E7174B1C
:102F90001B68DA6A144913469B0013449B000B44D8
:102FA0001B68012B07D901237B6104E0104B1B68D0
:102FB00001330F4A13600F4B1B68002B01D0012314
:102FC0007B617B6918461837BD4680BD34030020FD
:102FD00010030020C4020020C802002024030020A7
:102FE0002C03002014030020100200200C020020FB
:102FF0001C0300202003002080B487B000AF264BC4
:103000001B68002B03D0254B01221A603EE0234BA6
:1030100000221A60224B1B68FB60FB68B3FA83F343
:10302000FB72FB7AC3F11F037B611E497A69134669
:103030009B0013449B000B441B68002B09D14FF0ED
:10304000500383F31188BFF36F8FBFF34F8F7B6003
:10305000FEE77A6913469B0013449B00114A134410
:103060003B613B695B685A683B695A603B695A68D7
:103070003B6908339A4204D13B695B685A683B69F3
:103080005A603B695B68DB68074A136000BF1C3706
:10309000BD4680BC704700BF3403002020030020E1
:1030A00014030020100200200C02002080B584B020
:1030B00000AF786039607B68002B09D14FF0500376
:1030C00083F31188BFF36F8FBFF34F8FFB60FEE771
:1030D000074B1B68183319467868FFF760F8012121
:1030E000386800F07DFB00BF1037BD4680BD00BFD3
:1030F0000C02002080B586B000AF78607B68DB688A
:10310000DB683B613B69002B09D14FF0500383F32F
:103110001188BFF36F8FBFF34F8FFB60FEE73B69F2
:1031200018331846FFF773F81D4B1B68002B1CD192
:103130003B6904331846FFF76AF83B69DB6A0122F2
:103140009A40184B1B681343164A13603B69DA6AAE
:1031500013469B0013449B00134A1A443B690433F3
:1031600019461046FEF7F8FF05E03B69183319468B
:103170000E48FEF7F1FF3B69DA6A0D4B1B68DB6A0C
:103180009A4205D901237B610A4B01221A6001E0B2
:1031900000237B617B6918461837BD4680BD00BFA0
:1031A000340300201403002010020020CC02002071
:1031B0000C0200202003002080B483B000AF7860B0
:1031C000064B1A687B681A60054B1A687B685A6060
:1031D00000BF0C37BD4680BC704700BF24030020F1
:1031E0001003002080B588B000AF786039607B683C
:1031F000002B09D14FF0500383F31188BFF36F8F79
:10320000BFF34F8F3B61FEE73B68002B09D14FF0C6
:10321000500383F31188BFF36F8FBFF34F8FFB60B1
:10322000FEE700F031FC1D4B1B68BB617B685B68EF
:10323000BA69D31A7B613B681B68B3F1FF3F02D1C7
:103240000023FB6123E07B681A68154B1B689A42D8
:1032500007D07B685B68BA699A4202D30123FB619D
:1032600015E03B681B687A699A420BD23B681A6882
:103270007B69D21A3B681A607868FFF79DFF0023CC
:10328000FB6104E03B6800221A600123FB6100F04F
:1032900029FCFB6918462037BD4680BD100300207D
:1032A0002403002080B400AF034B01221A6000BF4A
:1032B000BD4680BC704700BF2003002080B582B0AF
:1032C00000AF786000F052F8064B1B68012BF9D96B
:1032D000054B4FF080521A60BFF34F8FBFF36F8FD3
:1032E000F0E700BF1002002004ED00E080B582B0DE
:1032F00000AF00237B600CE07A6813469B00134408
:103300009B00124A13441846FEF7FBFE7B6801330C
:103310007B607B68062BEFD90D48FEF7F2FE0D4867
:10332000FEF7EFFE0C48FEF7ECFE0C48FEF7E9FE58
:103330000B48FEF7E6FE0B4B054A1A600A4B054A9E
:103340001A6000BF0837BD4680BD00BF10020020D4
:103350009C020020B0020020CC020020E0020020ED
:10336000F8020020C4020020C802002080B582B00C
:1033700000AF19E000F088FB0F4BDB68DB687B6077
:103380007B6804331846FEF742FF0C4B1B68013B79
:103390000A4A13600A4B1B68013B094A136000F09C
:1033A000A1FB786800F00EF8054B1B68002BE1D1FB
:1033B00000BF0837BD4680BDE00200200C0300209E
:1033C000F402002080B582B000AF78607B681B6B90
:1033D000184600F0D5FC786800F0D2FC00BF083732
:1033E000BD4680BD80B483B000AF0E4B1B681B6828
:1033F000002B01D1012300E00023002B04D00A4B55
:103400004FF0FF321A6008E0064B1B68DB68DB6890
:103410007B607B685B68044A136000BF0C37BD4665
:1034200080BC7047C40200202C03002080B483B00D
:1034300000AF0B4B1B68002B02D101237B6008E01F
:10344000084B1B68002B02D102237B6001E00023A4
:103450007B607B6818460C37BD4680BC704700BF58
:10346000180300203403002080B584B000AF7860DA
:103470007B68BB600023FB607B68002B6ED0BB6861
:10348000DA6A394B1B68DB6A9A425ED2BB689B6979
:10349000002B06DB344B1B68DB6AC3F10702BB68F9
:1034A0009A61BB685969BB68DA6A13469B0013448A
:1034B0009B002E4A1344994201D1012300E00023CE
:1034C000002B3AD0BB6804331846FEF7A0FE034633
:1034D000002B15D1BB68DA6A244913469B001344BC
:1034E0009B000B441B68002B0AD1BB68DB6A0122DE
:1034F00002FA03F3DA431E4B1B6813401C4A1360A5
:10350000194B1B68DA6ABB68DA62BB68DB6A0122A6
:103510009A40174B1B681343154A1360BB68DA6A5D
:1035200013469B0013449B00104A1A44BB680433A3
:1035300019461046FEF710FE04E00B4B1B68DA6AD2
:10354000BB68DA620123FB6008E0BB685A6C064B7B
:103550001B68DB6A9A4201D20123FB60FB681846B4
:103560001037BD4680BD00BF0C02002010020020B5
:103570001403002080B586B000AF78607B683B61A3
:1035800000237B617B68002B6CD0394B1B683A6948
:103590009A4209D04FF0500383F31188BFF36F8F25
:1035A000BFF34F8FFB60FEE73B699B6C002B09D19B
:1035B0004FF0500383F31188BFF36F8FBFF34F8F2A
:1035C000BB60FEE73B699B6C5A1E3B699A643B6992
:1035D000DA6A3B695B6C9A4244D03B699B6C002B76
:1035E00040D13B6904331846FEF711FE0346002B19
:1035F00015D13B69DA6A1F4913469B0013449B00AF
:103600000B441B68002B0AD13B69DB6A012202FADA
:1036100003F3DA43184B1B681340174A13603B69E6
:103620005A6C3B69DA623B69DB6AC3F107023B69AA
:103630009A613B69DB6A01229A400F4B1B68134376
:103640000D4A13603B69DA6A13469B0013449B00E2
:10365000084A1A443B69043319461046FEF77CFDBC
:1036600001237B617B6918461837BD4680BD00BFCA
:103670000C020020100200201403002080B588B046
:1036800000AF786039607B68BB6101237B617B6838
:10369000002B00F08680BB699B6C002B09D14FF09A
:1036A000500383F31188BFF36F8FBFF34F8FFB601D
:1036B000FEE7BB695B6C3A689A4202D93B68FB61E2
:1036C00002E0BB695B6CFB61BB69DB6AFA699A4229
:1036D00067D0BB699B6C7A699A4262D1334B1B6895
:1036E000BA699A4209D14FF0500383F31188BFF3AE
:1036F0006F8FBFF34F8FBB60FEE7BB69DB6A3B6137
:10370000BB69FA69DA62BB699B69002B04DBFB6960
:10371000C3F10702BB699A61BB6959693A691346EB
:103720009B0013449B00224A1344994201D1012378
:1037300000E00023002B34D0BB6904331846FEF7A9
:1037400066FD0346002B15D1BB69DA6A184913469A
:103750009B0013449B000B441B68002B0AD1BB69E0
:10376000DB6A012202FA03F3DA43124B1B681340AF
:10377000104A1360BB69DB6A01229A400D4B1B683B
:1037800013430C4A1360BB69DA6A13469B00134467
:103790009B00074A1A44BB69043319461046FEF7DA
:1037A000DBFC00BF2037BD4680BD00BF0C020020FF
:1037B000100200201403002080B400AF074B1B68E8
:1037C000002B04D0054B1B689A6C01329A64034BA2
:1037D0001B681846BD4680BC704700BF0C02002025
:1037E00080B584B000AF78603960294B1B68FB60FE
:1037F000284B1B6804331846FEF709FD0346002BCF
:103800000BD1244B1B68DB6A012202FA03F3DA4373
:10381000214B1B681340204A13607B68B3F1FF3FC4
:103820000AD13B68002B07D01A4B1B68043319469A
:103830001A48FEF791FC26E0FA687B681344BB60E7
:10384000144B1B68BA685A60BA68FB689A4209D27E
:10385000134B1A680F4B1B68043319461046FEF7CA
:103860009EFC10E00F4B1A680A4B1B680433194684
:103870001046FEF794FC0C4B1B68BA689A4202D2C1
:10388000094ABB68136000BF1037BD4680BD00BF4A
:10389000100300200C02002014030020F802002076
:1038A000C8020020C40200202C03002080B485B090
:1038B00000AFF860B9607A60FB68043BFB60FB68AE
:1038C0004FF080721A60FB68043BFB60BB6823F01A
:1038D0000102FB681A60FB68043BFB60084AFB6856
:1038E0001A60FB68143BFB607A68FB681A60FB682F
:1038F000203BFB60FB6818461437BD4680BC704710
:103900000539000880B485B000AF00237B60104B00
:103910001B68B3F1FF3F09D04FF0500383F31188C8
:10392000BFF36F8FBFF34F8FFB60FEE74FF0500385
:1039300083F31188BFF36F8FBFF34F8FBB6000BF5E
:103940007B68002BFCD000BF1437BD4680BC70479D
:10395000080000200000000000000000000000003F
:10396000074B19680868B0E8F00F80F30988BFF3C7
:103970006F8F4FF0000080F311884EF00D0E7047EE
:103980000C02002000BF00BF06480068006880F3FA
:10399000088862B661B6BFF34F8FBFF36F8F00DF49
:1039A00000BF00BF08ED00E080B584B000AF314B30
:1039B000FB60FB681B78DBB27B60FB68FF221A7040
:1039C000FB681B78DBB2FB70FB78DBB203F05003C3
:1039D000DAB2294B1A70294B07221A6009E0274BEB
:1039E0001B68013B254A1360FB78DBB25B00DBB24E
:1039F000FB70FB78DBB203F08003802BEFD01F4B12
:103A00001B68C3F10703042B09D04FF0500383F365
:103A10001188BFF36F8FBFF34F8FBB60FEE7174B6B
:103A20001B681B02154A1360144B1B6803F4E06308
:103A3000124A13607B68DAB2FB681A70104B1B687D
:103A40000F4A43F4700313600D4B1B680C4A43F09C
:103A50007043136000F0B0F80A4B00221A60FFF7C1
:103A600093FFFFF7C9FAFFF74DFF00231846103701
:103A7000BD4680BD00E400E0380300203C03002088
:103A800020ED00E00800002080B483B000AF4FF0CC
:103A9000500383F31188BFF36F8FBFF34F8F7B60A9
:103AA0000E4B1B6801330D4A13600C4B1B68012B36
:103AB0000ED10B4B1B68DBB2002B09D04FF050032B
:103AC00083F31188BFF36F8FBFF34F8F3B60FEE727
:103AD00000BF0C37BD4680BC704700BF0800002007
:103AE00004ED00E080B483B000AF104B1B68002BE6
:103AF00009D14FF0500383F31188BFF36F8FBFF3E9
:103B00004F8F7B60FEE7094B1B68013B074A136040
:103B1000064B1B68002B04D100233B603B6883F3FA
:103B2000118800BF0C37BD4680BC704708000020DC
:103B3000EFF30980BFF36F8F0D4B1A6820E9F00F88
:103B400010602DE908404FF0500080F31188FFF716
:103B500053FA4FF0000080F31188BDE8084019685F
:103B60000868B0E8F00F80F30988BFF36F8F7047E3
:103B70000C02002000BF00BF80B582B000AF4FF044
:103B8000500383F31188BFF36F8FBFF34F8F7B60B8
:103B9000FFF776F90346002B03D0064B4FF0805217
:103BA0001A6000233B603B6883F3118800BF08372D
:103BB000BD4680BD04ED00E080B400AF0A4B00229A
:103BC0001A600A4B00221A60094B1B68094AA2FBC3
:103BD00003239B09084A013B1360034B07221A6029
:103BE00000BFBD4680BC704710E000E018E000E078
:103BF000EC010020D34D621014E000E080B58AB0E3
:103C000000AF78600023FB61FFF790F8574B1B680B
:103C1000002B01D100F00CF9554B1A687B6813405A
:103C2000002B40F08C807B68002B1CD008227B6826
:103C300013447B607B6803F00703002B13D07B6881
:103C400023F0070308337B607B6803F00703002B36
:103C500009D04FF0500383F31188BFF36F8FBFF388
:103C60004F8F7B61FEE77B68002B68D0414B1B6860
:103C70007A689A4263D8404B3B623F4B1B687B6239
:103C800004E07B6A3B627B6A1B687B627B6A5B68E1
:103C90007A689A4203D97B6A1B68002BF1D1334BB7
:103CA0001B687A6A9A424AD03B6A1B68082213440E
:103CB000FB617B6A1A683B6A1A607B6A5A687B6898
:103CC000D21A08235B009A421ED97A6A7B68134491
:103CD000BB61BB6903F00703002B09D04FF0500311
:103CE00083F31188BFF36F8FBFF34F8F3B61FEE704
:103CF0007B6A5A687B68D21ABB695A607B6A7A68A9
:103D00005A60B86900F0F6F81A4B1A687B6A5B686B
:103D1000D31A184A1360174B1A68184B1B689A423B
:103D200003D2144B1B68154A13607B6A5A68104B08
:103D30001B681A437B6A5A607B6A00221A60FFF78D
:103D400003F8FB6903F00703002B09D04FF0500381
:103D500083F31188BFF36F8FBFF34F8FFB60FEE7D4
:103D6000FB6918462837BD4680BD00BF480F0020BC
:103D7000540F00204C0F0020400F0020500F002057
:103D800080B586B000AF78607B687B617B68002B74
:103D900046D008235B427A6913447B617B693B61AF
:103DA0003B695A68204B1B681340002B09D14FF028
:103DB000500383F31188BFF36F8FBFF34F8FFB6006
:103DC000FEE73B691B68002B09D04FF0500383F3DB
:103DD0001188BFF36F8FBFF34F8FBB60FEE73B6966
:103DE0005A68114B1B681340002B19D03B691B68A4
:103DF000002B15D13B695A680B4B1B68DB431A40FB
:103E00003B695A60FEF792FF3B695A68074B1B6893
:103E10001344064A1360386900F06CF8FEF794FF0B
:103E200000BF1837BD4680BD540F00204C0F002046
:103E300080B485B000AF4FF44063BB60274BFB609C
:103E4000FB6803F00703002B0CD0FB680733FB6013
:103E5000FB6823F00703FB60BA68FB68D31A1F4AAC
:103E60001344BB60FB687B601D4A7B6813601C4B7E
:103E700000225A607B68BA681344FB600822FB6822
:103E80009B1AFB60FB6823F00703FB60FB68154A85
:103E90001360144B1B6800225A60124B1B680022EF
:103EA0001A607B683B603B68FA68D21A3B685A60CC
:103EB0000C4B1A683B681A603B685B680A4A1360DF
:103EC0003B685B68094A1360094B4FF000421A6077
:103ED00000BF1437BD4680BC704700BF40030020C0
:103EE000400F0020480F0020500F00204C0F0020F2
:103EF000540F002080B485B000AF7860274BFB6082
:103F000002E0FB681B68FB60FB681B687A689A42EA
:103F1000F7D8FB68BB60FB685B68BA6813447A68D3
:103F20009A4208D1FB685A687B685B681A44FB6850
:103F30005A60FB687B607B68BB607B685B68BA68C3
:103F40001A44FB681B689A4218D1FB681A68144B24
:103F50001B689A420DD07B685A68FB681B685B68D7
:103F60001A447B685A60FB681B681A687B681A6091
:103F700008E00B4B1A687B681A6003E0FB681A685C
:103F80007B681A60FA687B689A4202D0FB687A689C
:103F90001A6000BF1437BD4680BC7047400F002038
:103FA000480F002080B584B000AF3B1D00221A608E
:103FB0005A609A60194B1A4A1A60184B4FF4807273
:103FC0009A60164B01221A73144B00221A75134B78
:103FD0004FF46022DA61114B00225A600F4B02222B
:103FE0001A610E48FCF7E6F80346002B01D000F0FA
:103FF000F5F800237B600123BB600723FB603B1DBA
:1040000019460648FCF762FB0346002B01D000F07E
:10401000E5F800BF1037BD4680BD00BFA0110020ED
:104020000024014080B500AF0A4B0B4A1A60094BCF
:104030004FF0FF325A60074B4FF480729A60054888
:10404000FDF7FCFC0346002B01D000F0C7F800BFD1
:1040500080BD00BFD01100200028004080B588B08E
:1040600000AF07F1100300221A605A609A60DA600C
:10407000234B9B69224A43F020039361204B9B69A9
:1040800003F02003FB60FB681D4B9B691C4A43F057
:10409000040393611A4B9B6903F00403BB60BB6884
:1040A000174B9B69164A43F008039361144B9B69B5
:1040B00003F008037B607B680022F8211148FCF7BD
:1040C000DAFEF8233B6101237B610023BB610223FD
:1040D000FB6107F1100319460A48FCF75BFD4FF43A
:1040E000C0733B6100237B610123BB6107F11003B7
:1040F00019460548FCF74EFD00BF2037BD4680BD80
:104100000010024000080140000C014080B594B04E
:1041100000AF07F1280328220021184601F087FE8E
:1041200007F1140300221A605A609A60DA601A617B
:104130003B1D00221A605A609A60DA600A23BB6253
:104140000123BB631023FB6301233B6400237B64D7
:1041500007F128031846FCF7B3FE0346002B01D0F5
:1041600000F03CF80F237B610023BB610023FB615F
:1041700000233B6200237B6207F1140300211846F1
:10418000FDF71EF90346002B01D000F027F80323AA
:104190007B604FF40073BB600023FB603B1D18463F
:1041A000FDF7DAFA0346002B01D000F017F800BF44
:1041B0005037BD4680BD000080B582B000AF78604A
:1041C0007B681B68044A934201D1FBF7D7FF00BF0D
:1041D0000837BD4680BD00BF0008004080B400AF76
:1041E00000BFBD4680BC704780B500AF4FF4807102
:1041F0000B48FCF729FE0346002B03D1094B002294
:104200001A700AE04FF480710548FCF71DFE034662
:10421000012B02D1034B01221A7000BF80BD00BFE9
:10422000000C01400C00002080B500AF4FF48071FD
:104230000B48FCF709FE0346012B03D1094B022270
:104240001A700AE04FF480710548FCF7FDFD034643
:10425000002B02D1034B01221A7000BF80BD00BFAA
:10426000000C01400C00002080B500AF4FF48071BD
:104270001A48FCF7E9FD0346012B12D10A20FDF78D
:104280002CFF4FF480711548FCF7DEFD0346012B2F
:1042900003D1134B02221A701DE0114B01221A7038
:1042A00019E04FF480710D48FCF7CEFD0346002B5A
:1042B00011D10A20FDF711FF4FF480710748FCF778
:1042C000C3FD0346002B03D1054B00221A7002E008
:1042D000034B01221A7000BF80BD00BF000C0140DB
:1042E0000C00002080B500AF064B1B78022B07D8CE
:1042F000044B1B78044ADB0013445B68984700E0DA
:1043000000BF80BD0C0000201000002080B584B0EC
:1043100000AF7860154B1B684FF47A711846FEF7B2
:1043200059F90346012B1CD10923FB600BE0FB6804
:10433000023B0F4AD15C0E4AFB6813440A461A70CE
:10434000FB68023BFB60FB68012BF0DC7B681A78A2
:10435000074B5A70054B1868002300220021FEF716
:104360003FF800BF1037BD4680BD00BF6C11002074
:104370002C00002080B584B000AF0346FB71002301
:10438000FB730D4B1B684FF47A711846FEF722F948
:104390000346012B0AD1FB79084AD35CFB73064B19
:1043A0001868002300220021FEF71AF8FB7B18464C
:1043B0001037BD4680BD00BF6C1100202C000020CE
:1043C00080B483B000AF7860104B1B78002B01D114
:1043D000002315E07B6840F6D272934205D97B68D2
:1043E000B3F5805F01D206230AE07B68B3F5805FF6
:1043F00003D27B68B3F5FA6F01D8042300E00523EC
:1044000018460C37BD4680BC704700BF0C0000202A
:1044100080B500AF0348FFF779FF034B01221A7004
:1044200000BF80BD280000208800002080B500AFBC
:104430000348FFF76BFF034B03221A7000BF80BDD8
:10444000290000208800002080B500AF0348FFF756
:104450005DFF034B04221A7000BF80BD2A000020BC
:104460008800002080B500AF0348FFF74FFF034BE3
:1044700008221A7000BF80BD2B0000208800002099
:1044800080B500AF0D4A0121012000F023FC0C484B
:10449000FCF710F902460B4B1A600A4B1B681846D2
:1044A000FFF78EFF0346062B03D1074B01221A703C
:1044B00002E0054B06221A7000BF80BD885E00082E
:1044C000A0110020580F00208800002080B500AF08
:1044D0000D4A0121012000F0FDFB0C48FCF7EAF831
:1044E00002460B4B1A600A4B1B681846FFF768FF21
:1044F0000346052B03D1074B04221A7002E0054B3B
:1045000006221A7000BF80BD945E0008A011002032
:10451000580F00208800002080B500AF0D4A01210F
:10452000012000F0D7FB0C48FCF7C4F802460B4B07
:104530001A600A4B1B681846FFF742FF0346002B20
:1045400003D1074B08221A7002E0054B09221A70AA
:1045500000BF80BDA05E0008A0110020580F002001
:104560008800002080B500AF0D4A0121012000F035
:10457000B1FB0C48FCF79EF802460B4B1A600A4B45
:104580001B681846FFF71CFF0346042B03D1074B9B
:1045900003221A7002E0054B06221A7000BF80BD8C
:1045A000AC5E0008A0110020580F002088000020F9
:1045B00080B500AF0C48FCF77DF802460B4B1A6043
:1045C0004B20FDF78AFD094B1B681846FFF7F8FEE4
:1045D0000346002B03D1064B08221A7002E0044B5D
:1045E00006221A7000BF80BDA0110020580F0020C5
:1045F0008800002080B500AF464A0121012000F06C
:1046000069FB4548FCF756F80246444B1A60434B99
:104610001B681846FFF7D4FE0346062B74D801A288
:1046200052F823F0D7460008094700080947000858
:104630000947000873460008A546000841460008DF
:104640000520FDF74AFD3448FCF734F80246334BA9
:104650001A60324B1B681846FFF7B2FE0346062B62
:1046600003D12F4B00221A7051E02D4B06221A70F5
:104670004DE00520FDF731FD2748FCF71BF8024609
:10468000264B1A60254B1B681846FFF799FE034618
:10469000042B03D1224B02221A7038E0204B062251
:1046A0001A7034E06420FDF718FD1B48FCF702F88F
:1046B00002461A4B1A60194B1B681846FFF780FE1A
:1046C0000346052B03D1164B05221A701FE0144B2D
:1046D00006221A701BE00520FDF7FFFC0E48FBF7D1
:1046E000E9FF02460D4B1A600C4B1B681846FFF79A
:1046F00067FE0346002B03D1094B07221A7006E020
:10470000074B06221A7002E0054B06221A7000BF02
:1047100080BD00BFB85E0008A0110020580F002027
:104720008800002080B500AF0A20FDF7D6FC4FF4CA
:104730007A710B48FBF7C4FE0A4B1B78092B0CD887
:10474000094A1421142000F0C5FA064B1B78074AC9
:10475000DB0013445B68984700E000BF80BD00BFEA
:10476000A0110020880000202C000020380000202C
:1047700080B586B000AF0A233B6000237B60002336
:10478000BB600023FB6000233B6100237B613B4651
:104790000949184600F0E2FA6420FDF79EFC3B460A
:1047A0000549184600F0BAFA044B01221A7000BFFE
:1047B0001837BD4680BD00BF186100085C0F00209F
:1047C00080B586B000AF3B4600221A605A609A60FE
:1047D000DA601A615A613B460549184600F0BEFA94
:1047E000044B02221A7000BF1837BD4680BD00BFBF
:1047F0009C6200085C0F0020B0B58CB000AF07F1E0
:10480000180300221A605A609A60DA601A615A61CD
:10481000174B3C461D460FCD0FC495E8030084E8B6
:1048200003003B461349184600F098FA124B1B78D8
:10483000082B0DD107F118031049184600F06EFA45
:104840003B460C49184600F069FA0D4B04221A70D9
:10485000094B1B78012B07D13B460649184600F04F
:104860005DFA074B03221A7000BF3037BD46B0BD5A
:10487000C45E000880640008880000209C62000874
:104880005C0F0020B0B58CB000AF07F11803002218
:104890001A605A609A60DA601A615A61174B3C4696
:1048A0001D460FCD0FC495E8030084E803003B4686
:1048B0001349184600F052FA124B1B78082B0DD101
:1048C0003B460F49184600F029FA07F118030E4934
:1048D000184600F023FA0D4B06221A70094B1B787C
:1048E000032B07D13B460649184600F017FA074B41
:1048F00002221A7000BF3037BD46B0BDDC5E000832
:1049000080640008880000209C6200085C0F002082
:10491000B0B592B000AF434B07F130041D460FCD48
:104920000FC495E8030084E803003F4B07F1180427
:104930001D460FCD0FC495E8030084E8030007F17E
:1049400030033A49184600F009FA394B3C461D46F7
:104950000FCD0FC495E8030084E80300354B1B78A6
:10496000022B1DD0032B34D0012B00D04AE03B4654
:104970003149184600F0F2F94FF4FA70FDF7ADFB3B
:1049800007F118032D49184600F0E8F94FF47A7042
:10499000FDF7A3FB3B462849184600F0BFF931E07C
:1049A0003B462749184600F0D9F94FF4FA70FDF755
:1049B00094FB07F118032149184600F0CFF94FF492
:1049C0007A70FDF78AFB3B461D49184600F0A6F9B0
:1049D00018E03B461B49184600F0C0F94FF4FA7046
:1049E000FDF77BFB07F118031449184600F0B6F9F0
:1049F0004FF47A70FDF771FB3B461249184600F000
:104A00008DF900BF07F118030C49184600F086F92C
:104A100007F130030549184600F080F900BF483718
:104A2000BD46B0BDF45E00080C5F0008C864000815
:104A3000245F0008890000208C640008F4640008EA
:104A4000A0640008B464000880B500AFFFF760FF01
:104A5000024B05221A7000BF80BD00BF5C0F002012
:104A600080B500AF034B05221A700120FDF735FB1E
:104A700000BF80BD5C0F002080B500AFFFF748FF8E
:104A8000024B07221A7000BF80BD00BF5C0F0020E0
:104A900080B400AF00BFBD4680BC704780B500AF9A
:104AA000084A03210A2000F015F9074A03210A20C9
:104AB00000F010F9C820FDF710FB044B01221A701A
:104AC00000BF80BD3C5F00084C5F00085C0F002009
:104AD00080B500AF0A20FDF700FB074B1B78082BC1
:104AE00007D8054B1B78054ADB0013445B689847E1
:104AF00000E000BF80BD00BF5C0F00208C000020E4
:104B000080B584B000AF78600823FB6000222021CC
:104B10001D48FCF7B0F9002240211B48FCF7ABF917
:104B2000FB68013BFB600122FB6802FA03F31A46B3
:104B30007B681340002B05D0012210211248FCF79E
:104B40009AF904E0002210210F48FCF794F90120A3
:104B500000F0DAFE012208210B48FCF78CF9012055
:104B600000F0D2FE002208210748FCF784F9FB6818
:104B7000002BD5D1012240210348FCF77CF900BF6E
:104B80001037BD4680BD00BF0008014080B584B02D
:104B900000AF78600823FB60012220211D48FCF74C
:104BA0006AF9002240211B48FCF765F9FB68013BCC
:104BB000FB600122FB6802FA03F31A467B6813408C
:104BC000002B05D0012210211248FCF754F904E013
:104BD000002210210F48FCF74EF9012000F094FE4E
:104BE000012208210B48FCF746F9012000F08CFE59
:104BF000002208210748FCF73EF9FB68002BD5D1BD
:104C0000012240210348FCF736F900BF1037BD46AA
:104C100080BD00BF0008014080B500AF00228021A8
:104C20000F48FCF728F90A2000F06EFE01228021CF
:104C30000B48FCF720F92120FFF762FFB020FFF7B7
:104C40005FFF0420FFF75CFF1420FFF759FF2020CF
:104C5000FFF756FF0C20FFF753FF00BF80BD00BFDA
:104C60000008014080B483B000AF786039603B68D1
:104C7000052B01D905233B607B68542B01D95323B5
:104C80007B603B68542202FB03F27B681344034AB7
:104C9000136000BF0C37BD4680BC70475811002020
:104CA00080B582B000AF00237B6009E0084A7B68D2
:104CB00013441B781846FFF769FF7B6801337B605C
:104CC0007B68B3F5FC7FF1D300BF0837BD4680BDDC
:104CD000600F002080B584B000AFF860B9607A60E2
:104CE0000D4B1B684FF47A711846FDF773FC0346B1
:104CF000012B0DD1B968F868FFF7B4FF786800F0B0
:104D000089F8054B1868002300220021FDF768FB95
:104D100000BF1037BD4680BD6411002080B582B051
:104D200000AF786039600C4B1B6840F6B83118460C
:104D3000FDF750FC0346012B0AD13968786800F072
:104D4000EBF8054B1868002300220021FDF748FB13
:104D500000BF0837BD4680BD6411002080B582B019
:104D600000AF786039600C4B1B6840F6B8311846CC
:104D7000FDF730FC0346012B0AD13968786800F052
:104D800070F9054B1868002300220021FDF728FB6D
:104D900000BF0837BD4680BD6411002080B485B0D7
:104DA00000AF0346FB71184B1B68184A0021D15411
:104DB000154B1B680133144A13600023FB6016E097
:104DC000FB79A3F12002104B1968114813469B0090
:104DD0001344C218FB6813441A780C4B5A540A4BFC
:104DE0001B680133084A1360FB680133FB60FB68F2
:104DF000042BE5D9044B1B68044A0021D15400BFA1
:104E00001437BD4680BC704758110020600F002049
:104E10002865000880B582B000AF786006E07B6846
:104E20005A1C7A601B781846FFF7B8FF7B681B781E
:104E3000002BF4D100BF0837BD4680BD80B582B0DD
:104E400000AF00237B6007E00A4A7B68134400221E
:104E50001A707B6801337B607B68B3F5FC7FF3D30A
:104E6000FFF71EFF044B00221A6000BF0837BD4643
:104E700080BD00BF600F00205811002080B487B0B3
:104E800000AFF860B9607A60FB68532B01D95323F7
:104E9000FB60BB682F2B01D92F23BB60BB68DB08ED
:104EA000542202FB03F3FA6813447B617B68002BF6
:104EB00016D1184A7B6913441B785AB2BB6803F0B9
:104EC0000703012101FA03F35BB2DB435BB213403A
:104ED0005BB2D9B20F4A7B6913440A461A7013E0D9
:104EE0000C4A7B6913441B785AB2BB6803F0070372
:104EF000012101FA03F35BB213435BB2D9B2054A55
:104F00007B6913440A461A7000BF1C37BD4680BC3B
:104F1000704700BF600F002080B588B000AF786098
:104F200039607B681B68FB617B685B68BB61FB6900
:104F3000532B01D95323FB61BB692F2B01D92F239D
:104F4000BB613B681B787B613B685B783B617B683E
:104F50009B68002B0AD07B68DB68002B06D07B683F
:104F60009B687B617B68DB683B610DE07B681B694C
:104F7000002B09D07B685B69002B05D07B681B691F
:104F80007B617B685B693B613B681B781A467B6988
:104F9000934202D93B681B787B613B685B781A4679
:104FA0003B69934202D93B685B783B61FA697B6954
:104FB0001344542B03D9FB69C3F154037B61BA69D1
:104FC0003B691344302B03D9BB69C3F130033B6108
:104FD0007B681B69002B22D07B685B69002B1ED08D
:104FE0000023BB6016E00023FB600CE0FA69FB685D
:104FF000D018BA69BB68134400221946FFF73EFF78
:10500000FB680133FB60FA687B699A42EED3BB68A8
:105010000133BB60BA683B699A42E4D31DE00023C8
:10502000BB6016E00023FB600CE0FA69FB68D01857
:10503000BA69BB68134400221946FFF71FFFFB68DB
:105040000133FB60FA687B699A42EED3BB68013397
:10505000BB60BA683B699A42E4D300BF2037BD46C3
:1050600080BD90B58BB000AF786039607B681B68FD
:105070007B627B685B683B627B6A532B01D953235D
:105080007B623B6A2F2B01D92F233B623B681B7845
:10509000FB613B685B78BB617B689B68002B0AD037
:1050A0007B68DB68002B06D07B689B68FB617B68B4
:1050B000DB68BB610DE07B681B69002B09D07B6856
:1050C0005B69002B05D07B681B69FB617B685B69B2
:1050D000BB613B681B781A46FB69934202D93B6867
:1050E0001B78FB613B685B781A46BB69934202D927
:1050F0003B685B78BB617A6AFB691344542B03D924
:105100007B6AC3F15403FB613A6ABB691344302BD9
:1051100003D93B6AC3F13003BB617B681B69002B79
:1051200047D07B685B69002B43D03B681B781A46ED
:10513000FB69D31AFB603B685B781A46BB69D31ADC
:10514000BB6000233B612FE000237B6125E07A6A8E
:105150007B69D0183A6A3B69D4187A69FB681A44AB
:105160003969BB680B44DB083968097801FB03F334
:1051700013443A6813449B7819463A69BB68134450
:1051800003F00703012202FA03F30B401A462146FB
:10519000FFF774FE7B6901337B617A69FB699A4290
:1051A000D5D33B6901333B613A69BB699A42CBD3A2
:1051B0002FE000233B6128E000237B611EE07A6A38
:1051C0007B69D0183A6A3B69D1183B69DB083A68B9
:1051D000127802FB03F27B6913443A6813449B780C
:1051E0001C463B6903F00703012202FA03F3234044
:1051F0001A46FFF743FE7B6901337B617A69FB69DD
:105200009A42DCD33B6901333B613A69BB699A42FC
:10521000D2D300BF2C37BD4690BD000080B500AF93
:105220000A4A00210020FFF755FD094B00221A70A1
:10523000084B1B78042B03D0064B1B78062B02D19E
:10524000034B01221A7000BF80BD00BF585F0008E9
:105250005C1100205C0F002080B500AF0A4A0021DD
:105260000020FFF737FD094B01221A70084B1B780D
:10527000052B03D0064B1B78072B02D1034B0222D0
:105280001A7000BF80BD00BF685F00085C1100207D
:105290005C0F002080B500AF154A00210020FFF709
:1052A00019FD144B02221A70134B1B78022B03D0EA
:1052B000114B1B78032B03D10E4B00221A7016E002
:1052C0000E4B1B78032B03D10A4B06221A700EE0FB
:1052D0000A4B1B78012B03D1064B04221A7006E0FF
:1052E000064B1B78082B02D1024B08221A7080BD96
:1052F000785F00085C1100205C0F0020880000200F
:1053000080B500AF154A00210020FFF7E3FC144BE5
:1053100003221A70134B1B78022B03D0114B1B78FE
:10532000032B03D10E4B00221A7016E00E4B1B7894
:10533000032B03D10A4B06221A700EE00A4B1B788E
:10534000012B03D1064B04221A7006E0064B1B7892
:10535000042B02D1024B02221A7080BD885F000824
:105360005C1100205C0F00208800002080B500AF99
:10537000164A00210020FFF7ADFC154B04221A70DD
:105380000120FEF7F7FF0346522B09D10320FEF759
:10539000F1FF0346522B03D10D4B05221A7014E086
:1053A0000C4B1B78032B02D1094B06221A70094BB8
:1053B0001B78042B02D1064B02221A70054B1B7876
:1053C000082B02D1024B08221A7080BD985F00089A
:1053D0005C1100208800002080B500AF0F4A00213A
:1053E0000020FFF777FC2820FCF777FE0C4B1B789A
:1053F000032B02D10B4B06221A70094B1B78042B8E
:1054000002D1084B02221A70054B1B78082B02D1DF
:10541000044B08221A7000BF80BD00BFA85F0008BF
:10542000880000205C11002080B500AF124A0021E6
:105430000020FFF74FFC2820FCF74FFE0F4B1B7896
:10544000012B02D10E4B04221A700C4B1B78032B3C
:1054500002D10B4B06221A70084B1B78042B02D189
:10546000074B02221A70054B1B78082B02D1044B04
:1054700008221A7000BF80BDB85F000888000020B5
:105480005C11002080B500AF164A00210020FFF714
:1054900021FC154B06221A700120FEF76BFF034614
:1054A0004C2B09D10320FEF765FF03464C2B03D19B
:1054B0000D4B07221A7014E00C4B1B78012B02D104
:1054C000094B04221A70094B1B78042B02D1064B9E
:1054D00002221A70054B1B78082B02D1024B0822BE
:1054E0001A7080BDC85F00085C1100208800002091
:1054F00080B500AF084A00210020FFF7EBFB074B07
:1055000008221A704FF4C870FCF7E7FD034B09221C
:105510001A7000BF80BD00BFD85F00085C1100207A
:1055200080B500AF084A00210020FFF7D3FB074BEE
:105530000A221A704FF41670FCF7CFFD034B0B22B2
:105540001A7000BF80BD00BFE85F00085C1100203A
:1055500080B500AF0E4A00210020FFF7BBFB4FF4DF
:105560007A70FCF7BAFD0B4B1B78032B03D10A4B67
:1055700006221A700AE0074B1B78012B03D1064B59
:1055800004221A7002E0044B03221A7000BF80BD8F
:10559000F85F0008880000205C11002080B500AF93
:1055A000164A00210020FFF795FBC820FCF795FD67
:1055B0000120FEF7DFFE0346412B09D10320FEF751
:1055C000D9FE0346412B03D10D4B0A221A7012E07B
:1055D0000C4B1B78032B03D1094B06221A700AE0EF
:1055E000084B1B78012B03D1054B04221A7002E0F3
:1055F000034B03221A7000BF80BD00BF0860000883
:105600005C1100208800002080B500AF044A002112
:105610000020FFF75FFB034B0D221A7000BF80BD17
:10562000186000085C11002080B500AF044A00211A
:105630000020FFF74FFB034B0C221A7000BF80BD08
:10564000286000085C11002080B500AF044A0021EA
:105650000020FFF73FFB034B0C221A7000BF80BDF8
:10566000386000085C11002080B500AF044A0021BA
:105670000020FFF72FFB034B0F221A7000BF80BDE5
:10568000486000085C11002080B500AF064B1B7815
:105690000F2B07D8044B1B78044ADB0013445B68CC
:1056A000984700E000BF80BD5C110020D4000020BE
:1056B00080B500AF0120FCF710FD00BF80BD0000E9
:1056C00080B500AF02490348FFF748FB00BF80BD2B
:1056D00008670008D401002080B500AF02490348E4
:1056E000FFF73CFB00BF80BD08670008D401002025
:1056F00080B500AF02490348FFF730FB00BF80BD13
:1057000008670008D401002080B500AF0A490B48A3
:10571000FFF704FB094B1B68452B04D8074B1B689C
:105720000133064A136004490448FFF717FB782049
:10573000FCF7D3FC00BF80BD08670008D40100203F
:1057400080B500AF0C490D48FFF7E8FA0B4B1B681A
:105750003B2B05D8094B1B680A33084A136002E04B
:10576000064B4B221A6006490448FFF7F7FA7820E7
:10577000FCF7B3FC00BF80BD08670008D40100201F
:105780009867000880B500AF0A490B48FFF7C6FAD2
:10579000094B1B680F2B04D9074B1B680A3B064AB1
:1057A000136006490448FFF7D9FA7820FCF795FC06
:1057B00000BF80BD08670008D4010020746700089E
:1057C00080B500AF0A490B48FFF7A8FA094B1B68E0
:1057D000002B04D0074B1B68013B064A13600449A9
:1057E0000448FFF7BBFA7820FCF777FC00BF80BDC8
:1057F00008670008D401002080B500AF06490748BB
:10580000FFF78CFA06490548FFF7A8FA7820FCF75D
:1058100064FC00BF80BD00BF08670008D401002001
:105820002C67000880B500AF06490748FFF776FAF5
:1058300006490548FFF792FA7820FCF74EFC00BFB6
:1058400080BD00BF2C670008D4010020506700080D
:1058500080B500AF06490748FFF760FA06490548DA
:10586000FFF77CFA7820FCF738FC00BF80BD00BF52
:1058700050670008D4010020BC67000880B500AF65
:1058800006490748FFF74AFA06490548FFF766FA4E
:105890007820FCF722FC00BF80BD00BF2C67000809
:1058A000D4010020BC67000880B500AF0120FCF7E0
:1058B00014FC00BF80BD80B500AF0120FCF70DFCDB
:1058C00000BF80BD80B500AF0120FCF706FC00BF23
:1058D00080BD80B500AF0120FCF7FFFB00BF80BD9D
:1058E00080B500AF064B1B780F2B07D8044B1B78F5
:1058F000044ADB0013445B68984700E000BF80BDAA
:105900005C1100205401002080B483B000AF7860A7
:105910007B684FF0060101FB03F10139FDD100BFA7
:105920000C37BD4680BC7047B0B59EB000AFFAF7EB
:105930000FFCFEF7EBFBFEF791FBFEF733FBFEF7E8
:1059400071FB334B07F164041D460FCD0FC42B6868
:105950002360304B07F150041D460FCD0FC42B6858
:1059600023602D4B07F13C041D460FCD0FC42B685F
:1059700023602A4B07F128041D460FCD0FC42B6866
:105980002360274B07F114041D460FCD0FC42B686D
:105990002360244B3C461D460FCD0FC42B6823606B
:1059A00007F1500300211846FCF770FB02461E4B1E
:1059B0001A6007F1640300211846FCF767FB0246F2
:1059C0001A4B1A6007F13C0300211846FCF75EFBF6
:1059D0000246174B1A6007F1280300211846FCF70E
:1059E00055FB0246134B1A6007F1140300211846B9
:1059F000FCF74CFB0246104B1A603B460021184650
:105A0000FCF744FB02460D4B1A60FCF738FBFEE73F
:105A10006860000888600008A8600008C860000886
:105A2000E460000804610008E4110020E81100208F
:105A3000F0110020F8110020F4110020EC110020DA
:105A400080B582B000AF78600120FCF746FBFFF71D
:105A50001BFEF9E780B582B000AF7860FFF738F839
:105A6000FCE7000080B582B000AF78600A48FAF722
:105A700079FC032200210120FCF75AFC0246074B67
:105A80001A60064B1868002300220021FCF7A8FCCE
:105A9000FEF748FEFCE700BFA01100206C110020BB
:105AA00080B582B000AF7860032200210120FCF7AE
:105AB0003FFC0246094B1A60FFF7AEF8FFF7BEF94C
:105AC000064B1868002300220021FCF789FC2920DE
:105AD000FCF703FBFFF7E4F8F9E700BF64110020CF
