:020000040800F2
:1000000000500020DD5A0008695A00086D5A0008A7
:10001000715A0008755A0008795A0008000000005B
:10002000000000000000000000000000512A00084D
:100030007D5A000800000000E12A0008252B000876
:10004000255B0008255B0008255B0008255B000890
:10005000255B0008255B0008255B0008255B000880
:10006000255B0008255B0008255B0008255B000870
:10007000255B0008255B0008255B0008255B000860
:10008000255B0008255B0008255B0008255B000850
:10009000255B0008255B0008255B0008255B000840
:1000A000255B0008255B0008255B0008255B000830
:1000B000255B0008255B0008815A0008255B0008C5
:1000C000255B0008255B0008255B0008255B000810
:1000D000255B0008255B0008255B0008255B000800
:1000E000255B0008255B0008255B00080000000078
:1000F0000000000000000000000000000000000000
:0C01000000000000000000005FF808F1A3
:1001100010B5054C237833B9044B13B10448AFF341
:1001200000800123237010BDB003002000000000F8
:10013000985B000808B5034B1BB103490348AFF3B4
:10014000008008BD00000000B4030020985B000898
:10015000074A08B51368032043F01003136000F04A
:10016000C5FA002005F042FC05F0A2FB002008BD06
:1001700000200240034A044B11681B780B441360B3
:10018000704700BF241F002000000020014B1868AA
:10019000704700BF241F0020002871D0836A70B50B
:1001A0000446002B62D023689A68D00749D4A26A1B
:1001B000D20640D4A26A616822F48852E669A06837
:1001C00022F00202257B42F002023143B0F5807F2B
:1001D000A26241EA4502217D5DD0012800F08780BE
:1001E000012900F093805868494920F4694058601B
:1001F00000209D68294011439960D96A454D21F43A
:1002000070010143D9629B681D40AA423AD0012087
:10021000A36A23F0120343F01003A362E36A0343CB
:10022000E36270BDA36A43F01003A362E36A43F084
:100230000103E362A36AA36A012043F01003A362EF
:1002400070BD9A6822F001029A60FFF79FFF054691
:1002500004E0FFF79BFF401B0228E3D823689A685D
:10026000D107F6D4A26AD206E5D4A3E7C36280F828
:10027000243005F045FB23689A68D007E1D496E75F
:10028000012070470020E062A36A23F0030343F0DB
:100290000103A36270BD01290ED058681C4920F4E7
:1002A000694040F48070586098680140114399603B
:1002B000216901390805A0E70646F5B9A1694D1E77
:1002C00046EA453545F400665D68114925F46945FF
:1002D00035435D609D68B0F5807F01EA050141EA24
:1002E00002019960E4D00128E2D0002085E70129CD
:1002F00008BF4FF48076E0D0CFE7A16A41F020013B
:10030000A162E16A41F00101E162DDE70026D4E784
:10031000FDF7E1FFFE0E1FFF90F82430012B66D0A1
:100320000023012170B5026882B0019393680446EE
:1003300080F82410D80720D4404B41481B689168AE
:10034000A0FB030341F001019B0C91600193019B11
:100350002BB1019B013B0193019B002BF9D1FFF7CE
:1003600015FF064604E0FFF711FF801B022832D874
:100370002268956815F00105F5D0A36A314923F488
:10038000407323F0010343F480738A42A36230D0A8
:10039000A36A23F48013A3625368590535D4A36A72
:1003A000002113F4805318BFE36A84F8241018BFA7
:1003B00023F00603E3626FF002031360936803F413
:1003C0006023B3F5602F27D00020936843F4801397
:1003D000936002B070BD0120A36A84F8245043F0FA
:1003E0001003A362E36A0343E36202B070BD02201C
:1003F0007047154B596811F4702FC9D0A16A41F4A8
:100400008011A1625B685B05C9D5A36A23F44053E0
:1004100043F48053A362C2E70A4B9A4206D00020FD
:10042000936843F4A003936002B070BDA3F58063AA
:100430005B6813F4702FC7D1F1E700BFAC03002055
:1004400083DE1B4300280140002401402DE9F041D8
:100450000446002582B00E460195FFF797FE2368FB
:100460009A68D7056FD45A680746D50519D4DA6A51
:1004700012F4700F15D1701C79D11A689107FCD550
:100480006FF012021A60A26A42F40072A2629B68C4
:1004900003F46023B3F5602F75D0002002B0BDE8EF
:1004A000F081444B0220D3F8008000F005FE226862
:1004B00041491569B8FBF0F00D42134610D1D568DB
:1004C00001F15C410D420BD115693C490D426ED1E1
:1004D000D56801F16E410D4214BF2925142509E0AC
:1004E000156936490D4224D1D56801F16E410D429E
:1004F0001FD1542505FB00F501998D42C0D9731C0D
:100500002BD036B90AE0019B01330193019B9D4238
:100510004AD9FFF73BFEC01B8642F4D200220320DB
:10052000A36A84F8242043F00403A36202B0BDE868
:10053000F081156922490D4217D1D5680D4214BFCB
:10054000FC255425D6E70120A36A84F8245043F003
:100550002003A36202B0BDE8F081019B0133019347
:10056000019B9D42F9D813468AE7FC25C2E71A6829
:10057000920785D4002ED1D0FFF708FEC01BB042F1
:10058000CCD8236877E7237B002B86D1A36A23F49A
:100590008073A362A06A10F480507FF47EAFA36AD8
:1005A00043F00103A36279E72268134668E729252F
:1005B000A0E700BFAC0300202449922492244912F2
:1005C000499224000368D86C704700BF002270B4C1
:1005D00090F8243083B0012B01925FD001234D6845
:1005E0000468062D80F824300A6805EB85034FF077
:1005F0001F0625D90C2D47D8233B256B9E4025EAA5
:10060000060502FA03F32B432363092A8B684FF094
:10061000070602EB420123D91E39E5688E408B4064
:1006200025EA06010B43E360A2F11003012B22D956
:100630000023002280F82420184603B070BC7047C5
:10064000053B656B9E4025EA060502FA03F32B4342
:10065000092A63634FF007068B6802EB4201DBD87F
:1006600025698E408B4025EA06010B432361A2F1E8
:100670001003012BDCD81A4B9C4214D0826A012350
:1006800042F020028262D4E7413BE56A9E4025EABF
:10069000060502FA03F32B43E362B6E7022318468A
:1006A00003B070BC7047A3681B02C1D4A368102AB2
:1006B00043F40003A360BBD10A4B0B4A1B68A2FBA7
:1006C00003239B0C03EB83035B000193019B002B33
:1006D000AED0019B013B0193019B002BF9D1A7E711
:1006E00000240140AC03002083DE1B434FF6FF01D2
:1006F000064A0002D36800F4E0600B4043F0BF6399
:1007000043F400330343D360704700BF00ED00E0C3
:10071000184B30B4DB68C3F30223C3F10705042D83
:1007200003F1040428BF0425062C19D94FF0FF3427
:10073000033B9C4022EA04044FF0FF32AA4021EA26
:10074000020101FA03F2224312010028D2B20ADBAD
:1007500000F1604000F5614080F8002330BC704734
:1007600000242346E8E7044B00F00F0003441A7608
:1007700030BC704700ED00E0FCEC00E0002807DB37
:10078000012300F01F01034A8B40400942F820304A
:10079000704700BF00E100E00A68002A00F0DB803B
:1007A0002DE9F04F4FF0000A85B05546DFF8D0C173
:1007B000DFF8D0E16D4FDFF8D08103E0013532FA88
:1007C00005F378D00123AB4002EA0304A342F5D13C
:1007D0004A68122A00F09E8000F28780022A00F008
:1007E0009D807CD9032A69D0112A02D1CB6803F1FC
:1007F000040AFF2C66D881460368AA000F2606FA71
:1008000002FB23EA0B030AFA02F21343C9F8003091
:100810004A68D30061D5DCF8189025F0030349F04D
:100820000109CCF81890DCF8189003F1804309F026
:100830000109CDF80C9003F5803305F00309DDF8CC
:100840000CB04FEA8909D3F808B006FA09F62BEA8A
:1008500006067045019611D0404563D0444EB04223
:100860007AD0444EB0420CBF4FF0030B4FF0040B54
:10087000019E0BFA09F946EA090601969E603B685B
:10088000D6034CBF2343A3433B607B6896034CBF16
:100890002343A3437B60BB68D6024CBF2343A343DF
:1008A000BB609202FB6815D51C43FC600A680135E9
:1008B00032FA05F386D105B0BDE8F08FFF2C4FF07A
:1008C000000A98D905F18042083A4368920000F185
:1008D000040993E723EA0404FC600A686EE7A2B106
:1008E000012A86D1D1F80CA083E7234EB2420CD066
:1008F00020D9224EB24208D006F58036B24204D04A
:10090000A6F58016B2427FF474AF8A68E2B94FF060
:10091000040A6EE7CB6803F10C0A6AE7CB6803F1BF
:10092000080A66E74FF0010B0BFA09F946EA0906D7
:100930000196A3E7A6F58016B242E6D006F580360A
:10094000B2427FF456AFE0E7012A0CBF0361436176
:100950004FF0080A4DE770474FF0020B019E0BFA6B
:1009600009F946EA0906019688E700BF000401403C
:10097000001001400014014000002110000031105F
:100980000010024000080140000C01408368194239
:1009900014BF01200020704702B9090401617047AB
:1009A0000122014B1A60704720000E42002800F01F
:1009B00055812DE9F041036882B0DD07044635D545
:1009C000A8494A6802F00C02042A00F005814A682E
:1009D00002F00C02082A00F0FB806368B3F5803F48
:1009E00010D0002B00F02081B3F5A02F00F078810B
:1009F0009C4B1A6822F480321A601A6822F4802212
:100A00001A6004E0974A136843F480331360FFF7D9
:100A1000BDFB944D064605E0FFF7B8FB801B64283C
:100A200000F2F5802B689A03F6D523689F074DD412
:100A30001A0722D5A369002B00F0BA8001228A4B45
:100A4000884D1A60FFF7A2FB064605E0FFF79EFB04
:100A5000801B022800F2DB806B6A9B07F6D5834B74
:100A6000834A1B68A2FB03235B0A019300BF019B1F
:100A70005A1E0192002BF9D123685D0769D5794B85
:100A8000DA69D00000F1EC800125DA6942F0805289
:100A9000DA61DB6903F080530093009B754B1A68A1
:100AA000D10540F1A380E368012B37D0002B00F083
:100AB000E780052B6B4B1A6A00F01F8122F00102C0
:100AC0001A621A6A22F004021A622CE0654A51681E
:100AD00011F00C0F61D0516801F00C01082959D0B8
:100AE0002369002B00F0EB800122634B5D4D1A60FF
:100AF000FFF74CFB064605E0FFF748FB801B02288A
:100B000000F285802B689807F6D52B68626923F080
:100B1000F80343EAC2032B60236889E7514A136A4A
:100B200043F001031362FFF731FB4E4E804641F262
:100B3000883705E0FFF72AFBA0EB0800B84266D82B
:100B4000336A9B07F6D525B1464AD36923F0805313
:100B5000D361E069D0B1434D6A6802F00C02082A03
:100B600000F0D38002284FF00001444A00F0DE80FC
:100B70001160FFF70BFB2C46054604E0FFF706FB70
:100B8000401B022843D823689B01F7D4002002B001
:100B9000BDE8F0815268D603A2D4324A12689507A4
:100BA00039D52269012A36D0012002B0BDE8F08192
:100BB0002D4A2C4D1360FFF7E9FA064604E0FFF7D3
:100BC000E5FA801B022822D86B6A9F07F7D453E707
:100BD0004A68D0037FF501AF224A126891037FF57E
:100BE00025AF6268002A7FF421AFDDE71A681E4650
:100BF00042F480721A60FFF7C9FA07463368DA05D3
:100C00003FF551AFFFF7C2FAC01B6428F6D90320A5
:100C100002B0BDE8F081134960690A6822F0F80269
:100C200042EAC0020A6003E703F1804303F504339C
:100C30001A681D4622F480321A601A6822F4802253
:100C40001A60FFF7A3FA064604E0FFF79FFA801B3D
:100C50006428DCD82B689B03F7D4E6E601207047B4
:100C600000251BE70010024080044242AC03002034
:100C7000D34D6210007000400000424260004242CA
:100C800003F1804303F504331A6A1E4622F0010281
:100C90001A621A6A41F2883822F004021A62FFF7D7
:100CA00075FA074604E0FFF771FAC01B4045AED85D
:100CB000336A9807F7D4002D3FF44BAF44E7344A2A
:100CC000344D1360FFF762FA064604E0FFF75EFA60
:100CD000801B02289BD82B689907F7D42368A7E6C6
:100CE00003F18043A3F53C331A6842F480221A6072
:100CF0001A6842F480321A6089E642F004021A62ED
:100D00001A6A42F001021A620DE701283FF44DAF62
:100D10006B68226A03F4803191427FF445AF606AC8
:100D200003F47013181A18BF01203EE71160FFF793
:100D30002DFA064605E0FFF729FA801B02283FF648
:100D400066AF2B689901F6D4226AB2F5803F05D1CF
:100D50006B68A16823F400330B436B6001250D4BD6
:100D6000606A5968024321F474110B480A435A60BF
:100D700005601C46FFF70AFA054605E0FFF706FA8C
:100D8000401B02283FF643AF23689A01F6D5FDE6E3
:100D900000004242001002406000424278B15D4AC9
:100DA000136803F007038B420BD2136823F0070389
:100DB0000B431360136803F007038B4201D001203B
:100DC00070472DE9F041036886B09D0714D55C0794
:100DD00004D5514C626842F4E06262601A0704D59F
:100DE0004D4C626842F4605262604B4C85686268A8
:100DF00022F0F0022A436260DB0704460D4620D54C
:100E00004268454B012A1B686FD0022A7ED09807A2
:100E100027D5414E41F28838736823F0030313430A
:100E20007360FFF7B3F9074604E0FFF7AFF9C01BA3
:100E3000404569D87368626803F00C03B3EB820F16
:100E4000F3D1344A136803F00703AB420DD913689A
:100E500023F007032B431360136803F00703AB422F
:100E600003D0012006B0BDE8F0812368590706D5FC
:100E70002949E0684A6822F4E06202434A601A079E
:100E800007D5254A2169536823F4605343EAC10317
:100E9000536040F20122214B06ACADF804200FCB89
:100EA00004E90F001C494A6802F00C03082B1AD110
:100EB000C2F38343234413F8100CD30318D4184B04
:100EC00003FB00F3144A174852681749C2F3031290
:100ED000805C164AC3400868136004F087FD002058
:100EE00006B0BDE8F081124BECE79F0391D4B8E760
:100EF0004A680F4BC2F3404203FB00F3224412F84E
:100F0000142CB3FBF2F3DDE70320ABE79E0180D4A2
:100F1000A7E700BF0020024000100240B05B0008BD
:100F200000093D001865000804000020AC03002003
:100F300000127A00044B05495B68054AC3F302239B
:100F4000CB5C1068D840704700100240286500084C
:100F5000AC030020044B05495B68054AC3F3C22378
:100F6000CB5C1068D840704700100240286500082C
:100F7000AC0300200F220D4B02605A6810B402F03F
:100F8000030242605A680A4C02F0F00282605A681A
:100F900002F4E062C2605B68DB0803F4E0630361B3
:100FA000236810BC03F007030B6070470010024079
:100FB000002002402DE9F0410446006882B0C507D8
:100FC0002AD53A4BDA69D1003DD5394B00251A684C
:100FD000D20546D5354960680A6A12F440720FD0CE
:100FE00000F4407393420BD0012700260B6A314A6C
:100FF00023F44070176016600862D80745D4606813
:101000002A4A136A23F44073034313621DB1D36960
:1010100023F08053D3612068830706D5234AA16853
:10102000536823F440430B43536010F0100007D083
:1010300000201E4AE168536823F480030B43536089
:1010400002B0BDE8F081DA69012542F08052DA6130
:10105000DB6903F080530193019B154B1A68D2059D
:10106000B8D41A681E4642F480721A60FFF78EF8F0
:1010700007463368DB05ADD4FFF788F8C01B64284A
:10108000F7D9032002B0BDE8F0810E46FFF77EF8E5
:1010900041F288378046336A9A07B0D4FFF776F872
:1010A000A0EB0800B842F6D9EBE700BF0010024001
:1010B000007000404004424210B5044640F2012254
:1010C00086B0344B0DF1180C022CADF804200FCB78
:1010D0000CE90F0042D0102C1CD0012C02D00020B3
:1010E00006B010BD40F202322B490B6A1A40B2F52D
:1010F000817F4BD003F44073B3F5007F3AD0B3F552
:10110000407FECD10B684FF2244013F4003F08BF3E
:101110000020E5E7204B5968186810F08070DFD098
:1011200006A8C1F38342024412F8100CCA0329D561
:101130005B6806A9C3F340430B44184A13F8143CF8
:10114000B2FBF3F300FB03F0134B5B685B02C7D405
:10115000134B4000A3FB00304008C1E7FFF7FAFE45
:101160000D4B5B68C3F3813301335B00B0FBF3F0DD
:1011700006B010BD4B6A49F6404013F0020F08BF9D
:101180000020ADE7074B03FB00F0DDE74FF4004024
:10119000A6E700BFC05B00080010024000127A0002
:1011A000ABAAAAAA00093D0000286ED038B5437C3E
:1011B000044603F0FF02002B63D00223226863740D
:1011C000536823F008035360FEF7E0FF054605E08F
:1011D000FEF7DCFF401BB0F57A7F4ED823685B68D2
:1011E0001807F5D5FEF7D2FF054605E0FEF7CEFF5E
:1011F000401BB0F57A7F40D823685A689106F5D530
:101200005968A06841F010015960596821F0070140
:10121000596020B122490A6B22F001020A63204979
:10122000CA6A22F460720243CA626068421C2ED00D
:10123000996885B221F00F0141EA10419960DA689E
:10124000120C12042A43DA605A6822F010025A6023
:10125000FEF79CFF054605E0FEF798FF401BB0F542
:101260007A7F0AD823685B689B06F5D501230020A6
:101270006373E073A373637438BD04230120637444
:1012800038BD027404F092FB97E7012070470120FB
:10129000FFF712FF0028F0D023680138C8E700BF2D
:1012A000006C0040704700BF002836D090F83D30F9
:1012B00070B503F0FF0204460BB302232268204EF0
:1012C00084F83D30B2421368A569E068616826D0B1
:1012D000B2F1804F18D0A6F59436B24214D006F57C
:1012E0008066B24210D023F080032B431360D0629B
:1012F000916201230020536184F83D3070BD80F875
:101300003C20FFF7CFFFD8E7A66823F070033343F4
:10131000266923F440733343E5E701207047A6684C
:1013200023F070033343266923F44073334323F0DF
:1013300080032B431360D062916263691363D8E723
:10134000002C01400368DA6842F00102DA609A6812
:1013500002F00702062A03D01A6842F001021A605E
:1013600000207047704700BF704700BF704700BF44
:10137000704700BF036810B51A690446910702D58B
:10138000DA6892075FD41A69500702D5DA68510704
:1013900046D41A69120702D5DA6810072ED41A69E2
:1013A000D20602D5DA68D00618D41A69D10702D558
:1013B000DA68D2075DD41A69100602D5DA68110618
:1013C0005FD41A69520602D5DA68500661D41A69E8
:1013D000910602D5DA68920643D410BD6FF0100171
:1013E00008221961DB69204613F4407F227764D01C
:1013F000FFF7BAFF002223682277D6E76FF00801D3
:1014000004221961DB6920469907227752D1FFF740
:10141000A9FF2046FFF7AAFF002223682277BEE734
:101420006FF00401022219619B69204613F4407F8A
:1014300022773CD1FFF796FF2046FFF797FF002267
:1014400023682277A5E76FF00201012219619B69E9
:1014500002779B0725D0FFF787FF002223682277BA
:1014600091E76FF020022046BDE810401A6100F0BD
:101470002BB86FF0010220461A6101F0ADFD236820
:1014800099E76FF0800220461A6100F01FF8236888
:1014900097E76FF0400220461A61FFF769FF236863
:1014A00095E7FFF75FFF2046FFF760FFD5E7FFF7FF
:1014B0005BFFC4E7FFF758FFAEE7FFF753FF204697
:1014C000FFF754FF96E700BF704700BF704700BFAB
:1014D00008B500F0CFFD002008BD00BF30B5B0F961
:1014E00008400246842C08BF002485B018BF03348E
:1014F00003AD0B4640681168128ACDE9004500F043
:1015000083FC012814BF0020039805B030BD00BF44
:1015100008B5002808BF012000F0DAFF002008BD50
:101520004FF0FF31002200F1080381600260436048
:10153000C0E90333704700BF00230361704700BF59
:10154000436810B49C6802688C609C6801324B60F0
:101550006160996010BC08610260704730B40D682A
:101560006B1C11D000F1080200E01A4653681C6899
:10157000AC42FAD904684B60013499608A605160CA
:101580000861046030BC704702695368F2E700BF2D
:10159000036910B4D0E901215C68916081688442DC
:1015A0004A6008BF596000211A680161013A1A6057
:1015B000186810BC704700BF70B5054601F05AFAB4
:1015C00095F8454064B2002C16DD6B6AA3B105F1B5
:1015D000240605E0013CE3B25CB26BB16B6A5BB11F
:1015E000304601F027F80028F4D0013C01F0BAF8A9
:1015F000E3B25CB2002BF1D1FF2385F8453001F056
:101600005BFA01F037FA95F8444064B2002C16DD1D
:101610002B69A3B105F1100605E0013CE3B25CB211
:101620006BB12B695BB1304601F004F80028F4D0AF
:10163000013C01F097F8E3B25CB2002BF1D1FF233B
:1016400085F84430BDE8704001F036BA40B94FF03B
:10165000500383F31188BFF36F8FBFF34F8FFEE703
:1016600070B506460D4651B101FB00F0483001F05F
:1016700011FB044658B300F14803036005E048201D
:1016800001F008FB044610B32460C4E90F6501F0C3
:10169000F1F9D4E90F32FF25002003FB02F32168A2
:1016A0009A1A0A440B44A063E260C4E9013104F1D0
:1016B000100084F8445084F84550FFF731FF04F1DE
:1016C0002400FFF72DFF01F0F7F9204670BD00243C
:1016D000204670BD2DE9F04F85B00192002800F042
:1016E0002581002900F01581022B0BD1C26B012A44
:1016F00008D04FF0500383F31188BFF36F8FBFF30F
:101700004F8FFEE704461F460E4601F031F80028D1
:1017100040F0FC80019B43B14FF0500383F31188EC
:10172000BFF36F8FBFF34F8FFEE79A4601F0A2F928
:10173000A26BE36B4FF000089A42DFF8B89275D3C2
:10174000022F00F0FC80019D002D00F04E81BAF1C7
:10175000000F02D102A800F0B3FF01F0ADF900F0D4
:1017600079FD01F087F994F84430FF2B08BF84F825
:10177000448094F84530FF2B08BF84F8458001F081
:101780009BF901A902A800F0A7FF002840F02681DC
:1017900001F070F9A26BE36B9A426AD001F08CF908
:1017A00001F068F994F845506DB2002D11DD636ABF
:1017B0007BB104F1240A01E0636A53B1504600F0A2
:1017C00039FF08B100F0CEFF013DEBB25DB2002B56
:1017D000F2D1FF2384F8453001F06EF901F04AF9A7
:1017E00094F844506DB2002D11DD23697BB104F1F2
:1017F000100A01E0236953B1504600F01BFF08B105
:1018000000F0B0FF013DEBB25DB2002BF2D1FF233F
:1018100084F8443001F050F900F0D0FD01F02AF9CD
:10182000A26BE36B4FF0010A9A4289D2226CA56B3E
:10183000002A00F087803146002F40F0BB80A0686E
:1018400004F096F9A368216C62680B44934205F199
:101850000105A36079D3A5632268636AA260002BA7
:1018600077D004F1240000F0E5FE002840F08280EB
:101870006FE004F1100A01F01FF95046019900F0E1
:1018800089FE01F0F7F894F845506DB2002D11DD96
:10189000636A7BB104F1240B01E0636A53B15846DB
:1018A00000F0C8FE08B100F05DFF013DEBB25DB293
:1018B000002BF2D1FF2384F8453001F0FDF801F050
:1018C000D9F894F844506DB2002D0ADC0CE0504673
:1018D00000F0B0FE08B100F045FF013DEBB25DB293
:1018E00013B12369002BF2D1FF2384F8443001F0B7
:1018F000E3F800F063FD002890D14FF08053C9F861
:101900000030BFF34F8FBFF36F8F87E74FF0000AB0
:101910000CE7026C002A3FF4E7AE4FF0500383F36C
:101920001188BFF36F8FBFF34F8FFEE74FF0500367
:1019300083F31188BFF36F8FBFF34F8FFEE7226CE5
:10194000A56B02BB266801354EB1A563636A002B07
:1019500087D101F0B1F8012005B0BDE8F08F6068D3
:1019600000F06CFFA563636A6660002B7FF479AFBB
:101970000028EED04FF080521E4B1A60BFF34F8FFD
:10198000BFF36F8FE5E73146E06804F0F1F8236CB0
:10199000E2685B4221681A449142E26016D96268AB
:1019A0001344E360022F11D00135A563636A002B55
:1019B000CFD056E7E06804F0DBF8236CE2685B42C6
:1019C00021681A448A42E260ECD2E8E7002DBCD1DB
:1019D0000123A363636A002BBBD042E72046FFF7D5
:1019E000EBFD00F0EBFC0020B6E701F065F82846BF
:1019F000B2E700BF04ED00E02DE9F04385B00191AE
:101A000050B1056C8DB14FF0500383F31188BFF3D3
:101A10006F8FBFF34F8FFEE74FF0500383F31188B2
:101A2000BFF36F8FBFF34F8FFEE7044600F0A0FEB9
:101A300050B9019D45B14FF0500383F31188BFF3B6
:101A40006F8FBFF34F8FFEE701F014F8A36B2E46A4
:101A50000027DFF8B482002B40F0B380019B002BFD
:101A600000F0298116B902A800F02AFE01F024F83E
:101A700000F0F0FB00F0FEFF94F84430FF2B08BFAD
:101A800084F8447094F84530FF2B08BF84F8457003
:101A900001F012F801A902A800F01EFE002844D1AE
:101AA00000F0E8FFA36B002B00F09D8001F004F82C
:101AB00000F0E0FF94F8456076B2002E10DD636A16
:101AC00073B104F12409484600F0B4FD002840F049
:101AD0008780013EF3B25EB213B1636A002BF2D18C
:101AE000FF2384F8453000F0E7FF00F0C3FF94F8CF
:101AF000446076B2002E10DD236973B104F1100941
:101B0000484600F097FD002840F0BF80013EF3B248
:101B10005EB213B12369002BF2D1FF2384F8443065
:101B200000F0CAFF00F04AFC44E000F0A3FF94F884
:101B3000456076B2002E11DD636A7BB104F12409A1
:101B400001E0636A53B1484600F074FD08B100F04B
:101B500009FE013EF3B25EB2002BF2D1FF2384F8FE
:101B6000453000F0A9FF00F085FF94F8446076B29C
:101B7000002E11DD23697BB104F1100901E0236916
:101B800053B1484600F056FD08B100F0EBFD013EB0
:101B9000F3B25EB2002BF2D1FF2384F8443000F0A0
:101BA0008BFF00F00BFC00F065FFA36B002B7BD0DC
:101BB00000F082FF00F05EFFA36B0126002B3FF4D4
:101BC0004DAF2268013BA36312B900F0F1FE6060E3
:101BD0002369002B40F0888000F06EFF012566E04D
:101BE00000F0C0FD75E700F067FF2368002B52D0BE
:101BF00004F124094846019900F0CCFC00F03AFFBA
:101C000094F8456076B2002E04DC11E0013EF3B298
:101C10005EB26BB1636A5BB1484600F00BFD002811
:101C2000F4D0013E00F09EFDF3B25EB2002BF1D184
:101C3000FF2384F8453000F03FFF00F01BFF94F8CD
:101C4000446076B2002E0EDD236963B104F1100901
:101C5000484600F0EFFCD8B9013EF3B25EB213B1D2
:101C60002369002BF4D1FF2384F8443000F024FFD3
:101C700000F0A4FB00289DD14FF08053C8F800303D
:101C8000BFF34F8FBFF36F8F94E700F06BFD3DE71D
:101C900000F068FDE0E700F0EDFE606800F078FD20
:101CA000054600F009FFA3E700F006FF6DB92846DE
:101CB00005B0BDE8F083A5B14FF0500383F3118860
:101CC000BFF36F8FBFF34F8FFEE700F0D3FE616A63
:101CD00019B1236B1968C1F10701606800F00AFEB1
:101CE000002500F0E9FEE2E704F1100000F0A2FC9C
:101CF00000283FF471AF4FF08052034B1A60BFF3DE
:101D00004F8FBFF36F8F67E704ED00E080B54FF0B2
:101D1000805A154D154F164EDFF85880DFF8589051
:101D200014E000F0A7FEFB68DC68201DFFF730FC24
:101D30003368013B33602B68013B2B6000F0BCFE35
:101D4000206B01F03BF8204601F038F82B68002B9F
:101D5000E7D1D8F80030012BF8D9C9F800A0BFF3BB
:101D60004F8FBFF36F8FF1E768040020DC04002081
:101D700064040020D803002004ED00E0F8B51B4BFC
:101D80001B4E1C6833680546181D0F46FFF700FC04
:101D900040B9012233681749D86A0B68824023EAA8
:101DA00002030B606B1C17D0336864195C600BD2A4
:101DB000114B186831680431FFF7D0FB0F4B1A68DC
:101DC000A24288BF1C60F8BD0D4B18683168BDE8A1
:101DD000F8400431FFF7C2BB002FE5D03168094855
:101DE0000431BDE8F840FFF7ABBB00BFF0040020B2
:101DF000CC03002078040020D0030020A804002099
:101E0000D4030020C80400202DE9F84F4FEA820ACD
:101E1000804650460D4699460B9F00F03BFF002838
:101E200000F008810646542000F034FF04460028E4
:101E300000F0D38006632B78AAF1040A80F83430CE
:101E40002B78564426F0070A002B4DD06B7880F88B
:101E500035306B78002B47D0AB7880F83630AB78D4
:101E6000002B41D0EB7880F83730EB78002B3BD05B
:101E70002B7980F838302B79002B35D06B7980F8AE
:101E800039306B79002B2FD0AB7980F83A30AB79B1
:101E900053B3EB7980F83B30EB792BB32B7A80F896
:101EA0003C302B7A03B36B7A80F83D306B7ADBB130
:101EB000AB7A80F83E30AB7AB3B1EB7A80F83F3042
:101EC000EB7A8BB12B7B80F840302B7B63B16B7B43
:101ED00080F841306B7B3BB1AB7B80F84230AB7B11
:101EE00013B1EB7B80F843300A9D4FF0000B062DB9
:101EF00028BF0625261DE5626564304684F843B098
:101F0000C4F848B0FFF718FBC5F1070504F1180045
:101F1000FFF712FBC4F84CB0A561246184F850B0FF
:101F200064624A464146504600F07EFD206007B19B
:101F30003C6000F09FFD414A414F1368013313603C
:101F40003B68002B3FD0DFF81881E36AD8F8002007
:101F500072B3DFF810910125DFF80CE1DFF80CC156
:101F600005FA03F203EB8303314609EB8300DEF845
:101F70000060DCF8003032432B44CCF80030CEF85F
:101F80000020FFF7DDFA00F097FDD8F80030BBB174
:101F90003A68E36AD26A9A4212D24FF08052294BD1
:101FA0001A60BFF34F8FBFF36F8F2846BDE8F88FDD
:101FB0003A68DFF8B090D26A9A4298BF3C60CAE7AC
:101FC0002846BDE8F88F3C601368012B0CD0E36A0B
:101FD000DFF89090DFF88880BDE7304600F0EEFE35
:101FE0004FF0FF30BDE8F88FDFF878904D4609F1EB
:101FF0008C0828461435FFF793FA4545F9D1DFF8E8
:102000007080114D4046FFF78BFA2846FFF788FA9B
:102010000E48FFF785FA0E48FFF782FA0D48FFF7E2
:102020007FFA0D4B0D4AC3F80080E36A1560DFF8B4
:10203000308090E74FF0FF30B8E700BF6404002025
:10204000CC03002004ED00E090040020B004002048
:10205000DC040020C8040020D0030020D4030020AA
:10206000C4040020D8030020780400207404002059
:102070007C0400202DE9F8434FF4007000F00AFEC4
:10208000002800F093800646542000F003FE04462A
:10209000002800F0888000255B4B071D4363066322
:1020A00080F8385080F84350C562C0E91155384671
:1020B000FFF742FA04F11800FFF73EFA072306F58E
:1020C000FE7626F007062A46E564A3614F493046AE
:1020D000246184F85050646200F0A6FC4C4B2060F0
:1020E0001C6000F0C7FC4B4BDFF858811A680132C6
:1020F0001A60D8F80020002A4CD0474EE06A3368B6
:10210000002B3ED0454D0123DFF83CE1DFF83CC118
:10211000834000EB8000DCF8002005EB8000DEF857
:10212000005001322B433946CEF80030CCF8002065
:10213000FFF706FA00F0C0FC33686BB1D8F8002056
:10214000E36AD26A9A4207D24FF08052344B1A6047
:10215000BFF34F8FBFF36F8F4FF0500383F311889E
:10216000BFF36F8FBFF34F8F4FF0FF340121002279
:102170002C4B2D48046031601A60BDE8F84300F034
:1021800005BDD8F80030254DDB6A834298BFC8F8FA
:102190000040B8E7C8F800401B68012B0FD0E06A88
:1021A0001E4D1D4EAFE7304600F008FE4FF05003C5
:1021B00083F31188BFF36F8FBFF34F8FFEE7174D87
:1021C0002E4605F18C0930461436FFF7A9F9B145C2
:1021D000F9D1DFF87C90154E4846FFF7A1F930465B
:1021E000FFF79EF91248FFF79BF91248FFF798F99D
:1021F0001148FFF795F9114A114BC2F80090E06AB7
:102200001E60054E7FE700BF49444C450D1D000888
:10221000A404002064040020C4040020D80300208B
:1022200004ED00E0F0040020A80400209004002049
:10223000B0040020DC040020C8040020D0030020EB
:10224000D4030020CC030020780400207404002074
:102250007C040020024A136801331360704700BFFA
:10226000700400202DE9F84F494B1B68CBB9494B4E
:102270001E6801361E600EB3DFF838B1DBF80020AF
:102280000025B24228D9444FDFF82C81D8F800301D
:10229000DB6A03EB83039B00FB58022B28BF01255D
:1022A00004E000253D4A1368013313603C4B1B6872
:1022B000002B0CBF28460120BDE8F88F394C23685D
:1022C0001B68002B47D04FF0500383F31188BFF3F6
:1022D0006F8FBFF34F8FFEE7324C2F4FDFF8D88060
:1022E0002DE02268D268D2F80C90D9F8041009F1D8
:1022F000040A8E422CD35046FFF74AF9D9F8281029
:1023000009F1180009B1FFF743F90121264AD9F86C
:102310002C00136801FA00FC00EB8000514607EB2B
:1023200080004CEA030CC2F800C0FFF709F9D8F8A6
:102330000000D9F82C10C26A914228BF01252268FA
:102340001268002ACDD14FF0FF32CBF800209DE774
:10235000CBF800109AE7154B21681868144A2060E2
:10236000196013680133136023681B6833B94FF099
:10237000FF32DFF840B0CBF800207FE72268DFF8BB
:1023800034B0D268D2685268CBF8002076E700BF3C
:1023900070040020F0040020D80300206C0400200A
:1023A000F4040020D003002078040020D40300208F
:1023B000AC040020A8040020CC0300202DE9F84F35
:1023C000384C236843B94FF0500383F31188BFF3AF
:1023D0006F8FBFF34F8FFEE700F04CFB2368013B8C
:1023E000236024687CBB304B1B6863B32F4DDFF840
:1023F000D4A02F4EDFF8D090DFF8D0B0DAF800305C
:102400003BB30127DAF80C30DC6804F1040804F16E
:102410001800FFF7BDF84046FFF7BAF8E06A3268E7
:1024200007FA00F300EB80001343414609EB8000FC
:102430003360FFF785F8DBF80030E26ADB6A9A4226
:10244000DCD32F60DAE7002400F036FB2046BDE83D
:10245000F88F3CB1174B1A681268DAB94FF0FF32A7
:10246000154B1A60154E34683CB10127FFF7FAFE90
:1024700000B12F60013CF9D134602B68002BE2D011
:102480004FF080520E4B1A60BFF34F8FBFF36F8F28
:102490000124D9E71A68084BD268D26852681A60DA
:1024A000E0E700BF7004002064040020F404002072
:1024B00078040020D0030020A80400206C04002031
:1024C00004ED00E0B0040020D8030020CC0300207D
:1024D00008B598B10E4B196841B14FF0500383F322
:1024E0001188BFF36F8FBFF34F8FFEE71A68013279
:1024F0001A60FFF743FCFFF761FF38B94FF08052D5
:10250000044B1A60BFF34F8FBFF36F8F08BD00BF3E
:102510007004002004ED00E0194B1B68E3B9194971
:10252000194A10B40B601368B3FA83F3DBB2C3F13A
:102530001F03164803EB830292008158841879B177
:1025400061680832496802449142616011D0CA68EA
:102550000F4B10BC1A60704701220A4B1A6070477B
:102560004FF0500383F31188BFF36F8FBFF34F8F8A
:10257000FEE7142202FB030349685960E7E700BF46
:1025800070040020F404002078040020D803002008
:10259000CC03002040B94FF0500383F31188BFF300
:1025A0006F8FBFF34F8FFEE770B51B4D0C46296848
:1025B0001831FEF7D3FF194B1E6828680430FEF768
:1025C000E7FF40B901222B681549D86A0B688240A1
:1025D00023EA02030B60631C0FD02B68A4195C6014
:1025E00012D2104B186829680431FEF7B7FF0E4B62
:1025F0001A68944238BF1C6070BD29680B480431CA
:10260000BDE87040FEF79CBF094B18682968BDE81B
:1026100070400431FEF7A2BFCC030020F00400207C
:1026200078040020D0030020A8040020C804002063
:10263000D4030020F8B5C368DC6854B304F118056E
:102640002846FEF7A5FF184B1B68EBB9261D304640
:10265000FEF79EFF0123154DE26A2F681448934050
:1026600002EB82023B43314600EB82002B60FEF717
:1026700067FF104BE26A1B68DB6A9A4212D901239A
:102680000D4A18461360F8BD29460C48FEF758FF5E
:10269000EFE74FF0500383F31188BFF36F8FBFF361
:1026A0004F8FFEE70020F8BD700400207804002062
:1026B000D8030020CC030020F4040020B004002044
:1026C000034A044B12681B68C0E90023704700BF2F
:1026D000AC040020F0040020F8B540B3F1B10D4681
:1026E000044600F0C7F9DFF878C02B686768DCF8AB
:1026F0000060591CA6EB070222D018482168D0F8C8
:1027000000E0714501D0B74225D993421AD8002381
:1027100001262B6000F0D0F93046F8BD4FF0500391
:1027200083F31188BFF36F8FBFF34F8FFEE74FF036
:10273000500383F31188BFF36F8FBFF34F8FFEE712
:102740000026E7E70068DCF800109B1A2B600026E3
:10275000C4E90001DEE70126DCE700BFAC0400208D
:10276000F00400200122014B1A607047F40400209D
:10277000054B1B6833B1054B1B68002B0CBF0220B7
:102780000020704701207047C4040020700400201E
:102790002DE9F0410746C8B1254DC26A2968C96ACA
:1027A0008A4215D28169002904DB2968C96AC1F10E
:1027B000070181611F4E02EB8202796906EB8202FA
:1027C00091420ED001202A68D26AFA62BDE8F081F7
:1027D0002A68406CD36A98422CBF00200120BDE8D3
:1027E000F08107F104084046FEF7D2FE68B9F96AA5
:1027F00001EB81039B00F3583BB901230E4A8B4048
:10280000116821EA0301116000E00B4A01242B68E2
:102810001568D86A4146F86204FA00F300EB8000BC
:1028200006EB80002B431360FEF78AFE2046CDE7BF
:10283000CC030020D80300207804002068B1F8B54C
:10284000294B1B6883420AD04FF0500383F3118851
:10285000BFF36F8FBFF34F8FFEE7002070479B6C75
:1028600043B94FF0500383F31188BFF36F8FBFF369
:102870004F8FFEE7C16A426C013B9142836400D0F6
:102880000BB10020F8BD071D04463846FEF780FE58
:10289000B8B11648164B01254FF0140C626CD3F8F2
:1028A00000E005FA02F63946C2F1070746EA0E06CD
:1028B0000CFB0200E262A7611E60FEF741FE2846A3
:1028C000F8BD1423E56A094803FB05F3C3580BB1AF
:1028D000074BE0E70122064B02FA05F51A6822EAE7
:1028E00005021A60D7E700BFCC030020D803002000
:1028F00078040020A8B1F8B5846C44B94FF05003B7
:1029000083F31188BFF36F8FBFF34F8FFEE7436CE4
:10291000C26A8B4238BF0B469A4201D0012C01D0CB
:10292000F8BD70471F490968814222D0142581698A
:102930001D4E002905FB0262C362A4BFC3F1070359
:10294000836143699342EBD1071D04463846FEF785
:102950001FFEB8B1E06A154B012214241D688240A5
:102960002A43394604FB00601A60BDE8F840FEF7D0
:10297000E7BD4FF0500383F31188BFF36F8FBFF3B0
:102980004F8FFEE70122E06A05FB00F5735902FA5A
:1029900000F10BB1054BDFE7044B1A6822EA010294
:1029A0001A60D9E7CC030020D80300207804002067
:1029B000044B1A681AB119688A6C01328A64186863
:1029C000704700BFCC03002000220E4B82B01B6872
:1029D0000192013308D04FF0500383F31188BFF305
:1029E0006F8FBFF34F8FFEE74FF0500383F31188D3
:1029F000BFF36F8FBFF34F8F019B002BFCD002B052
:102A0000704700BF0800002006480068006880F397
:102A1000088862B661B6BFF34F8FBFF36F8F00DFD8
:102A200000BF000008ED00E010B44FF08074064BCA
:102A300021F0010140F8202C40E9021440F80C3C40
:102A400010BC4038704700BFC929000800000000D2
:102A5000074B19680868B0E8F00F80F30988BFF3E6
:102A60006F8F4FF0000080F311884EF00D0E70470D
:102A7000CC0300204FF0500383F31188BFF36F8F16
:102A8000BFF34F8F0A4A13680133012B136000D044
:102A90007047084B1B6813F0FF0FF9D04FF050033D
:102AA00083F31188BFF36F8FBFF34F8FFEE700BF33
:102AB0000800002004ED00E0084A136843B94FF015
:102AC000500383F31188BFF36F8FBFF34F8FFEE77F
:102AD000013B13600BB983F3118870470800002095
:102AE000EFF30980BFF36F8F0D4B1A6820E9F00FE9
:102AF00010602DE908404FF0500080F31188FFF777
:102B00000BFD4FF0000080F31188BDE80840196804
:102B10000868B0E8F00F80F30988BFF36F8F704743
:102B2000CC03002008B54FF0500383F31188BFF3A6
:102B30006F8FBFF34F8FFFF795FB18B14FF08052A7
:102B4000024B1A60002383F3118808BD04ED00E0F6
:102B50000023072110B4084A084C09481360236079
:102B60000368084C0848A4FB03439B09013B03602E
:102B700010BC1160704700BF10E000E018E000E0FA
:102B8000AC030020D34D621014E000E030B5FF2507
:102B90000724274B83B01A782649D2B201921D70C0
:102BA0001B782548DBB28DF803309DF803309DF883
:102BB000032003F050030B701106046010D50623A8
:102BC00000E00B469DF80320591E5200D2B28DF84A
:102BD00003209DF803201206F3D4032B036008D0D2
:102BE0004FF0500383F31188BFF36F8FBFF34F8F04
:102BF000FEE7002401990E4D1B02104AC9B203F4EE
:102C0000E06303602970136843F470031360136872
:102C100043F070431360FFF79BFF094B1C60FFF705
:102C2000F3FEFFF779FCFFF7CFFE204603B030BD7F
:102C300000E400E0F8040020FC04002020ED00E0A7
:102C40000800002030B4114B1A68824201D21346AA
:102C5000FAE75C681919884203D141681846214493
:102C60005960446801198A4209D1094909688A42B0
:102C700005D0D2E900512144C0E9005100E00260D2
:102C8000984218BF186030BC704700BF101D00206C
:102C9000000500202DE9F041414F0446FFF7DAFA24
:102CA0003A68002A5AD03F4B1E68344250D1002C5B
:102CB0004ED004F1080358071CBF23F00703083364
:102CC000002B45D0DFF8F080D8F800509D423FD36C
:102CD0003548046806E0D4F800C0BCF1000F04D009
:102CE0002046644661689942F5D3944230D0CA1AAE
:102CF0002768102A076010D9E018410708D04FF064
:102D0000500383F31188BFF36F8FBFF34F8FFEE73C
:102D100042606360FFF796FF61680023234A6D1AE3
:102D2000106831438542C4E9003104F1080438BF1A
:102D30001560C8F80050FFF741FB63070BD04FF058
:102D4000500383F31188BFF36F8FBFF34F8FFEE7FC
:102D5000FFF734FB00242046BDE8F081144B00202F
:102D60005D071CBF073323F0070319464FF00045EA
:102D7000104ADFF834C022F00702D31ACCF804005E
:102D8000CCF800103A60C2E90000084FC1E9002306
:102D9000094804492E463B6003600D6085E700BF8B
:102DA00000050020041D0020101D00200C1D002027
:102DB00004050020FC1C0020081D0020D0B1194A89
:102DC00050F8043C1268134208D14FF0500383F3CB
:102DD0001188BFF36F8FBFF34F8FFEE750F8081CC9
:102DE00049B14FF0500383F31188BFF36F8FBFF3E6
:102DF0004F8FFEE7704710B5044623EA020340F800
:102E0000043CFFF727FA084A54F8043C1168A4F17F
:102E100008000B441360FFF715FFBDE81040FFF7F3
:102E2000CDBA00BF041D0020081D002070B500258C
:102E30004FF460224FF48071022301260C4C0D48A0
:102E400084B0C4E900052046A160E2612361CDE9B8
:102E50000155039525752673FDF79EF9072301A9F2
:102E60002046CDE901560393FDF7B0FB04B070BDD9
:102E7000641F00200024014000234FF4807030B50F
:102E80004FF46021012502220D4C85B0CDE90133BC
:102E9000039363600B4BA06020462360E1612261D5
:102EA00025732575FDF778F90922072301A9204626
:102EB000CDE901250393FDF789FB05B030BD00BFC7
:102EC000341F00200028014010B44FF0FF344FF4AD
:102ED0008072044B04491846C3E9001410BC9A6080
:102EE000FEF762B9941F00200028004070B500244E
:102EF00088B0CDE90444CDE906441C4B1C4D9A69C9
:102F0000284642F020029A619969224601F0200188
:102F1000019101999969012641F00401996199692A
:102F200001F0040102910299996941F00801996147
:102F30009B69F82103F008030393039BFDF72CFD25
:102F4000F8220223284604A9CDE904260793069413
:102F5000FDF722FC4FF4C07304A90648CDE90546ED
:102F60000493FDF719FC08B070BD00BF00100240CB
:102F700000080140000C014010B594B0242200214B
:102F80000BA802F000FE0024012310220A210AA847
:102F9000CDE90F230A910E9305940194CDE90644DF
:102FA000CDE90844CDE902440494FDF7FFFC0F236A
:102FB000214605A80593CDE90644CDE90844FDF76F
:102FC000EDFE03224FF4007301A80394CDE9012321
:102FD000FDF7F0FF14B010BD0268034B9A4200D019
:102FE0007047FDF7C7B800BF000800407820FEF723
:102FF0008FBA00BF032208B5044B78201A70FEF781
:1030000087FA0822024B1A7008BD00BF6802002030
:10301000181D0020012208B5044B78201A70FEF715
:1030200077FA0822024B1A7008BD00BF6802002020
:10303000181D00207820FEF76BBA00BF7820FEF73D
:1030400067BA00BF032208B5044B78201A70FEF758
:103050005FFA0822024B1A7008BD00BF6802002008
:10306000181D0020082270B5104D114B28684FF430
:103070007A711A70FEF7C0FC012810D10023412696
:103080000C4C2868E27961796272E171E2786178CA
:103090006271E1701A4619466670FEF71BFB7820D4
:1030A000FEF736FA0822044B1A7070BD2C1F002060
:1030B0006802002054000020181D0020082270B56E
:1030C0001C4D1D4B28684FF47A711A70FEF794FC62
:1030D000012810D10023412418481A46C6794179A5
:1030E0004672C171C67841784671C1704470194604
:1030F0002868FEF7EFFA4FF47A712868FEF77CFC37
:10310000012810D1002341260C4C2868E27961790E
:103110006272E171E27861786271E1701A46194673
:103120006670FEF7D7FA7820FEF7F2F90822044B12
:103130001A7070BD2C1F002068020020540000206F
:10314000181D002070B51F4D4FF47A712868FEF7E6
:1031500053FC012810D100234E261B4C2868E2792D
:1031600061796272E171E27861786271E1701A46A8
:1031700019466670FEF7AEFA144B1B780B2B0ED077
:103180000D2B0FD0042B0DD0114B1B7853B9BDE87C
:10319000704001220F4B01201A70FEF7B9B90C4B99
:1031A0001B783BB1BDE8704005220A4B01201A7024
:1031B000FEF7AEB90322BDE87040064B01201A703D
:1031C000FEF7A6B92C1F002054000020201F00206D
:1031D000191D0020181D002070B50B4C05464FF43A
:1031E0007A712068FEF708FC012802D000242046EE
:1031F00070BD0023054E2068745D1A461946FEF71F
:1032000069FA204670BD00BF2C1F0020540000202A
:10321000044B1A78082A04D8034B03EBC2035B68FB
:1032200018477047181D00200C00002008B54FF407
:1032300080710748FDF7AAFB10B9064B187008BD4E
:103240004FF480710248FDF7A1FB0128F5D008BDBD
:10325000000C01406000002008B54FF4807109485F
:10326000FDF794FB012809D04FF480710548FDF764
:103270008DFB10B90122044B1A7008BD0222024BCB
:103280001A7008BD000C01406000002008B54FF422
:1032900080711548FDF77AFB012813D04FF4807137
:1032A0001148FDF773FB00B108BD0A20FEF730F9A5
:1032B0004FF480710C48FDF769FB88B101220B4B7C
:1032C0001A7008BD0A20FEF723F94FF480710648F2
:1032D000FDF75CFB0128F1D10222044B1A7008BDF6
:1032E000024B187008BD00BF000C014060000020B8
:1032F000044B1A78022A04D8034B03EBC2035B6821
:103300001847704760000020640000200A4B0B4AF9
:103310001B6812689B1ADBB2A3F12002120603D4C9
:103320000022074B1A7070471B3B042B94BF0122ED
:103330000222034B1A7070477C03002038020020E1
:10334000191D002008B50748FDF73CF9064B074951
:103350001A78074B002A0CBF0822092208601A704D
:1033600008BD00BF641F0020600000201C1D00205D
:103370008000002008B50C48FDF724F90B4B0C4ADF
:103380001B7810605BB16FF4FA6240F601031044E1
:1033900098428CBF06200420064B187008BD0620FA
:1033A000044B187008BD00BF641F0020600000209F
:1033B0001C1D00208000002008B50A48FDF702F916
:1033C000094B0A4A1B78106043B1A0F6D3702C2831
:1033D0008CBF06220122064B1A7008BD0622044B40
:1033E0001A7008BD641F0020600000201C1D002012
:1033F0008000002008B50C48FDF7E4F80B4B0C4AA0
:103400001B7810605BB16FF4FA6240F62E03104433
:10341000984294BF06200320064B187008BD062072
:10342000044B187008BD00BF641F0020600000201E
:103430001C1D00208000002070B50F4D4FF47A71E4
:103440002868FEF7D9FA012811D100230B4C0C494A
:10345000E2790E7861796272E171E2786178627185
:10346000E17028681A4619466670FEF733F90122A2
:10347000044B1A7070BD00BF301F0020D400002024
:103480007F0000208000002070B50F4D4FF47A714E
:103490002868FEF7B1FA012811D100230B4C0C4922
:1034A000E2790E7861796272E171E2786178627135
:1034B000E17028681A4619466670FEF70BF9082273
:1034C000044B1A7070BD00BF301F0020D4000020D4
:1034D0007C0000208000002070B50F4D4FF47A7101
:1034E0002868FEF789FA012811D100230B4C0C49FA
:1034F000E2790E7861796272E171E27861786271E5
:10350000E17028681A4619466670FEF7E3F8032250
:10351000044B1A7070BD00BF301F0020D400002083
:103520007D0000208000002070B50F4D4FF47A71AF
:103530002868FEF761FA012811D100230B4C0C49D1
:10354000E2790E7861796272E171E2786178627194
:10355000E17028681A4619466670FEF7BBF8042227
:10356000044B1A7070BD00BF301F0020D400002033
:103570007E0000208000002008B50848FDF722F8F2
:10358000074B18604B20FDF7C3FF064A064B127825
:10359000002A0CBF082206221A7008BD641F0020F2
:1035A0001C1D0020600000208000002070B52F4806
:1035B000FDF708F82E4D2F4C2B78206083B3A0F632
:1035C000D3732C2B1AD96FF4FA6C40F62E06604494
:1035D000B04233D86420FDF79BFF2448FCF7F2FF8C
:1035E0002B78206033B16FF4FA6240F60103104487
:1035F000984236D90622204B1A7070BD0520FDF77F
:1036000087FF1A48FCF7DEFF2B782060002BF1D0F3
:10361000A0F6D3702C28EDD80022174B1A7070BD7D
:103620000520FDF775FF1148FCF7CCFF2B782060D3
:10363000002BDFD10722104B1A7070BD0520FDF75B
:1036400067FF0A48FCF7BEFF2B782060002BD1D023
:103650006FF4FA610844B042CCD90222064B1A70CA
:1036600070BD0522044B1A7070BD00BF641F00209E
:10367000600000201C1D00208000002070B50B4C55
:1036800005464FF47A712068FEF7B6F9012802D09A
:103690000024204670BD0023054E2068745D1A4644
:1036A0001946FEF717F8204670BD00BF301F0020F6
:1036B000D400002010B50A20FDF72AFF4FF47A71DC
:1036C0000748FCF7C3FE074B1A78092A06D8BDE85D
:1036D0001040054B03EBC2035B68184710BD00BFE9
:1036E000641F00208000002084000020002300B51B
:1036F00087B068460749CDE90033CDE90233CDE90B
:10370000043301F033F80222034B1A7007B05DF85E
:1037100004FB00BFAC600008201D002000230A222B
:1037200010B50C4C86B021466846CDE90023CDE9A2
:103730000233CDE9043301F019F86420FDF7E8FE07
:103740002146684600F06AFE0122034B1A7006B05B
:1037500010BD00BF2C630008201D002070B500269E
:103760008CB01C4D06AC0FCD0FC495E803001A4D6C
:1037700084E8030006A81949CDE90066CDE9026690
:10378000CDE9046600F0F2FF2C78082C0CD0012C57
:1037900001D00CB070BD06A8104900F03FFE032216
:1037A0000F4B1A700CB070BD0E4B0F4A1E700F4BB2
:1037B00068460F4916701E7000F030FE074906A8D3
:1037C00000F02CFE04220B49054B0C701A702C786B
:1037D000DDE700BFD05B000880000020C45F000868
:1037E000201D0020211D0020221D0020231D00205F
:1037F000AC600008181D002070B500268CB01C4D70
:1038000006AC0FCD0FC495E803001A4D84E8030001
:1038100006A81949CDE90066CDE90266CDE904663E
:1038200000F0A4FF2C78082C0CD0032C01D00CB095
:1038300070BD06A8104900F0F1FD02220F4B1A706E
:103840000CB070BD0E4B0F4A1E700F4B0A4906A8F4
:1038500016701E7000F0E2FD0C49684600F0DEFDB7
:1038600006220B49054B0C701A702C78DDE700BF5F
:10387000E85B000880000020C45F0008201D0020D5
:10388000211D0020221D0020231D0020AC60000807
:10389000181D002038B510230A4D0B4C0B4A03218C
:1038A0000A202B70237000F081FC094A03210A20B2
:1038B00000F07CFC4FF47A70FDF72AFE0122054BE4
:1038C0001A7038BD201F0020211F0020FC5C00085A
:1038D0000C5D0008201D002038B50A4B1B780F2B0B
:1038E00000D038BD06254FF49670FDF711FE06484E
:1038F000064902780B78064C0132013302700B70D6
:10390000257038BD201F0020211D0020221D002011
:10391000201D002000230920122100B5434A93B046
:1039200012780093CDE90733CDE909330B93CDE944
:103930000D33CDE90F331193CDE90133CDE90333D5
:10394000CDE905300C91032A62D8DFE802F045404A
:103950003B0237490CA800F009FF36480099069A47
:103960000C9B0078323132323233009106920C9344
:1039700003283ED8DFE800F0171009022C490CA8F4
:1039800000F0F4FE13B05DF804FB294906A800F02E
:10399000EDFE13B05DF804FB6846254900F0E6FE35
:1039A00013B05DF804FB6846234900F0DFFE06A86B
:1039B000214900F0DBFE20490CA800F0D7FE13B02F
:1039C0005DF804FB1A4906A800F0D0FEC5E71849C7
:1039D000684600F0CBFEC0E76846174900F0C6FE17
:1039E00006A8154900F0C2FE13490CA800F0BEFE5F
:1039F000B3E76846104900F011FD06A80E4900F033
:103A00000DFD0D490CA800F009FD13B05DF804FB95
:103A10006846094900F002FD06A8074900F0FEFCCF
:103A200005490CA800F0FAFC97E700BF221D002012
:103A3000F8620008231D0020EC62000838B5052359
:103A40001B4C01202370FDF763FD1A4B1B780F2BD5
:103A500019D0194B1B780F2B00D038BD4FF496703E
:103A6000FDF756FD154D16492B780A7801330132C2
:103A70002B700A70FFF74EFF2B78022B94BF0423A4
:103A80000823237038BD4FF49670FDF741FD0D4DAE
:103A90000B492B780A78013301322B700A70FFF73B
:103AA00039FF2B78022B94BF042308232370D0E71F
:103AB000201D0020211F0020201F0020231D00208A
:103AC000211D0020221D0020F0B593B001236F4678
:103AD0004649474A474C0B701370FFF71BFF0FCC4A
:103AE0000FC794E8030004F1080606AD87E8030059
:103AF0000FCE0FC596E80300203485E80300684622
:103B00003D490CAD00F032FE0FCC0FC594E8030028
:103B10003A4B85E803001B78042B18D8DFE803F044
:103B200024394E63030036490CA800F01FFE4FF401
:103B3000FA70FDF7EDFC334906A800F017FE4FF4CC
:103B40007A70FDF7E5FC0CA82F4900F067FC06A889
:103B50002C4900F063FC6846274900F05FFC07220F
:103B60002A4B1A7013B0F0BD29490CA800F0FEFDD5
:103B70004FF4FA70FDF7CCFC224906A800F0F6FDE0
:103B80004FF47A70FDF7C4FC0CA8214900F046FC04
:103B9000DDE720490CA800F0E9FD4FF4FA70FDF7CD
:103BA000B7FC184906A800F0E1FD4FF47A70FDF764
:103BB000AFFC0CA8174900F031FCC8E716490CA867
:103BC00000F0D4FD4FF4FA70FDF7A2FC0D4906A8F1
:103BD00000F0CCFD4FF47A70FDF79AFC0CA80E496A
:103BE00000F01CFCB3E708499EE700BF201F00203F
:103BF000211F0020005C0008745F0008211D0020C8
:103C000074600008405F0008B4620008201D0020B6
:103C1000186300083C60000804630008F0B593B026
:103C20006F46434CFFF776FE0FCC0FC794E80300B6
:103C300004F1080606AD87E803000FCE0FC596E82D
:103C40000300203485E8030068463A490CAD00F0D3
:103C50008DFD0FCC0FC594E80300374B85E80300BA
:103C60001B78042B18D8DFE803F021364B600300E3
:103C700032490CA800F07AFD4FF4FA70FDF748FCC9
:103C80002F4906A800F072FD4FF47A70FDF740FC52
:103C90000CA82C4900F0C2FB06A8294900F0BEFB85
:103CA0006846244900F0BAFB13B0F0BD26490CA8C1
:103CB00000F05CFD4FF4FA70FDF72AFC204906A8DD
:103CC00000F054FD4FF47A70FDF722FC0CA81E4959
:103CD00000F0A4FBE0E71D490CA800F047FD4FF4FD
:103CE000FA70FDF715FC164906A800F03FFD4FF4E9
:103CF0007A70FDF70DFC0CA8144900F08FFBCBE7A0
:103D000013490CA800F032FD4FF4FA70FDF700FCE7
:103D10000B4906A800F02AFD4FF47A70FDF7F8FB76
:103D20000CA80B4900F07AFBB6E70649A1E700BFF3
:103D3000005C0008745F0008211D0020746000080A
:103D4000405F0008B4620008186300083C60000887
:103D500004630008012330B54649474A93B00B700D
:103D600013700525FFF75AFF002309201221434A4B
:103D7000434C127825700093CDE90733CDE9093320
:103D80000B93CDE90D33CDE90F331193CDE9013319
:103D9000CDE90333CDE905300C91032A5DD8DFE886
:103DA00002F0413C370237490CA800F0DFFC3648EE
:103DB0000099069A0C9B00783231323232330091EE
:103DC00006920C9303283AD8DFE800F0140E08029C
:103DD0002C490CA800F0CAFC13B030BD294906A834
:103DE00000F0C4FC13B030BD6846264900F0BEFCAC
:103DF00013B030BD6846254900F0B8FC06A8234939
:103E000000F0B4FC21490CA800F0B0FC13B030BDA8
:103E10001C4906A800F0AAFCC9E71A49684600F048
:103E2000A5FCC4E76846194900F0A0FC06A817499C
:103E300000F09CFC15490CA800F098FCB7E7684618
:103E4000124900F0EBFA06A8104900F0E7FA0F4912
:103E50000CA800F0E3FA13B030BD68460B4900F03F
:103E6000DDFA06A8094900F0D9FA08490CA800F0C3
:103E7000D5FA9CE7201F0020211F0020221D0020D2
:103E8000201D0020F8620008231D0020EC620008BD
:103E900010B50A20FDF73CFB054B1A78082A06D816
:103EA000BDE81040034B03EBC2035B68184710BD2D
:103EB000201D0020E0000020F8B500228021994854
:103EC000FCF76AFD0A2001F0D3FB0122802195480E
:103ED000FCF762FD002220219248FCF75DFD0022E4
:103EE00040219048FCF758FD082501278D4E15E02C
:103EF000012210213046FCF74FFD012001F0B8FBF4
:103F0000012208213046FCF747FD012001F0B0FBFB
:103F1000002208213046FCF73FFD3DB1013D07FA84
:103F200005F212F02104E3D12246E2E7012240210A
:103F30007C48FCF731FD002220217A48FCF72CFD5B
:103F4000002240217748FCF727FD08250127754E00
:103F500015E0012210213046FCF71EFD012001F082
:103F600087FB012208213046FCF716FD012001F0F5
:103F70007FFB002208213046FCF70EFD3DB1013DDC
:103F800007FA05F212F0B004E3D12246E2E701227B
:103F900040216448FCF700FD002220216148FCF725
:103FA000FBFC002240215F48FCF7F6FC08250127B6
:103FB0005C4E15E0012210213046FCF7EDFC01209B
:103FC00001F056FB012208213046FCF7E5FC0120F8
:103FD00001F04EFB002208213046FCF7DDFC3DB12C
:103FE000013D07FA05F212F00404E3D12246E2E7AC
:103FF000012240214B48FCF7CFFC002220214948F8
:10400000FCF7CAFC002240214648FCF7C5FC082505
:104010000127444E15E0012210213046FCF7BCFC7C
:10402000012001F025FB012208213046FCF7B4FCF9
:10403000012001F01DFB002208213046FCF7ACFCFA
:104040003DB1013D07FA05F212F01404E3D1224616
:10405000E2E7012240213348FCF79EFC00222021A8
:104060003048FCF799FC002240212E48FCF794FCD4
:10407000082501272B4E15E0012210213046FCF7C0
:104080008BFC012001F0F4FA012208213046FCF7F4
:1040900083FC012001F0ECFA002208213046FCF7F5
:1040A0007BFC3DB1013D07FA05F212F02004E3D19B
:1040B0002246E2E7012240211A48FCF76DFC00226B
:1040C00020211848FCF768FC002240211548FCF725
:1040D00063FC08250127134E15E00122102130460C
:1040E000FCF75AFC012001F0C3FA012208213046F6
:1040F000FCF752FC012001F0BBFA002208213046F7
:10410000FCF74AFC3DB1013D07FA05F212F00C0440
:10411000E3D12246E2E70122BDE8F8404021014810
:10412000FCF73ABC000801402DE9F0474FF00108C8
:10413000DFF874901B4E09F5FC7A012220213046ED
:1041400019F8017FFCF728FC002240213046FCF7DB
:1041500023FC082515E0012210213046FCF71CFC49
:10416000012001F085FA012208213046FCF714FCF9
:10417000012001F07DFA002208213046FCF70CFCFA
:104180003DB1013D08FA05F212EA0704E3D12246E7
:10419000E2E7012240213046FCF7FEFBD145CCD1BD
:1041A000BDE8F08700080140231D00202DE9F047FD
:1041B000234D06460C4628684FF47A711746FDF7E2
:1041C0001BFC012801D0BDE8F087052C28BF052481
:1041D000552E28BF5326542101FB0461DFF86C8063
:1041E0003B78C8F800101BB33A4600261548164C19
:1041F0000144C0F1060E203B03EB8303E018E35CAF
:1042000090F801904B7090F802C00379C7780E7057
:1042100081F8029081F803C00F714B710EEB010021
:1042200001F8066F12F8013F002BE4D1C8F8000036
:10423000002328681A46BDE8F0471946FDF74ABA38
:10424000281F0020241D0020185D00081C1F0020CE
:104250002DE9F0474FF4FC720021214801F093FC56
:104260004FF00108DFF884901E4E09F5FC7A012218
:104270002021304619F8017FFCF78EFB00224021F7
:104280003046FCF789FB082515E001221021304655
:10429000FCF782FB012001F0EBF9012208213046F6
:1042A000FCF77AFB012001F0E3F9002208213046F7
:1042B000FCF772FB3DB1013D08FA05F212EA070472
:1042C000E3D12246E2E7012240213046FCF764FBBD
:1042D000D145CCD10022044B1A60BDE8F08700BF65
:1042E000241D0020000801401C1F0020231D002069
:1042F0002DE9F043D0E90036532B28BF53238468BF
:104300002F2E9C4628BF2F260B784F780269002C51
:1043100040D0C16800293DD0A34228BF23468F4228
:1043200028BF0F4603EB0C05542D06EB070188BF91
:10433000CCF1540330293AD9C6F13007002A37D1DD
:1043400033B34FF054084FF0010E3348374403EBBA
:104350000C052F2EB14628BF4FF02F0909F0070496
:104360000EFA04F4E44363464FEAD90908FB09F95D
:1043700064B2532B94BF09EB030109F15301425C72
:10438000013322409D424254F3D10136B742E0D17D
:10439000BDE8F083002AC5D041690029C2D0144687
:1043A000A34228BF23468F4228BF0F46BAE772B305
:1043B000426962B3002FEBD0002BE9D04FF05408D4
:1043C0004FF0010E1448374403EB0C052F2EB14675
:1043D00028BF4FF02F0909F007040EFA04F4E44354
:1043E00063464FEAD90908FB09F964B2532B94BF1D
:1043F00009EB030109F15301425C01332240AB4256
:104400004254F3D10136B742E0D1BDE8F083002F2A
:1044100096D1BDE8F08300BF241D002070B50B4C81
:1044200005460E46206840F6B831FDF7E5FA01284A
:1044300000D070BD31462846FFF75AFF00232068A0
:104440001A46BDE870401946FDF744B9281F002000
:104450002DE9F043D0E900568468532D28BF532539
:104460002F2E28BF2F260B784F780269002C41D0C1
:10447000C16800293ED0A34228BF23468F4228BFEF
:104480000F4603EB050EBEF1540F07EB060188BF84
:10449000C5F1540330293AD9C6F13007002A37D183
:1044A00033B34FF054084FF0010E33483744A5EBB7
:1044B000030C2F2EB14628BF4FF02F0909F0070437
:1044C0000EFA04F4E44363464FEAD90908FB09F9FC
:1044D00064B2532B94BF09EB030109F15301425C11
:1044E000013322409D424254F3D10136B742E0D11C
:1044F000BDE8F083002AC4D041690029C1D0144628
:10450000A34228BF23468F4228BF0F46B9E772B3A4
:10451000426962B3002FEBD0002BE9D04FF0540872
:104520004FF0010C1448374403EB050E2F2EB14613
:1045300028BF4FF02F0909F007040CFA04F4E443F4
:104540002B464FEAD90908FB09F964B2532B94BFF3
:1045500009EB030109F15301425C01332240734529
:104560004254F3D10136B742E0D1BDE8F083002FC9
:1045700096D1BDE8F08300BF241D002070B50B4C20
:1045800005460E46206840F6B831FDF735FA012899
:1045900000D070BD31462846FFF75AFF002320683F
:1045A0001A46BDE870401946FDF794B8281F002050
:1045B000D0E90023532A28BF53222F2B28BF2F23B3
:1045C0002DE9F04F964684684A7885B002930392AD
:1045D0000B78026964B1C56855B19C4228BF1C467E
:1045E000039EA446B5422C4628BF3446019405E0FC
:1045F000002A40F0B3809C46039C01940CEB0E040F
:10460000542CDDE901452C4488BFCEF1540C302CEC
:1046100048D9C5F130040194002A45D1BCF1000FFE
:1046200000F099804FF0000B4F4D029A012002EBF1
:104630000B062F2E28BF2F26542206F0070700FA5C
:1046400007F77FB2F6080BF0070800FA08F802FB3C
:1046500006F66FEA070A4FEADB09002003E084450B
:10466000AC5418D00B780EEB0002532A94BFB2184A
:1046700006F153020C1809FB03439C78AB5614EA6D
:10468000080F00F1010043EA070403EA0A03E6D138
:104690006045AB54E6D1019B0BF1010B5B455AD051
:1046A0000B78C2E7002A52D04269002A4FD0039A01
:1046B0000198A3EB0C0A121A00284CD0BCF1000F91
:1046C00049D002980192821A1046274D02928A44DC
:1046D000019A012486182F2E28BF2F26542006F079
:1046E000070704FA07F77FB2F60802F0070800FB95
:1046F00006F66FEA070B04FA08F84FEAD209002021
:1047000003E08445AC5419D00B780EEB0002532A19
:1047100094BFB21806F153020AEB000409FB0343ED
:104720009C78AB5614EA080F00F1010043EA070435
:1047300003EA0B03E5D18445AB54E5D1019B039A11
:1047400001339A42019306D00B780298C0E7019A90
:10475000002A7FF463AF05B0BDE8F08F4569002DF6
:104760003FF449AF144638E7241D002070B50B4CC8
:1047700005460E46206840F6B831FDF73DF90128A0
:1047800000D070BD31462846FFF712FF0023206895
:104790001A46BDE870401946FCF79CBF281F002050
:1047A0002DE9F04FD0E90073532F28BF53272F2B4B
:1047B00028BF2F234A78846885B0029303920B7830
:1047C00002696CB1C5685DB19C4228BF1C46039E5E
:1047D0000094B5422C4628BF34460194009C06E064
:1047E000002A40F0BE80039CCDE900341C463C44C6
:1047F000542C84BFC7F154040094DDE901452C1901
:10480000302C4ED9C5F130040194002A4BD1009AC6
:10481000002A00F0A380BA1A4FF0000A4FF0010BF3
:104820001446534E0392029A0AF0070E02EB0A074F
:104830002F2F28BF2F27542207F0070C0BFA0CFC50
:104840004FFA8CFCFF0802FB07F76FEA0C090BFA22
:104850000EFE4FEADA08009805E00138B55404F17D
:10486000010416D00B78532C94BF3A1907F1530268
:104870000D1808FB03539D78B35615EA0E0F43EA53
:104880000C0503EA0903E8D10138B35404F101042B
:10489000E8D1019B0AF1010A53455FD00B78039CD4
:1048A000C1E7002A56D04269002A53D00398009AE3
:1048B00005460198A3EB0209A5EB000B00284DD09B
:1048C000002A4BD00298CDF800B0A0EB0B00934625
:1048D000274E01908944009A012485182F2D28BF66
:1048E0002F25542005F0070C04FA0CFC4FFA8CFC21
:1048F000ED0802F0070E00FB05F56FEA0C0A04FA5A
:104900000EFE4FEAD208002003E08345B45418D0CD
:104910000B783A18532A94BFAA1805F1530209EBF1
:10492000000408FB03439C78B35614EA0E0F00F111
:10493000010043EA0C0403EA0A03E6D15845B354E4
:10494000E6D1009B039A01339A42009306D00B787C
:104950000198C0E7019A002A7FF459AF05B0BDE87D
:10496000F08F4569002D3FF43EAF14462CE700BFA1
:10497000241D002070B50B4C05460E46206840F6FD
:10498000B831FDF739F8012800D070BD314628460E
:10499000FFF706FF002320681A46BDE8704019465D
:1049A000FCF798BE281F0020704700BF064B00216F
:1049B0001B78064A03F0FD03042B08BF0123117086
:1049C00008BF1370704700BF201D0020201F00206B
:1049D000064B01211B78064A03F0FD03052B08BF97
:1049E0000223117008BF1370704700BF201D002004
:1049F000201F00200F22014B1A707047201F00203B
:104A000008B54FF4C870FCF783FD034B1A78082AE9
:104A100004BF09221A7008BD201F002008B54FF4FA
:104A20001670FCF775FD034B1A780A2A04BF0B2297
:104A30001A7008BD201F002008B54FF44870FCF71D
:104A400067FD034B1A780D2A04BF03221A7008BDB4
:104A5000201F002008B59620FCF75AFD0322014BC9
:104A60001A7008BD201F002008B54FF44870FCF7ED
:104A70004FFD0F22014B1A7008BD00BF201F002000
:104A800002210D4B0D4A1B781170023B012B0CD9F2
:104A90000B4B1B78032B05D0012B09D0082B08BF2B
:104AA000137070470623137070470023137070470C
:104AB00004231370704700BF201D0020201F00201A
:104AC0008000002003210D4B0D4A1B781170023B22
:104AD000012B0DD90B4B1B78032B06D0012B0AD0D1
:104AE000042B04BF02231370704706231370704712
:104AF000002313707047042313707047201D00209B
:104B0000201F00208000002010B5124C2378042BB9
:104B100000D010BD0120FEF7B1FD522812D023783D
:104B2000042BF6D10C4B1B78032B04D0042B05D19E
:104B30000223237010BD0623237010BD082B08BF6D
:104B4000237010BD0320FEF799FD5228E7D10523FD
:104B5000237010BD201F00208000002010B5124CD3
:104B60002378062B00D010BD0120FEF787FD4C28CE
:104B700012D02378062BF6D10C4B1B78012B04D0D6
:104B8000042B05D10223237010BD0423237010BD14
:104B9000082B08BF237010BD0320FEF76FFD4C28C3
:104BA000E7D10723237010BD201F002080000020C4
:104BB00008B52820FCF7ACFC0C4B1A78072A00D06B
:104BC00008BD0B4A1278012A09D0032A02D1062215
:104BD0001A7008BD042A05D102221A7008BD0422E9
:104BE0001A7008BD082A08BF1A7008BD201F0020CF
:104BF0008000002010B5114CC820FCF789FC2378F8
:104C0000092B00D010BD0120FEF738FD41280CD043
:104C10000B4B1B78032B05D0012B0CBF0423032364
:104C2000237010BD0623237010BD0320FEF726FD60
:104C30004128EDD10A23237010BD00BF201F0020A2
:104C40008000002008B54FF47A70FCF761FC094B36
:104C50001A780B2A00D008BD074A1278032A05D01B
:104C6000012A0CBF042203221A7008BD06221A7002
:104C700008BD00BF201F00208000002008B52820AC
:104C8000FCF746FC0A4B1A78052A00D008BD094AF1
:104C90001278032A08D0042A02D102221A7008BD11
:104CA000082A08BF1A7008BD06221A7008BD00BF86
:104CB000201F002080000020044B1A78102A04D8FE
:104CC000034B03EBC2035B6818477047201F0020AB
:104CD0002801002008B505490548FFF79FFB012082
:104CE000FCF716FC0022034B1A7008BD9062000806
:104CF00038020020201F00200120FCF709BC00BF63
:104D000038B5094C094D20462946FFF787FB084B6B
:104D100020461B6829462360FFF728FDBDE8384080
:104D20007820FCF7F5BB00BF380200209062000835
:104D30005002002008B504480449FFF717FDBDE8FC
:104D400008407820FCF7E4BB38020020906200089D
:104D500010B50B4C0B492046FFF760FB2368452B31
:104D600005D8094A1278012A9CBF01332360044800
:104D70000449FFF7FBFCBDE810407820FCF7C8BBF6
:104D80003802002090620008191D002010B50D4C5B
:104D90000D492046FFF742FB23683B2B0CD80B4AFA
:104DA0001278012A0BD907480949FFF7DFFCBDE853
:104DB00010407820FCF7ACBB4B232360F3E70A33A9
:104DC0002360F0E73802002090620008191D0020DF
:104DD000F45F000810B50A4C0A492046FFF71EFB95
:104DE000236807480F2B88BF0A3B074988BF236009
:104DF000FFF7BCFCBDE810407820FCF789BB00BF82
:104E00003802002090620008D05F000810B50A4CFC
:104E10000A492046FFF702FB23680748082B88BF92
:104E200003F1FF33054988BF2360FFF79FFCBDE80E
:104E300010407820FCF76CBB38020020906200081C
:104E400008B50F4B1B7853B10E4A1378062B13D0BD
:104E50000C2B11D00E3B012B84BF0D2313700A497C
:104E60000A48FFF7DBFA09480949FFF77FFCBDE86C
:104E700008407820FCF74CBB0C231370EFE700BF11
:104E8000191D0020211F0020906200083802002018
:104E9000F85E000808B50D4B1B783BB10C4B1A7837
:104EA000062A10D00C2A0ED00E221A7009490A4880
:104EB000FFF7B4FA08480949FFF758FCBDE8084075
:104EC0007820FCF725BB0C221A70EFE7191D002093
:104ED000211F0020F85E0008380200201C5F000837
:104EE00010B5074C07492046FFF798FA20460649B7
:104EF000FFF73CFCBDE810407820FCF709BB00BF81
:104F0000380200201C5F0008C862000810B5074C7A
:104F100007492046FFF782FA20460649FFF726FC9C
:104F2000BDE810407820FCF7F3BA00BF380200203B
:104F3000F85E0008C862000838B5074D074C2946DE
:104F40002046FFF76BFA20462946FFF70FFCBDE825
:104F500038407820FCF7DCBA88600008380200206E
:104F600038B5074D074C29462046FFF757FA20462B
:104F70002946FFF7FBFBBDE838407820FCF7C8BAAC
:104F8000A05F00083802002010B5074C07492046F2
:104F9000FFF744FA20460649FFF7E8FBBDE810405A
:104FA0007820FCF7B5BA00BF38020020A05F0008E7
:104FB0005060000838B5074D074C29462046FFF7DA
:104FC0002DFA20462946FFF7D1FBBDE8384078206E
:104FD000FCF79EBA186000083802002008B50448A3
:104FE0000449FFF7C3FBBDE808407820FCF790BAFE
:104FF0003802002090620008044B1A78102A04D866
:10500000034B03EBC2035B6818477047201F002067
:10501000B0010020064B00211B78064A03F0FD0377
:10502000042B08BF0123117008BF1370704700BF25
:10503000201D0020211F0020064B01211B78064A5D
:1050400003F0FD03052B08BF0223117008BF137086
:10505000704700BF201D0020211F00200F22014BA0
:105060001A707047211F00200120FCF751BA00BFC1
:1050700008B52820FCF74CFA094B1B78012B0AD005
:10508000042B03D10222074B1A7008BD082B04BF62
:10509000044A137008BD0622024B1A7008BD00BFF7
:1050A00068020020211F002008B52820FCF730FAF4
:1050B0000C4B1B78032B0BD0012B03D106220A4B80
:1050C0001A7008BD042B07D10222074B1A7008BDC5
:1050D0000422054B1A7008BD082B04BF024A137046
:1050E00008BD00BF68020020211F002008B54FF452
:1050F000C870FCF70DFA034B1A78082A04BF09227E
:105100001A7008BD211F002008B54FF41670FCF777
:10511000FFF9034B1A780A2A04BF0B221A7008BD44
:10512000211F002008B54FF44870FCF7F1F9034B3C
:105130001A780D2A04BF03221A7008BD211F00200F
:1051400008B59620FCF7E4F90322014B1A7008BD5C
:10515000211F002008B54FF44870FCF7D9F90F2241
:10516000014B1A7008BD00BF211F0020042310B599
:105170000F4C01202370FEF72FF84C280FD00D4B59
:105180001B78012B08D0042B02D10223237010BD01
:10519000082B08BF237010BD0623237010BD032009
:1051A000FEF71AF84C28EAD10523237010BD00BF82
:1051B000211F002068020020062310B50F4C01209B
:1051C0002370FEF709F852280FD00D4B1B78032BE4
:1051D00008D0042B02D10223237010BD082B08BF76
:1051E000237010BD0423237010BD0320FDF7F4FFCE
:1051F0005228EAD10723237010BD00BF211F0020D1
:105200006802002002210D4B0D4A1B781170023BF1
:10521000012B0CD90B4B1B78012B05D0032B09D08C
:10522000082B08BF137070470623137070470023C4
:105230001370704704231370704700BF201D0020B7
:10524000211F00206802002003210D4B0D4A1B780E
:105250001170023B012B0DD90B4B1B78012B06D093
:10526000032B0AD0042B04BF0223137070470623BC
:105270001370704700231370704704231370704736
:10528000201D0020211F00206802002010B5114CB5
:10529000C820FCF73DF92378092B00D010BD012070
:1052A000FDF79AFF41280CD00B4B1B78012B05D042
:1052B000032B0CBF04230323237010BD062323708C
:1052C00010BD0320FDF788FF4128EDD10A2323708C
:1052D00010BD00BF211F00206802002008B54FF458
:1052E0007A70FCF715F9094B1A780B2A00D008BD23
:1052F000074A1278012A05D0032A0CBF0422032290
:105300001A7008BD06221A7008BD00BF211F0020B8
:1053100068020020044B1A78102A04D8034B03EBD0
:10532000C2035B6818477047211F00206C020020F1
:1053300008B505490548FFF721F90120FCF7E8F811
:105340000022034B1A7008BD906200087C03002005
:10535000211F00200120FCF7DBB800BF38B5094C45
:10536000094D20462946FFF709F9084B20461B68DE
:1053700029462360FFF7FEFABDE838407820FCF7A5
:10538000C7B800BF7C03002090620008940300208F
:1053900008B504480449FFF7EDFABDE80840782055
:1053A000FCF7B6B87C0300209062000810B50B4CE7
:1053B0000B492046FFF7E2F8236833B1094A127817
:1053C000012A9CBF03F1FF33236004480449FFF71F
:1053D000D1FABDE810407820FCF79AB87C03002091
:1053E00090620008191D002010B50D4C0D49204693
:1053F000FFF7C4F823680F2B0CD90B4A1278012A47
:105400000BD907480949FFF7B5FABDE810407820E5
:10541000FCF77EB805232360F3E70A3B2360F0E73F
:105420007C03002090620008191D0020F45F000832
:1054300010B50A4C0A492046FFF7A0F82368074830
:10544000312B8CBF3C230A3306492360FFF792FAC5
:10545000BDE810407820FCF75BB800BF7C0300205B
:1054600090620008D05F000810B50A4C0A49204637
:10547000FFF784F8236807483B2B98BF01330649A0
:1054800098BF2360FFF776FABDE810407820FCF75C
:105490003FB800BF7C0300209062000808B50F4BA6
:1054A0001B7853B10E4A1378062B13D00C2B11D056
:1054B0000E3B012B84BF0D2313700A490A48FFF7E6
:1054C0005DF809480949FFF755FABDE8084078201A
:1054D000FCF71EB80C231370EFE700BF191D002066
:1054E000201F0020906200087C030020F85E000866
:1054F00008B50D4B1B783BB10C4B1A78062A10D01F
:105500000C2A0ED00E221A7009490A48FFF736F805
:1055100008480949FFF72EFABDE808407820FBF754
:10552000F7BF0C221A70EFE7191D0020201F002082
:10553000F85E00087C0300201C5F000810B5074CD3
:1055400007492046FFF71AF820460649FFF712FAE6
:10555000BDE810407820FBF7DBBF00BF7C030020D4
:105560001C5F0008C862000810B5074C07492046B8
:10557000FFF704F820460649FFF7FCF9BDE81040A4
:105580007820FBF7C5BF00BF7C030020F85E000851
:10559000C862000838B5074D074C29462046FEF77B
:1055A000EDFF20462946FFF7E5F9BDE838407820B1
:1055B000FBF7AEBF886000087C03002038B5074DBC
:1055C000074C29462046FEF7D9FF20462946FFF71B
:1055D000D1F9BDE838407820FBF79ABFA05F0008FA
:1055E0007C03002010B5074C07492046FEF7C6FF94
:1055F00020460649FFF7BEF9BDE810407820FBF7CA
:1056000087BF00BF7C030020A05F00085060000837
:1056100038B5074D074C29462046FEF7AFFF204618
:105620002946FFF7A7F9BDE838407820FBF770BF9F
:10563000186000087C03002008B504480449FFF7FF
:1056400099F9BDE808407820FBF762BF7C03002091
:1056500090620008044B1A78102A04D8034B03EB1D
:10566000C2035B6818477047211F0020F402002026
:105670004FF0060101FB00F10139FDD1704700BF79
:1056800008B5032200210120FBF7E0FF0023064CB0
:105690001A4619462060FCF71DF80120FBF738FF79
:1056A000FDF7B6FDF9E700BF2C1F002008B501206B
:1056B000FBF72EFFFFF72EFEF9E700BF08B5FFF757
:1056C000C9FFFCE708B50120FBF722FFFFF7F4FA5A
:1056D000F9E700BF08B5FFF78FFCFCE708B5FEF758
:1056E000D7FBFCE708B5032200210120FBF7AEFF42
:1056F0000023044C1A4619462060FBF7EBFFFDF728
:10570000D9FFFCE7301F002008B50322002101204B
:10571000FBF79CFF094C2060FEF7CEFBFEF798FDDF
:10572000002320681A461946FBF7D4FF2920FBF70F
:10573000EFFEFDF7EBFDFEF7F7FCF7E7281F002073
:1057400008B5FDF7D5FDFCE780B54E4CAEB0FAF7D5
:10575000FFFCFDF711FCFDF7C9FBFDF767FBFDF74B
:105760008BFB4948FAF7D8FDFDF7AEFB0FCC254679
:1057700055F8046B01AF0DF118080FC70FCDA8E85D
:105780000F002B6804F1180E0DF12C0CC8F8003036
:10579000BEE80F00ACE80F00DEF800303E6004F118
:1057A0002C0E04F1400510AF0DF15409CCF8003077
:1057B0000DF16808BEE80F0004F1540C0FC70FCDBF
:1057C000A9E80F00BCE80F00A8E80F00DEF80060B1
:1057D0002D68DCF800303E6004F1680E04F17C0CAA
:1057E000C9F800501FAF903424AE29ADC8F800307E
:1057F000BEE80F000FC7BCE80F000FC60FCC0FC5E7
:105800002468DCF80030DEF80020002106A83A60A9
:1058100033602C60FBF762FE1C4B0021186001A86E
:10582000FBF75CFE1A4B002118600BA8FBF756FE35
:10583000184B0021186010A8FBF750FE164B0021F2
:10584000186015A8FBF74AFE144B002118601AA82F
:10585000FBF744FE124B002118601FA8FBF73EFE29
:10586000104B0021186024A8FBF738FE0E4B0021D6
:10587000186029A8FBF732FE0C4B1860FBF728FED6
:10588000FEE700BF485C0008641F0020A81F00203E
:10589000AC1F0020BC1F0020C81F0020C41F002018
:1058A000B81F0020C01F0020B01F0020B41F002020
:1058B000114B10B5986982B040F0010098619C6965
:1058C000002204F001040094009CDC690F2144F0E4
:1058D0008054DC61DB696FF0010003F080530193B9
:1058E000019BFAF715FF054A536823F0E06343F084
:1058F0008063536002B010BD001002400000014000
:10590000002330B50268254989B08A42CDE90433C5
:10591000CDE9063322D0224B9A4201D009B030BDE6
:105920000225032403F568439A6904A942F48062BE
:105930009A619A691B4802F480620292029A9A69FB
:1059400042F008029A619B69049503F008030393EF
:10595000039B0594FAF720FF09B030BD012503240D
:1059600003F1804303F504339A6904A942F40072F9
:105970009A619A690C4802F400720092009A9A693E
:1059800042F004029A619B69049503F004030193B9
:10599000019B0594FAF700FF09B030BD00240140D7
:1059A00000280140000C01400008014002680C4B37
:1059B0009A4200D0704700B583B0FAF7F1FF01209A
:1059C000084B0949DA6942F00062DA61DB6903F0E9
:1059D00000630193019B086003B05DF804FB00BF06
:1059E00000280040001002403C04424210B501462D
:1059F00088B000221E20FAF78BFE1E20FAF7BEFEAA
:105A0000154B01A9DA6903A842F00402DA61DB69E7
:105A1000124C03F004030293029BFBF7ABFAFBF773
:105A200089FA40F2E73100220D4BE160A3FB00133D
:105A30000C499B0C013B2046C4E900132261A26083
:105A4000FBF732FC10B1012008B010BD2046FBF777
:105A500079FC08B010BD00BF00100240CC1F002030
:105A600083DE1B4300080040704700BFFEE700BF15
:105A7000FEE700BFFEE700BFFEE700BF704700BFC4
:105A80000148FBF777BC00BFCC1F002030B44FF4B7
:105A90001F054FF000640E4B0E4A19680E4841F086
:105AA0000101196059680A405A601A6822F084722C
:105AB00022F480321A601A6822F480221A605A682E
:105AC00022F4FE025A609D60846030BC704700BFC3
:105AD000001002400000FFF800ED00E0002103E0AC
