:020000040800F2
:1000000000500020B94B0008454B0008494B000840
:100010004D4B0008514B0008554B000800000000F4
:10002000000000000000000000000000512A00084D
:10003000594B000800000000E12A0008252B0008A9
:10004000014C0008014C0008014C0008014C00085C
:10005000014C0008014C0008014C0008014C00084C
:10006000014C0008014C0008014C0008014C00083C
:10007000014C0008014C0008014C0008014C00082C
:10008000014C0008014C0008014C0008014C00081C
:10009000014C0008014C0008014C0008014C00080C
:1000A000014C0008014C0008014C0008014C0008FC
:1000B000014C0008014C00085D4B0008014C000891
:1000C000014C0008014C0008014C0008014C0008DC
:1000D000014C0008014C0008014C0008014C0008CC
:1000E000014C0008014C0008014C00080000000011
:1000F0000000000000000000000000000000000000
:0C01000000000000000000005FF808F1A3
:1001100010B5054C237833B9044B13B10448AFF341
:1001200000800123237010BD4C020020000000005D
:10013000244D000808B5034B1BB103490348AFF336
:10014000008008BD0000000050020020244D00087F
:10015000074A08B51368032043F01003136000F04A
:10016000C5FA002004F0B0FC04F012FC002008BD29
:1001700000200240034A044B11681B780B441360B3
:10018000704700BFC01D002000000020014B186810
:10019000704700BFC01D0020002871D0836A70B571
:1001A0000446002B62D023689A68D00749D4A26A1B
:1001B000D20640D4A26A616822F48852E669A06837
:1001C00022F00202257B42F002023143B0F5807F2B
:1001D000A26241EA4502217D5DD0012800F08780BE
:1001E000012900F093805868494920F4694058601B
:1001F00000209D68294011439960D96A454D21F43A
:1002000070010143D9629B681D40AA423AD0012087
:10021000A36A23F0120343F01003A362E36A0343CB
:10022000E36270BDA36A43F01003A362E36A43F084
:100230000103E362A36AA36A012043F01003A362EF
:1002400070BD9A6822F001029A60FFF79FFF054691
:1002500004E0FFF79BFF401B0228E3D823689A685D
:10026000D107F6D4A26AD206E5D4A3E7C36280F828
:10027000243004F0B5FB23689A68D007E1D496E7F0
:10028000012070470020E062A36A23F0030343F0DB
:100290000103A36270BD01290ED058681C4920F4E7
:1002A000694040F48070586098680140114399603B
:1002B000216901390805A0E70646F5B9A1694D1E77
:1002C00046EA453545F400665D68114925F46945FF
:1002D00035435D609D68B0F5807F01EA050141EA24
:1002E00002019960E4D00128E2D0002085E70129CD
:1002F00008BF4FF48076E0D0CFE7A16A41F020013B
:10030000A162E16A41F00101E162DDE70026D4E784
:10031000FDF7E1FFFE0E1FFF90F82430012B66D0A1
:100320000023012170B5026882B0019393680446EE
:1003300080F82410D80720D4404B41481B689168AE
:10034000A0FB030341F001019B0C91600193019B11
:100350002BB1019B013B0193019B002BF9D1FFF7CE
:1003600015FF064604E0FFF711FF801B022832D874
:100370002268956815F00105F5D0A36A314923F488
:10038000407323F0010343F480738A42A36230D0A8
:10039000A36A23F48013A3625368590535D4A36A72
:1003A000002113F4805318BFE36A84F8241018BFA7
:1003B00023F00603E3626FF002031360936803F413
:1003C0006023B3F5602F27D00020936843F4801397
:1003D000936002B070BD0120A36A84F8245043F0FA
:1003E0001003A362E36A0343E36202B070BD02201C
:1003F0007047154B596811F4702FC9D0A16A41F4A8
:100400008011A1625B685B05C9D5A36A23F44053E0
:1004100043F48053A362C2E70A4B9A4206D00020FD
:10042000936843F4A003936002B070BDA3F58063AA
:100430005B6813F4702FC7D1F1E700BF48020020BA
:1004400083DE1B4300280140002401402DE9F041D8
:100450000446002582B00E460195FFF797FE2368FB
:100460009A68D7056FD45A680746D50519D4DA6A51
:1004700012F4700F15D1701C79D11A689107FCD550
:100480006FF012021A60A26A42F40072A2629B68C4
:1004900003F46023B3F5602F75D0002002B0BDE8EF
:1004A000F081444B0220D3F8008000F005FE226862
:1004B00041491569B8FBF0F00D42134610D1D568DB
:1004C00001F15C410D420BD115693C490D426ED1E1
:1004D000D56801F16E410D4214BF2925142509E0AC
:1004E000156936490D4224D1D56801F16E410D429E
:1004F0001FD1542505FB00F501998D42C0D9731C0D
:100500002BD036B90AE0019B01330193019B9D4238
:100510004AD9FFF73BFEC01B8642F4D200220320DB
:10052000A36A84F8242043F00403A36202B0BDE868
:10053000F081156922490D4217D1D5680D4214BFCB
:10054000FC255425D6E70120A36A84F8245043F003
:100550002003A36202B0BDE8F081019B0133019347
:10056000019B9D42F9D813468AE7FC25C2E71A6829
:10057000920785D4002ED1D0FFF708FEC01BB042F1
:10058000CCD8236877E7237B002B86D1A36A23F49A
:100590008073A362A06A10F480507FF47EAFA36AD8
:1005A00043F00103A36279E72268134668E729252F
:1005B000A0E700BF48020020244992249224491257
:1005C000499224000368D86C704700BF002270B4C1
:1005D00090F8243083B0012B01925FD001234D6845
:1005E0000468062D80F824300A6805EB85034FF077
:1005F0001F0625D90C2D47D8233B256B9E4025EAA5
:10060000060502FA03F32B432363092A8B684FF094
:10061000070602EB420123D91E39E5688E408B4064
:1006200025EA06010B43E360A2F11003012B22D956
:100630000023002280F82420184603B070BC7047C5
:10064000053B656B9E4025EA060502FA03F32B4342
:10065000092A63634FF007068B6802EB4201DBD87F
:1006600025698E408B4025EA06010B432361A2F1E8
:100670001003012BDCD81A4B9C4214D0826A012350
:1006800042F020028262D4E7413BE56A9E4025EABF
:10069000060502FA03F32B43E362B6E7022318468A
:1006A00003B070BC7047A3681B02C1D4A368102AB2
:1006B00043F40003A360BBD10A4B0B4A1B68A2FBA7
:1006C00003239B0C03EB83035B000193019B002B33
:1006D000AED0019B013B0193019B002BF9D1A7E711
:1006E000002401404802002083DE1B434FF6FF0137
:1006F000064A0002D36800F4E0600B4043F0BF6399
:1007000043F400330343D360704700BF00ED00E0C3
:10071000184B30B4DB68C3F30223C3F10705042D83
:1007200003F1040428BF0425062C19D94FF0FF3427
:10073000033B9C4022EA04044FF0FF32AA4021EA26
:10074000020101FA03F2224312010028D2B20ADBAD
:1007500000F1604000F5614080F8002330BC704734
:1007600000242346E8E7044B00F00F0003441A7608
:1007700030BC704700ED00E0FCEC00E0002807DB37
:10078000012300F01F01034A8B40400942F820304A
:10079000704700BF00E100E00A68002A00F0DB803B
:1007A0002DE9F04F4FF0000A85B05546DFF8D0C173
:1007B000DFF8D0E16D4FDFF8D08103E0013532FA88
:1007C00005F378D00123AB4002EA0304A342F5D13C
:1007D0004A68122A00F09E8000F28780022A00F008
:1007E0009D807CD9032A69D0112A02D1CB6803F1FC
:1007F000040AFF2C66D881460368AA000F2606FA71
:1008000002FB23EA0B030AFA02F21343C9F8003091
:100810004A68D30061D5DCF8189025F0030349F04D
:100820000109CCF81890DCF8189003F1804309F026
:100830000109CDF80C9003F5803305F00309DDF8CC
:100840000CB04FEA8909D3F808B006FA09F62BEA8A
:1008500006067045019611D0404563D0444EB04223
:100860007AD0444EB0420CBF4FF0030B4FF0040B54
:10087000019E0BFA09F946EA090601969E603B685B
:10088000D6034CBF2343A3433B607B6896034CBF16
:100890002343A3437B60BB68D6024CBF2343A343DF
:1008A000BB609202FB6815D51C43FC600A680135E9
:1008B00032FA05F386D105B0BDE8F08FFF2C4FF07A
:1008C000000A98D905F18042083A4368920000F185
:1008D000040993E723EA0404FC600A686EE7A2B106
:1008E000012A86D1D1F80CA083E7234EB2420CD066
:1008F00020D9224EB24208D006F58036B24204D04A
:10090000A6F58016B2427FF474AF8A68E2B94FF060
:10091000040A6EE7CB6803F10C0A6AE7CB6803F1BF
:10092000080A66E74FF0010B0BFA09F946EA0906D7
:100930000196A3E7A6F58016B242E6D006F580360A
:10094000B2427FF456AFE0E7012A0CBF0361436176
:100950004FF0080A4DE770474FF0020B019E0BFA6B
:1009600009F946EA0906019688E700BF000401403C
:10097000001001400014014000002110000031105F
:100980000010024000080140000C01408368194239
:1009900014BF01200020704702B9090401617047AB
:1009A0000122014B1A60704720000E42002800F01F
:1009B00055812DE9F041036882B0DD07044635D545
:1009C000A8494A6802F00C02042A00F005814A682E
:1009D00002F00C02082A00F0FB806368B3F5803F48
:1009E00010D0002B00F02081B3F5A02F00F078810B
:1009F0009C4B1A6822F480321A601A6822F4802212
:100A00001A6004E0974A136843F480331360FFF7D9
:100A1000BDFB944D064605E0FFF7B8FB801B64283C
:100A200000F2F5802B689A03F6D523689F074DD412
:100A30001A0722D5A369002B00F0BA8001228A4B45
:100A4000884D1A60FFF7A2FB064605E0FFF79EFB04
:100A5000801B022800F2DB806B6A9B07F6D5834B74
:100A6000834A1B68A2FB03235B0A019300BF019B1F
:100A70005A1E0192002BF9D123685D0769D5794B85
:100A8000DA69D00000F1EC800125DA6942F0805289
:100A9000DA61DB6903F080530093009B754B1A68A1
:100AA000D10540F1A380E368012B37D0002B00F083
:100AB000E780052B6B4B1A6A00F01F8122F00102C0
:100AC0001A621A6A22F004021A622CE0654A51681E
:100AD00011F00C0F61D0516801F00C01082959D0B8
:100AE0002369002B00F0EB800122634B5D4D1A60FF
:100AF000FFF74CFB064605E0FFF748FB801B02288A
:100B000000F285802B689807F6D52B68626923F080
:100B1000F80343EAC2032B60236889E7514A136A4A
:100B200043F001031362FFF731FB4E4E804641F262
:100B3000883705E0FFF72AFBA0EB0800B84266D82B
:100B4000336A9B07F6D525B1464AD36923F0805313
:100B5000D361E069D0B1434D6A6802F00C02082A03
:100B600000F0D38002284FF00001444A00F0DE80FC
:100B70001160FFF70BFB2C46054604E0FFF706FB70
:100B8000401B022843D823689B01F7D4002002B001
:100B9000BDE8F0815268D603A2D4324A12689507A4
:100BA00039D52269012A36D0012002B0BDE8F08192
:100BB0002D4A2C4D1360FFF7E9FA064604E0FFF7D3
:100BC000E5FA801B022822D86B6A9F07F7D453E707
:100BD0004A68D0037FF501AF224A126891037FF57E
:100BE00025AF6268002A7FF421AFDDE71A681E4650
:100BF00042F480721A60FFF7C9FA07463368DA05D3
:100C00003FF551AFFFF7C2FAC01B6428F6D90320A5
:100C100002B0BDE8F081134960690A6822F0F80269
:100C200042EAC0020A6003E703F1804303F504339C
:100C30001A681D4622F480321A601A6822F4802253
:100C40001A60FFF7A3FA064604E0FFF79FFA801B3D
:100C50006428DCD82B689B03F7D4E6E601207047B4
:100C600000251BE700100240800442424802002099
:100C7000D34D6210007000400000424260004242CA
:100C800003F1804303F504331A6A1E4622F0010281
:100C90001A621A6A41F2883822F004021A62FFF7D7
:100CA00075FA074604E0FFF771FAC01B4045AED85D
:100CB000336A9807F7D4002D3FF44BAF44E7344A2A
:100CC000344D1360FFF762FA064604E0FFF75EFA60
:100CD000801B02289BD82B689907F7D42368A7E6C6
:100CE00003F18043A3F53C331A6842F480221A6072
:100CF0001A6842F480321A6089E642F004021A62ED
:100D00001A6A42F001021A620DE701283FF44DAF62
:100D10006B68226A03F4803191427FF445AF606AC8
:100D200003F47013181A18BF01203EE71160FFF793
:100D30002DFA064605E0FFF729FA801B02283FF648
:100D400066AF2B689901F6D4226AB2F5803F05D1CF
:100D50006B68A16823F400330B436B6001250D4BD6
:100D6000606A5968024321F474110B480A435A60BF
:100D700005601C46FFF70AFA054605E0FFF706FA8C
:100D8000401B02283FF643AF23689A01F6D5FDE6E3
:100D900000004242001002406000424278B15D4AC9
:100DA000136803F007038B420BD2136823F0070389
:100DB0000B431360136803F007038B4201D001203B
:100DC00070472DE9F041036886B09D0714D55C0794
:100DD00004D5514C626842F4E06262601A0704D59F
:100DE0004D4C626842F4605262604B4C85686268A8
:100DF00022F0F0022A436260DB0704460D4620D54C
:100E00004268454B012A1B686FD0022A7ED09807A2
:100E100027D5414E41F28838736823F0030313430A
:100E20007360FFF7B3F9074604E0FFF7AFF9C01BA3
:100E3000404569D87368626803F00C03B3EB820F16
:100E4000F3D1344A136803F00703AB420DD913689A
:100E500023F007032B431360136803F00703AB422F
:100E600003D0012006B0BDE8F0812368590706D5FC
:100E70002949E0684A6822F4E06202434A601A079E
:100E800007D5254A2169536823F4605343EAC10317
:100E9000536040F20122214B06ACADF804200FCB89
:100EA00004E90F001C494A6802F00C03082B1AD110
:100EB000C2F38343234413F8100CD30318D4184B04
:100EC00003FB00F3144A174852681749C2F3031290
:100ED000805C164AC3400868136003F0F5FD0020EB
:100EE00006B0BDE8F081124BECE79F0391D4B8E760
:100EF0004A680F4BC2F3404203FB00F3224412F84E
:100F0000142CB3FBF2F3DDE70320ABE79E0180D4A2
:100F1000A7E700BF00200240001002403C4D00083F
:100F200000093D00A05500080400002048020020F0
:100F300000127A00044B05495B68054AC3F302239B
:100F4000CB5C1068D840704700100240B0550008D4
:100F500048020020044B05495B68054AC3F3C223DD
:100F6000CB5C1068D840704700100240B0550008B4
:100F7000480200200F220D4B02605A6810B402F0A4
:100F8000030242605A680A4C02F0F00282605A681A
:100F900002F4E062C2605B68DB0803F4E0630361B3
:100FA000236810BC03F007030B6070470010024079
:100FB000002002402DE9F0410446006882B0C507D8
:100FC0002AD53A4BDA69D1003DD5394B00251A684C
:100FD000D20546D5354960680A6A12F440720FD0CE
:100FE00000F4407393420BD0012700260B6A314A6C
:100FF00023F44070176016600862D80745D4606813
:101000002A4A136A23F44073034313621DB1D36960
:1010100023F08053D3612068830706D5234AA16853
:10102000536823F440430B43536010F0100007D083
:1010300000201E4AE168536823F480030B43536089
:1010400002B0BDE8F081DA69012542F08052DA6130
:10105000DB6903F080530193019B154B1A68D2059D
:10106000B8D41A681E4642F480721A60FFF78EF8F0
:1010700007463368DB05ADD4FFF788F8C01B64284A
:10108000F7D9032002B0BDE8F0810E46FFF77EF8E5
:1010900041F288378046336A9A07B0D4FFF776F872
:1010A000A0EB0800B842F6D9EBE700BF0010024001
:1010B000007000404004424210B5044640F2012254
:1010C00086B0344B0DF1180C022CADF804200FCB78
:1010D0000CE90F0042D0102C1CD0012C02D00020B3
:1010E00006B010BD40F202322B490B6A1A40B2F52D
:1010F000817F4BD003F44073B3F5007F3AD0B3F552
:10110000407FECD10B684FF2244013F4003F08BF3E
:101110000020E5E7204B5968186810F08070DFD098
:1011200006A8C1F38342024412F8100CCA0329D561
:101130005B6806A9C3F340430B44184A13F8143CF8
:10114000B2FBF3F300FB03F0134B5B685B02C7D405
:10115000134B4000A3FB00304008C1E7FFF7FAFE45
:101160000D4B5B68C3F3813301335B00B0FBF3F0DD
:1011700006B010BD4B6A49F6404013F0020F08BF9D
:101180000020ADE7074B03FB00F0DDE74FF4004024
:10119000A6E700BF4C4D00080010024000127A0084
:1011A000ABAAAAAA00093D0000286ED038B5437C3E
:1011B000044603F0FF02002B63D00223226863740D
:1011C000536823F008035360FEF7E0FF054605E08F
:1011D000FEF7DCFF401BB0F57A7F4ED823685B68D2
:1011E0001807F5D5FEF7D2FF054605E0FEF7CEFF5E
:1011F000401BB0F57A7F40D823685A689106F5D530
:101200005968A06841F010015960596821F0070140
:10121000596020B122490A6B22F001020A63204979
:10122000CA6A22F460720243CA626068421C2ED00D
:10123000996885B221F00F0141EA10419960DA689E
:10124000120C12042A43DA605A6822F010025A6023
:10125000FEF79CFF054605E0FEF798FF401BB0F542
:101260007A7F0AD823685B689B06F5D501230020A6
:101270006373E073A373637438BD04230120637444
:1012800038BD027403F000FC97E70120704701208D
:10129000FFF712FF0028F0D023680138C8E700BF2D
:1012A000006C0040704700BF002836D090F83D30F9
:1012B00070B503F0FF0204460BB302232268204EF0
:1012C00084F83D30B2421368A569E068616826D0B1
:1012D000B2F1804F18D0A6F59436B24214D006F57C
:1012E0008066B24210D023F080032B431360D0629B
:1012F000916201230020536184F83D3070BD80F875
:101300003C20FFF7CFFFD8E7A66823F070033343F4
:10131000266923F440733343E5E701207047A6684C
:1013200023F070033343266923F44073334323F0DF
:1013300080032B431360D062916263691363D8E723
:10134000002C01400368DA6842F00102DA609A6812
:1013500002F00702062A03D01A6842F001021A605E
:1013600000207047704700BF704700BF704700BF44
:10137000704700BF036810B51A690446910702D58B
:10138000DA6892075FD41A69500702D5DA68510704
:1013900046D41A69120702D5DA6810072ED41A69E2
:1013A000D20602D5DA68D00618D41A69D10702D558
:1013B000DA68D2075DD41A69100602D5DA68110618
:1013C0005FD41A69520602D5DA68500661D41A69E8
:1013D000910602D5DA68920643D410BD6FF0100171
:1013E00008221961DB69204613F4407F227764D01C
:1013F000FFF7BAFF002223682277D6E76FF00801D3
:1014000004221961DB6920469907227752D1FFF740
:10141000A9FF2046FFF7AAFF002223682277BEE734
:101420006FF00401022219619B69204613F4407F8A
:1014300022773CD1FFF796FF2046FFF797FF002267
:1014400023682277A5E76FF00201012219619B69E9
:1014500002779B0725D0FFF787FF002223682277BA
:1014600091E76FF020022046BDE810401A6100F0BD
:101470002BB86FF0010220461A6101F0ABFD236822
:1014800099E76FF0800220461A6100F01FF8236888
:1014900097E76FF0400220461A61FFF769FF236863
:1014A00095E7FFF75FFF2046FFF760FFD5E7FFF7FF
:1014B0005BFFC4E7FFF758FFAEE7FFF753FF204697
:1014C000FFF754FF96E700BF704700BF704700BFAB
:1014D00008B500F0CFFD002008BD00BF30B5B0F961
:1014E00008400246842C08BF002485B018BF03348E
:1014F00003AD0B4640681168128ACDE9004500F043
:1015000083FC012814BF0020039805B030BD00BF44
:1015100008B5002808BF012000F0DAFF002008BD50
:101520004FF0FF31002200F1080381600260436048
:10153000C0E90333704700BF00230361704700BF59
:10154000436810B49C6802688C609C6801324B60F0
:101550006160996010BC08610260704730B40D682A
:101560006B1C11D000F1080200E01A4653681C6899
:10157000AC42FAD904684B60013499608A605160CA
:101580000861046030BC704702695368F2E700BF2D
:10159000036910B4D0E901215C68916081688442DC
:1015A0004A6008BF596000211A680161013A1A6057
:1015B000186810BC704700BF70B5054601F05AFAB4
:1015C00095F8454064B2002C16DD6B6AA3B105F1B5
:1015D000240605E0013CE3B25CB26BB16B6A5BB11F
:1015E000304601F027F80028F4D0013C01F0BAF8A9
:1015F000E3B25CB2002BF1D1FF2385F8453001F056
:101600005BFA01F037FA95F8444064B2002C16DD1D
:101610002B69A3B105F1100605E0013CE3B25CB211
:101620006BB12B695BB1304601F004F80028F4D0AF
:10163000013C01F097F8E3B25CB2002BF1D1FF233B
:1016400085F84430BDE8704001F036BA40B94FF03B
:10165000500383F31188BFF36F8FBFF34F8FFEE703
:1016600070B506460D4651B101FB00F0483001F05F
:1016700011FB044658B300F14803036005E048201D
:1016800001F008FB044610B32460C4E90F6501F0C3
:10169000F1F9D4E90F32FF25002003FB02F32168A2
:1016A0009A1A0A440B44A063E260C4E9013104F1D0
:1016B000100084F8445084F84550FFF731FF04F1DE
:1016C0002400FFF72DFF01F0F7F9204670BD00243C
:1016D000204670BD2DE9F04F85B00192002800F042
:1016E0002581002900F01581022B0BD1C26B012A44
:1016F00008D04FF0500383F31188BFF36F8FBFF30F
:101700004F8FFEE704461F460E4601F031F80028D1
:1017100040F0FC80019B43B14FF0500383F31188EC
:10172000BFF36F8FBFF34F8FFEE79A4601F0A2F928
:10173000A26BE36B4FF000089A42DFF8B89275D3C2
:10174000022F00F0FC80019D002D00F04E81BAF1C7
:10175000000F02D102A800F0B3FF01F0ADF900F0D4
:1017600079FD01F087F994F84430FF2B08BF84F825
:10177000448094F84530FF2B08BF84F8458001F081
:101780009BF901A902A800F0A7FF002840F02681DC
:1017900001F070F9A26BE36B9A426AD001F08CF908
:1017A00001F068F994F845506DB2002D11DD636ABF
:1017B0007BB104F1240A01E0636A53B1504600F0A2
:1017C00039FF08B100F0CEFF013DEBB25DB2002B56
:1017D000F2D1FF2384F8453001F06EF901F04AF9A7
:1017E00094F844506DB2002D11DD23697BB104F1F2
:1017F000100A01E0236953B1504600F01BFF08B105
:1018000000F0B0FF013DEBB25DB2002BF2D1FF233F
:1018100084F8443001F050F900F0D0FD01F02AF9CD
:10182000A26BE36B4FF0010A9A4289D2226CA56B3E
:10183000002A00F087803146002F40F0BB80A0686E
:1018400003F01EFAA368216C62680B44934205F111
:101850000105A36079D3A5632268636AA260002BA7
:1018600077D004F1240000F0E5FE002840F08280EB
:101870006FE004F1100A01F01FF95046019900F0E1
:1018800089FE01F0F7F894F845506DB2002D11DD96
:10189000636A7BB104F1240B01E0636A53B15846DB
:1018A00000F0C8FE08B100F05DFF013DEBB25DB293
:1018B000002BF2D1FF2384F8453001F0FDF801F050
:1018C000D9F894F844506DB2002D0ADC0CE0504673
:1018D00000F0B0FE08B100F045FF013DEBB25DB293
:1018E00013B12369002BF2D1FF2384F8443001F0B7
:1018F000E3F800F063FD002890D14FF08053C9F861
:101900000030BFF34F8FBFF36F8F87E74FF0000AB0
:101910000CE7026C002A3FF4E7AE4FF0500383F36C
:101920001188BFF36F8FBFF34F8FFEE74FF0500367
:1019300083F31188BFF36F8FBFF34F8FFEE7226CE5
:10194000A56B02BB266801354EB1A563636A002B07
:1019500087D101F0B1F8012005B0BDE8F08F6068D3
:1019600000F06CFFA563636A6660002B7FF479AFBB
:101970000028EED04FF080521E4B1A60BFF34F8FFD
:10198000BFF36F8FE5E73146E06803F079F9236C28
:10199000E2685B4221681A449142E26016D96268AB
:1019A0001344E360022F11D00135A563636A002B55
:1019B000CFD056E7E06803F063F9236CE2685B423E
:1019C00021681A448A42E260ECD2E8E7002DBCD1DB
:1019D0000123A363636A002BBBD042E72046FFF7D5
:1019E000EBFD00F0EBFC0020B6E701F065F82846BF
:1019F000B2E700BF04ED00E02DE9F04385B00191AE
:101A000050B1056C8DB14FF0500383F31188BFF3D3
:101A10006F8FBFF34F8FFEE74FF0500383F31188B2
:101A2000BFF36F8FBFF34F8FFEE7044600F0A0FEB9
:101A300050B9019D45B14FF0500383F31188BFF3B6
:101A40006F8FBFF34F8FFEE701F014F8A36B2E46A4
:101A50000027DFF8B482002B40F0B380019B002BFD
:101A600000F0298116B902A800F02AFE01F024F83E
:101A700000F0F0FB00F0FEFF94F84430FF2B08BFAD
:101A800084F8447094F84530FF2B08BF84F8457003
:101A900001F012F801A902A800F01EFE002844D1AE
:101AA00000F0E8FFA36B002B00F09D8001F004F82C
:101AB00000F0E0FF94F8456076B2002E10DD636A16
:101AC00073B104F12409484600F0B4FD002840F049
:101AD0008780013EF3B25EB213B1636A002BF2D18C
:101AE000FF2384F8453000F0E7FF00F0C3FF94F8CF
:101AF000446076B2002E10DD236973B104F1100941
:101B0000484600F097FD002840F0BF80013EF3B248
:101B10005EB213B12369002BF2D1FF2384F8443065
:101B200000F0CAFF00F04AFC44E000F0A3FF94F884
:101B3000456076B2002E11DD636A7BB104F12409A1
:101B400001E0636A53B1484600F074FD08B100F04B
:101B500009FE013EF3B25EB2002BF2D1FF2384F8FE
:101B6000453000F0A9FF00F085FF94F8446076B29C
:101B7000002E11DD23697BB104F1100901E0236916
:101B800053B1484600F056FD08B100F0EBFD013EB0
:101B9000F3B25EB2002BF2D1FF2384F8443000F0A0
:101BA0008BFF00F00BFC00F065FFA36B002B7BD0DC
:101BB00000F082FF00F05EFFA36B0126002B3FF4D4
:101BC0004DAF2268013BA36312B900F0F1FE6060E3
:101BD0002369002B40F0888000F06EFF012566E04D
:101BE00000F0C0FD75E700F067FF2368002B52D0BE
:101BF00004F124094846019900F0CCFC00F03AFFBA
:101C000094F8456076B2002E04DC11E0013EF3B298
:101C10005EB26BB1636A5BB1484600F00BFD002811
:101C2000F4D0013E00F09EFDF3B25EB2002BF1D184
:101C3000FF2384F8453000F03FFF00F01BFF94F8CD
:101C4000446076B2002E0EDD236963B104F1100901
:101C5000484600F0EFFCD8B9013EF3B25EB213B1D2
:101C60002369002BF4D1FF2384F8443000F024FFD3
:101C700000F0A4FB00289DD14FF08053C8F800303D
:101C8000BFF34F8FBFF36F8F94E700F06BFD3DE71D
:101C900000F068FDE0E700F0EDFE606800F078FD20
:101CA000054600F009FFA3E700F006FF6DB92846DE
:101CB00005B0BDE8F083A5B14FF0500383F3118860
:101CC000BFF36F8FBFF34F8FFEE700F0D3FE616A63
:101CD00019B1236B1968C1F10701606800F00AFEB1
:101CE000002500F0E9FEE2E704F1100000F0A2FC9C
:101CF00000283FF471AF4FF08052034B1A60BFF3DE
:101D00004F8FBFF36F8F67E704ED00E080B54FF0B2
:101D1000805A154D154F164EDFF85880DFF8589051
:101D200014E000F0A7FEFB68DC68201DFFF730FC24
:101D30003368013B33602B68013B2B6000F0BCFE35
:101D4000206B01F03BF8204601F038F82B68002B9F
:101D5000E7D1D8F80030012BF8D9C9F800A0BFF3BB
:101D60004F8FBFF36F8FF1E704030020780300204B
:101D7000000300207402002004ED00E0F8B51B4BC6
:101D80001B4E1C6833680546181D0F46FFF700FC04
:101D900040B9012233681749D86A0B68824023EAA8
:101DA00002030B606B1C17D0336864195C600BD2A4
:101DB000114B186831680431FFF7D0FB0F4B1A68DC
:101DC000A24288BF1C60F8BD0D4B18683168BDE8A1
:101DD000F8400431FFF7C2BB002FE5D03168094855
:101DE0000431BDE8F840FFF7ABBB00BF8C03002017
:101DF00068020020140300206C020020440300202D
:101E000070020020640300202DE9F84F4FEA820A97
:101E1000804650460D4699460B9F00F03BFF002838
:101E200000F008810646542000F034FF04460028E4
:101E300000F0D38006632B78AAF1040A80F83430CE
:101E40002B78564426F0070A002B4DD06B7880F88B
:101E500035306B78002B47D0AB7880F83630AB78D4
:101E6000002B41D0EB7880F83730EB78002B3BD05B
:101E70002B7980F838302B79002B35D06B7980F8AE
:101E800039306B79002B2FD0AB7980F83A30AB79B1
:101E900053B3EB7980F83B30EB792BB32B7A80F896
:101EA0003C302B7A03B36B7A80F83D306B7ADBB130
:101EB000AB7A80F83E30AB7AB3B1EB7A80F83F3042
:101EC000EB7A8BB12B7B80F840302B7B63B16B7B43
:101ED00080F841306B7B3BB1AB7B80F84230AB7B11
:101EE00013B1EB7B80F843300A9D4FF0000B062DB9
:101EF00028BF0625261DE5626564304684F843B098
:101F0000C4F848B0FFF718FBC5F1070504F1180045
:101F1000FFF712FBC4F84CB0A561246184F850B0FF
:101F200064624A464146504600F07EFD206007B19B
:101F30003C6000F09FFD414A414F1368013313603C
:101F40003B68002B3FD0DFF81881E36AD8F8002007
:101F500072B3DFF810910125DFF80CE1DFF80CC156
:101F600005FA03F203EB8303314609EB8300DEF845
:101F70000060DCF8003032432B44CCF80030CEF85F
:101F80000020FFF7DDFA00F097FDD8F80030BBB174
:101F90003A68E36AD26A9A4212D24FF08052294BD1
:101FA0001A60BFF34F8FBFF36F8F2846BDE8F88FDD
:101FB0003A68DFF8B090D26A9A4298BF3C60CAE7AC
:101FC0002846BDE8F88F3C601368012B0CD0E36A0B
:101FD000DFF89090DFF88880BDE7304600F0EEFE35
:101FE0004FF0FF30BDE8F88FDFF878904D4609F1EB
:101FF0008C0828461435FFF793FA4545F9D1DFF8E8
:102000007080114D4046FFF78BFA2846FFF788FA9B
:102010000E48FFF785FA0E48FFF782FA0D48FFF7E2
:102020007FFA0D4B0D4AC3F80080E36A1560DFF8B4
:10203000308090E74FF0FF30B8E700BF000300208A
:102040006802002004ED00E02C0300204C03002077
:1020500078030020640300206C020020700200203E
:1020600060030020740200201403002010030020ED
:10207000180300202DE9F8434FF4007000F00AFE29
:10208000002800F093800646542000F003FE04462A
:10209000002800F0888000255B4B071D4363066322
:1020A00080F8385080F84350C562C0E91155384671
:1020B000FFF742FA04F11800FFF73EFA072306F58E
:1020C000FE7626F007062A46E564A3614F493046AE
:1020D000246184F85050646200F0A6FC4C4B2060F0
:1020E0001C6000F0C7FC4B4BDFF858811A680132C6
:1020F0001A60D8F80020002A4CD0474EE06A3368B6
:10210000002B3ED0454D0123DFF83CE1DFF83CC118
:10211000834000EB8000DCF8002005EB8000DEF857
:10212000005001322B433946CEF80030CCF8002065
:10213000FFF706FA00F0C0FC33686BB1D8F8002056
:10214000E36AD26A9A4207D24FF08052344B1A6047
:10215000BFF34F8FBFF36F8F4FF0500383F311889E
:10216000BFF36F8FBFF34F8F4FF0FF340121002279
:102170002C4B2D48046031601A60BDE8F84300F034
:1021800005BDD8F80030254DDB6A834298BFC8F8FA
:102190000040B8E7C8F800401B68012B0FD0E06A88
:1021A0001E4D1D4EAFE7304600F008FE4FF05003C5
:1021B00083F31188BFF36F8FBFF34F8FFEE7174D87
:1021C0002E4605F18C0930461436FFF7A9F9B145C2
:1021D000F9D1DFF87C90154E4846FFF7A1F930465B
:1021E000FFF79EF91248FFF79BF91248FFF798F99D
:1021F0001148FFF795F9114A114BC2F80090E06AB7
:102200001E60054E7FE700BF49444C450D1D000888
:10221000400300200003002060030020740200201F
:1022200004ED00E08C030020440300202C03002078
:102230004C03002078030020640300206C0200207F
:102240007002002068020020140300201003002008
:1022500018030020024A136801331360704700BF5F
:102260000C0300202DE9F84F494B1B68CBB9494BB3
:102270001E6801361E600EB3DFF838B1DBF80020AF
:102280000025B24228D9444FDFF82C81D8F800301D
:10229000DB6A03EB83039B00FB58022B28BF01255D
:1022A00004E000253D4A1368013313603C4B1B6872
:1022B000002B0CBF28460120BDE8F88F394C23685D
:1022C0001B68002B47D04FF0500383F31188BFF3F6
:1022D0006F8FBFF34F8FFEE7324C2F4FDFF8D88060
:1022E0002DE02268D268D2F80C90D9F8041009F1D8
:1022F000040A8E422CD35046FFF74AF9D9F8281029
:1023000009F1180009B1FFF743F90121264AD9F86C
:102310002C00136801FA00FC00EB8000514607EB2B
:1023200080004CEA030CC2F800C0FFF709F9D8F8A6
:102330000000D9F82C10C26A914228BF01252268FA
:102340001268002ACDD14FF0FF32CBF800209DE774
:10235000CBF800109AE7154B21681868144A2060E2
:10236000196013680133136023681B6833B94FF099
:10237000FF32DFF840B0CBF800207FE72268DFF8BB
:1023800034B0D268D2685268CBF8002076E700BF3C
:102390000C0300208C03002074020020080300209E
:1023A000900300206C020020140300207002002023
:1023B0004803002044030020680200202DE9F84F64
:1023C000384C236843B94FF0500383F31188BFF3AF
:1023D0006F8FBFF34F8FFEE700F04CFB2368013B8C
:1023E000236024687CBB304B1B6863B32F4DDFF840
:1023F000D4A02F4EDFF8D090DFF8D0B0DAF800305C
:102400003BB30127DAF80C30DC6804F1040804F16E
:102410001800FFF7BDF84046FFF7BAF8E06A3268E7
:1024200007FA00F300EB80001343414609EB8000FC
:102430003360FFF785F8DBF80030E26ADB6A9A4226
:10244000DCD32F60DAE7002400F036FB2046BDE83D
:10245000F88F3CB1174B1A681268DAB94FF0FF32A7
:10246000154B1A60154E34683CB10127FFF7FAFE90
:1024700000B12F60013CF9D134602B68002BE2D011
:102480004FF080520E4B1A60BFF34F8FBFF36F8F28
:102490000124D9E71A68084BD268D26852681A60DA
:1024A000E0E700BF0C0300200003002090030020A1
:1024B000140300206C0200204403002008030020C5
:1024C00004ED00E04C0300207402002068020020AC
:1024D00008B598B10E4B196841B14FF0500383F322
:1024E0001188BFF36F8FBFF34F8FFEE71A68013279
:1024F0001A60FFF743FCFFF761FF38B94FF08052D5
:10250000044B1A60BFF34F8FBFF36F8F08BD00BF3E
:102510000C03002004ED00E0194B1B68E3B91949D6
:10252000194A10B40B601368B3FA83F3DBB2C3F13A
:102530001F03164803EB830292008158841879B177
:1025400061680832496802449142616011D0CA68EA
:102550000F4B10BC1A60704701220A4B1A6070477B
:102560004FF0500383F31188BFF36F8FBFF34F8F8A
:10257000FEE7142202FB030349685960E7E700BF46
:102580000C0300209003002014030020740200209C
:102590006802002040B94FF0500383F31188BFF365
:1025A0006F8FBFF34F8FFEE770B51B4D0C46296848
:1025B0001831FEF7D3FF194B1E6828680430FEF768
:1025C000E7FF40B901222B681549D86A0B688240A1
:1025D00023EA02030B60631C0FD02B68A4195C6014
:1025E00012D2104B186829680431FEF7B7FF0E4B62
:1025F0001A68944238BF1C6070BD29680B480431CA
:10260000BDE87040FEF79CBF094B18682968BDE81B
:1026100070400431FEF7A2BF680200208C03002046
:10262000140300206C0200204403002064030020F7
:1026300070020020F8B5C368DC6854B304F11805D3
:102640002846FEF7A5FF184B1B68EBB9261D304640
:10265000FEF79EFF0123154DE26A2F681448934050
:1026600002EB82023B43314600EB82002B60FEF717
:1026700067FF104BE26A1B68DB6A9A4212D901239A
:102680000D4A18461360F8BD29460C48FEF758FF5E
:10269000EFE74FF0500383F31188BFF36F8FBFF361
:1026A0004F8FFEE70020F8BD0C030020140300202C
:1026B0007402002068020020900300204C030020D8
:1026C000034A044B12681B68C0E90023704700BF2F
:1026D000480300208C030020F8B540B3F1B10D464B
:1026E000044600F0C7F9DFF878C02B686768DCF8AB
:1026F0000060591CA6EB070222D018482168D0F8C8
:1027000000E0714501D0B74225D993421AD8002381
:1027100001262B6000F0D0F93046F8BD4FF0500391
:1027200083F31188BFF36F8FBFF34F8FFEE74FF036
:10273000500383F31188BFF36F8FBFF34F8FFEE712
:102740000026E7E70068DCF800109B1A2B600026E3
:10275000C4E90001DEE70126DCE700BF48030020F2
:102760008C0300200122014B1A6070479003002067
:10277000054B1B6833B1054B1B68002B0CBF0220B7
:102780000020704701207047600300200C030020E8
:102790002DE9F0410746C8B1254DC26A2968C96ACA
:1027A0008A4215D28169002904DB2968C96AC1F10E
:1027B000070181611F4E02EB8202796906EB8202FA
:1027C00091420ED001202A68D26AFA62BDE8F081F7
:1027D0002A68406CD36A98422CBF00200120BDE8D3
:1027E000F08107F104084046FEF7D2FE68B9F96AA5
:1027F00001EB81039B00F3583BB901230E4A8B4048
:10280000116821EA0301116000E00B4A01242B68E2
:102810001568D86A4146F86204FA00F300EB8000BC
:1028200006EB80002B431360FEF78AFE2046CDE7BF
:1028300068020020740200201403002068B1F8B57B
:10284000294B1B6883420AD04FF0500383F3118851
:10285000BFF36F8FBFF34F8FFEE7002070479B6C75
:1028600043B94FF0500383F31188BFF36F8FBFF369
:102870004F8FFEE7C16A426C013B9142836400D0F6
:102880000BB10020F8BD071D04463846FEF780FE58
:10289000B8B11648164B01254FF0140C626CD3F8F2
:1028A00000E005FA02F63946C2F1070746EA0E06CD
:1028B0000CFB0200E262A7611E60FEF741FE2846A3
:1028C000F8BD1423E56A094803FB05F3C3580BB1AF
:1028D000074BE0E70122064B02FA05F51A6822EAE7
:1028E00005021A60D7E700BF6802002074020020CA
:1028F00014030020A8B1F8B5846C44B94FF050031C
:1029000083F31188BFF36F8FBFF34F8FFEE7436CE4
:10291000C26A8B4238BF0B469A4201D0012C01D0CB
:10292000F8BD70471F490968814222D0142581698A
:102930001D4E002905FB0262C362A4BFC3F1070359
:10294000836143699342EBD1071D04463846FEF785
:102950001FFEB8B1E06A154B012214241D688240A5
:102960002A43394604FB00601A60BDE8F840FEF7D0
:10297000E7BD4FF0500383F31188BFF36F8FBFF3B0
:102980004F8FFEE70122E06A05FB00F5735902FA5A
:1029900000F10BB1054BDFE7044B1A6822EA010294
:1029A0001A60D9E768020020740200201403002096
:1029B000044B1A681AB119688A6C01328A64186863
:1029C000704700BF6802002000220E4B82B01B68D7
:1029D0000192013308D04FF0500383F31188BFF305
:1029E0006F8FBFF34F8FFEE74FF0500383F31188D3
:1029F000BFF36F8FBFF34F8F019B002BFCD002B052
:102A0000704700BF0800002006480068006880F397
:102A1000088862B661B6BFF34F8FBFF36F8F00DFD8
:102A200000BF000008ED00E010B44FF08074064BCA
:102A300021F0010140F8202C40E9021440F80C3C40
:102A400010BC4038704700BFC929000800000000D2
:102A5000074B19680868B0E8F00F80F30988BFF3E6
:102A60006F8F4FF0000080F311884EF00D0E70470D
:102A7000680200204FF0500383F31188BFF36F8F7B
:102A8000BFF34F8F0A4A13680133012B136000D044
:102A90007047084B1B6813F0FF0FF9D04FF050033D
:102AA00083F31188BFF36F8FBFF34F8FFEE700BF33
:102AB0000800002004ED00E0084A136843B94FF015
:102AC000500383F31188BFF36F8FBFF34F8FFEE77F
:102AD000013B13600BB983F3118870470800002095
:102AE000EFF30980BFF36F8F0D4B1A6820E9F00FE9
:102AF00010602DE908404FF0500080F31188FFF777
:102B00000BFD4FF0000080F31188BDE80840196804
:102B10000868B0E8F00F80F30988BFF36F8F704743
:102B20006802002008B54FF0500383F31188BFF30B
:102B30006F8FBFF34F8FFFF795FB18B14FF08052A7
:102B4000024B1A60002383F3118808BD04ED00E0F6
:102B50000023072110B4084A084C09481360236079
:102B60000368084C0848A4FB03439B09013B03602E
:102B700010BC1160704700BF10E000E018E000E0FA
:102B800048020020D34D621014E000E030B5FF256C
:102B90000724274B83B01A782649D2B201921D70C0
:102BA0001B782548DBB28DF803309DF803309DF883
:102BB000032003F050030B701106046010D50623A8
:102BC00000E00B469DF80320591E5200D2B28DF84A
:102BD00003209DF803201206F3D4032B036008D0D2
:102BE0004FF0500383F31188BFF36F8FBFF34F8F04
:102BF000FEE7002401990E4D1B02104AC9B203F4EE
:102C0000E06303602970136843F470031360136872
:102C100043F070431360FFF79BFF094B1C60FFF705
:102C2000F3FEFFF779FCFFF7CFFE204603B030BD7F
:102C300000E400E0940300209803002020ED00E071
:102C40000800002030B4114B1A68824201D21346AA
:102C5000FAE75C681919884203D141681846214493
:102C60005960446801198A4209D1094909688A42B0
:102C700005D0D2E900512144C0E9005100E00260D2
:102C8000984218BF186030BC704700BFAC1B0020D2
:102C90009C0300202DE9F041414F0446FFF7DAFA8A
:102CA0003A68002A5AD03F4B1E68344250D1002C5B
:102CB0004ED004F1080358071CBF23F00703083364
:102CC000002B45D0DFF8F080D8F800509D423FD36C
:102CD0003548046806E0D4F800C0BCF1000F04D009
:102CE0002046644661689942F5D3944230D0CA1AAE
:102CF0002768102A076010D9E018410708D04FF064
:102D0000500383F31188BFF36F8FBFF34F8FFEE73C
:102D100042606360FFF796FF61680023234A6D1AE3
:102D2000106831438542C4E9003104F1080438BF1A
:102D30001560C8F80050FFF741FB63070BD04FF058
:102D4000500383F31188BFF36F8FBFF34F8FFEE7FC
:102D5000FFF734FB00242046BDE8F081144B00202F
:102D60005D071CBF073323F0070319464FF00045EA
:102D7000104ADFF834C022F00702D31ACCF804005E
:102D8000CCF800103A60C2E90000084FC1E9002306
:102D9000094804492E463B6003600D6085E700BF8B
:102DA0009C030020A01B0020AC1B0020A81B0020BF
:102DB000A0030020981B0020A41B0020D0B1194ABA
:102DC00050F8043C1268134208D14FF0500383F3CB
:102DD0001188BFF36F8FBFF34F8FFEE750F8081CC9
:102DE00049B14FF0500383F31188BFF36F8FBFF3E6
:102DF0004F8FFEE7704710B5044623EA020340F800
:102E0000043CFFF727FA084A54F8043C1168A4F17F
:102E100008000B441360FFF715FFBDE81040FFF7F3
:102E2000CDBA00BFA01B0020A41B002070B5002558
:102E30004FF460224FF48071022301260C4C0D48A0
:102E400084B0C4E900052046A160E2612361CDE9B8
:102E50000155039525752673FDF79EF9072301A9F2
:102E60002046CDE901560393FDF7B0FB04B070BDD9
:102E7000001E00200024014000234FF4807030B574
:102E8000022201254FF460210C4C85B0CDE90133BD
:102E9000039363600A4BA06020462360E1612261D6
:102EA00025732575FDF778F9072301A92046CDE99B
:102EB00001550393FDF78AFB05B030BDD01D0020FE
:102EC0000028014010B44FF0FF344FF48072044BDF
:102ED00004491846C3E9001410BC9A60FEF764B9AF
:102EE000301E00200028004070B5002488B0CDE9D5
:102EF0000444CDE906441C4B1C4D9A69284642F017
:102F000020029A619969224601F0200101910199FC
:102F10009969012641F004019961996901F0040160
:102F200002910299996941F0080199619B69F82120
:102F300003F008030393039BFDF72EFDF822022301
:102F4000284604A9CDE9042607930694FDF724FC3E
:102F50004FF4C07304A90648CDE905460493FDF774
:102F60001BFC08B070BD00BF00100240000801400B
:102F7000000C014010B594B0242200210BA801F0F0
:102F80008AFE0024012310220A210AA8CDE90F237A
:102F90000A910E9305940194CDE90644CDE90844C5
:102FA000CDE902440494FDF701FD0F23214605A855
:102FB0000593CDE90644CDE90844FDF7EFFE032271
:102FC0004FF4007301A80394CDE90123FDF7F2FF4C
:102FD00014B010BD0268034B9A4200D07047FDF751
:102FE000C9B800BF0008004008B54FF48071074819
:102FF000FDF7CCFC10B9064B187008BD4FF480717A
:103000000248FDF7C3FC0128F5D008BD000C0140C3
:103010000C00002008B54FF480710948FDF7B6FC9C
:10302000012809D04FF480710548FDF7AFFC10B9B5
:103030000122044B1A7008BD0222024B1A7008BD0F
:10304000000C01400C00002008B54FF480711548B9
:10305000FDF79CFC012813D04FF480711148FDF757
:1030600095FC00B108BD0A20FEF752FA4FF48071BA
:103070000C48FDF78BFC88B101220B4B1A7008BD80
:103080000A20FEF745FA4FF480710648FDF77EFCF2
:103090000128F1D10222044B1A7008BD024B1870AE
:1030A00008BD00BF000C01400C000020044B1A7842
:1030B000022A04D8034B03EBC2035B68184770472E
:1030C0000C0000201000002008B50748FDF77AFA30
:1030D000064B07491A78074B002A0CBF0822092221
:1030E00008601A7008BD00BF001E00200C00002000
:1030F000B41B00202C00002008B50C48FDF762FA34
:103100000B4B0C4A1B7810605BB16FF4FA6240F60F
:103110000103104498428CBF06200420064B18700F
:1031200008BD0620044B187008BD00BF001E00201B
:103130000C000020B41B00202C00002008B50A4819
:10314000FDF740FA094B0A4A1B78106043B1A0F61C
:10315000D3702C288CBF06220122064B1A7008BDA2
:103160000622044B1A7008BD001E00200C0000202F
:10317000B41B00202C00002008B50C48FDF722FAF3
:103180000B4B0C4A1B7810605BB16FF4FA6240F68F
:103190002E031044984294BF06200320064B18705B
:1031A00008BD0620044B187008BD00BF001E00209B
:1031B0000C000020B41B00202C00002070B50F4D27
:1031C0004FF47A712868FEF717FC012811D100230B
:1031D0000B4C0C49E2790E7861796272E171E27808
:1031E00061786271E17028681A4619466670FEF7C8
:1031F00071FA0122044B1A7070BD00BFCC1D002073
:10320000800000202B0000202C00002070B50F4D06
:103210004FF47A712868FEF7EFFB012811D10023E3
:103220000B4C0C49E2790E7861796272E171E278B7
:1032300061786271E17028681A4619466670FEF777
:1032400049FA0822044B1A7070BD00BFCC1D002043
:1032500080000020280000202C00002070B50F4DB9
:103260004FF47A712868FEF7C7FB012811D10023BB
:103270000B4C0C49E2790E7861796272E171E27867
:1032800061786271E17028681A4619466670FEF727
:1032900021FA0322044B1A7070BD00BFCC1D002020
:1032A00080000020290000202C00002070B50F4D68
:1032B0004FF47A712868FEF79FFB012811D1002393
:1032C0000B4C0C49E2790E7861796272E171E27817
:1032D00061786271E17028681A4619466670FEF7D7
:1032E000F9F90422044B1A7070BD00BFCC1D0020F8
:1032F000800000202A0000202C00002008B508488B
:10330000FDF760F9074B18604B20FEF701F9064AFC
:10331000064B1278002A0CBF082206221A7008BD3C
:10332000001E0020B41B00200C0000202C000020F8
:1033300070B52F48FDF746F92E4D2F4C2B782060A5
:1033400083B3A0F6D3732C2B1AD96FF4FA6C40F622
:103350002E066044B04233D86420FEF7D9F82448E2
:10336000FDF730F92B78206033B16FF4FA6240F644
:1033700001031044984236D90622204B1A7070BDC2
:103380000520FEF7C5F81A48FDF71CF92B782060D8
:10339000002BF1D0A0F6D3702C28EDD80022174BCB
:1033A0001A7070BD0520FEF7B3F81148FDF70AF951
:1033B0002B782060002BDFD10722104B1A7070BDD4
:1033C0000520FEF7A5F80A48FDF7FCF82B782060E9
:1033D000002BD1D06FF4FA610844B042CCD902225C
:1033E000064B1A7070BD0522044B1A7070BD00BFE9
:1033F000001E00200C000020B41B00202C00002028
:1034000070B50E4D06464FF47A712868FEF7F4FA4F
:10341000012800D070BD0023094C2868E179627949
:103420006172E271E17862786171E27035781A4612
:1034300065701946BDE87040FEF74CB9CC1D002000
:103440008000002070B50B4C05464FF47A7120685F
:10345000FEF7D2FA012802D00024204670BD0023D6
:10346000054E2068745D1A461946FEF733F920466A
:1034700070BD00BFCC1D00208000002010B50A20C8
:10348000FEF746F84FF47A710748FCF7DFFF074B69
:103490001A78092A06D8BDE81040054B03EBC20391
:1034A0005B68184710BD00BF001E00202C000020E4
:1034B0003000002008B50348FFF7A2FF0122024BAD
:1034C0001A7008BD8F0000209000002008B5034846
:1034D000FFF796FF0322024B1A7008BD8D000020F3
:1034E0009000002008B50348FFF78AFF0422024B32
:1034F0001A7008BD8E0000209000002008B5034817
:10350000FFF77EFF0822024B1A7008BD8C000020D6
:103510009000002008B50748FDF754F8064B07490E
:103520001A78074B002A0CBF0822092208601A707B
:1035300008BD00BFD01D00200C000020B81B0020DB
:103540009000002008B50A48FDF73CF8094B0A4AEC
:103550001B78106043B140F26C7398428CBF062018
:103560000320064B187008BD0620044B187008BDD8
:10357000D01D00200C000020B81B0020900000206F
:1035800008B50A48FDF71EF8094B0A4A1B78106077
:1035900043B140F62823984294BF06200120064BF1
:1035A000187008BD0620044B187008BDD01D0020FF
:1035B0000C000020B81B00209000002008B50B482C
:1035C000FDF700F80A4B0B4A1B7810604BB1A0F2D4
:1035D0006D70B0F52F7F2CBF06220422064B1A70A7
:1035E00008BD0622044B1A7008BD00BFD01D002084
:1035F0000C000020B81B00209000002008B50848EF
:10360000FCF7E0FF074B18604B20FDF781FF064AEF
:10361000064B1278002A0CBF082206221A7008BD39
:10362000D01D0020B81B00200C00002090000020BE
:1036300070B52948FCF7C6FF284D294C2B7820602F
:1036400043B340F62826B04215D840F26C76B0421B
:103650002ED93220FDF75CFF1F48FCF7B3FF2B7813
:1036600020609BB1A0F26D70B0F52F7F0ED20522C5
:103670001C4B1A7070BD0520FDF74AFF1648FCF779
:10368000A1FF2B7820600BB1B04221D80622154B48
:103690001A7070BD0520FDF73BFF0F48FCF792FF45
:1036A0002B782060002BF1D107220E4B1A7070BDD1
:1036B0006420FDF72DFF0848FCF784FF2B7820607D
:1036C000002BE3D0B042E1D80222064B1A7070BD45
:1036D0000022044B1A7070BDD01D00200C00002089
:1036E000B81B00209000002010B50A200C4CFDF7FC
:1036F0000FFF4FF47A710B48FCF7A8FE2378092BD3
:1037000000D910BD1421084A084600F07DFB22783C
:10371000064BBDE8104003EBC2035B68184700BFCF
:1037200090000020D01D0020800000209400002088
:10373000704700BF002300B587B068460749CDE950
:103740000033CDE90233CDE9043300F08DFD0222D0
:10375000034B1A7007B05DF804FB00BFFC4E000875
:10376000BC1B00200522024B01201A70FDF7D0BEC1
:10377000BC1B002000230A2210B50C4C86B0214649
:103780006846CDE90023CDE90233CDE9043300F0EA
:103790006BFD6420FDF7BCFE2146684600F06CFC22
:1037A0000122034B1A7006B010BD00BF085100087B
:1037B000BC1B002070B500268CB0184D06AC0FCD98
:1037C0000FC495E80300164D84E8030006A81549C8
:1037D000CDE90066CDE90266CDE9046600F044FD5E
:1037E0002B78082B0CD0012B01D00CB070BD06A893
:1037F0000C4900F041FC03220B4B1A700CB070BD59
:1038000068460A4900F038FC064906A800F034FC76
:103810000421054A2B781170E5E700BF5C4D0008D4
:103820002C000020DC4E0008BC1B0020FC4E0008D1
:1038300070B500268CB0184D06AC0FCD0FC495E8BE
:103840000300164D84E8030006A81549CDE900667B
:10385000CDE90266CDE9046600F006FD2B78082B61
:103860000CD0032B01D00CB070BD06A80C4900F0A1
:1038700003FC02220B4B1A700CB070BD084906A85D
:1038800000F0FAFB0849684600F0F6FB0621054AFD
:103890002B781170E5E700BF744D00082C00002064
:1038A000DC4E0008BC1B0020FC4E000808B5084A8E
:1038B00003210A2000F0A8FA064A03210A2000F09A
:1038C000A3FAC820FDF724FE0122034B1A7008BD9D
:1038D000C04E0008D04E0008BC1B0020F0B593B0CD
:1038E0006F46384C06AD0FCC0FC794E8030004F1C7
:1038F000080687E803000FCE0FC596E803002034C2
:1039000085E80300684630490CAD00F0ADFC0FCCF3
:103910000FC594E803002D4B85E803001B78022BAC
:103920003AD0032B23D0012B0CD006A8284900F055
:10393000A3FB6846244900F09FFB0722254B1A7021
:1039400013B0F0BD24490CA800F08EFC4FF4FA70BF
:10395000FDF7DEFD1E4906A800F086FC4FF47A70E4
:10396000FDF7D6FD0CA81C4900F086FBDDE71B49DE
:103970000CA800F079FC4FF4FA70FDF7C9FD14496A
:1039800006A800F071FC4FF47A70FDF7C1FD0CA899
:10399000124900F071FBC8E711490CA800F064FC63
:1039A0004FF4FA70FDF7B4FD094906A800F05CFC7D
:1039B0004FF47A70FDF7ACFD0CA8094900F05CFBF0
:1039C000B3E700BF8C4D0008944E00082C01002086
:1039D000604E0008BC1B0020F4500008E0500008B6
:1039E000E84E0008F0B593B06F46384C06AD0FCCEA
:1039F0000FC794E8030004F1080687E803000FCE20
:103A00000FC596E80300203485E803006846304976
:103A10000CAD00F029FC0FCC0FC594E803002D4B32
:103A200085E803001B78022B3AD0032B23D0012B0F
:103A30000CD006A8284900F01FFB6846244900F076
:103A40001BFB0522254B1A7013B0F0BD24490CA8AE
:103A500000F00AFC4FF4FA70FDF75AFD1E4906A863
:103A600000F002FC4FF47A70FDF752FD0CA81C49DF
:103A700000F002FBDDE71B490CA800F0F5FB4FF45A
:103A8000FA70FDF745FD144906A800F0EDFB4FF470
:103A90007A70FDF73DFD0CA8124900F0EDFAC8E779
:103AA00011490CA800F0E0FB4FF4FA70FDF730FD6F
:103AB000094906A800F0D8FB4FF47A70FDF728FDFD
:103AC0000CA8094900F0D8FAB3E700BF8C4D0008F4
:103AD000944E00082C010020604E0008BC1B002002
:103AE000F4500008E0500008E84E000810B50A2025
:103AF000FDF70EFD054B1A78082A06D8BDE81040E0
:103B0000034B03EBC2035B68184710BDBC1B0020CE
:103B1000E4000020F8B5002280219948FCF73CFF22
:103B20000A2000F029FE012280219548FCF734FF8D
:103B3000002220219248FCF72FFF002240219048CC
:103B4000FCF72AFF082501278D4E15E001221021E0
:103B50003046FCF721FF012000F00EFE0122082173
:103B60003046FCF719FF012000F006FE0022082174
:103B70003046FCF711FF3DB1013D07FA05F212F0A6
:103B80002104E3D12246E2E7012240217C48FCF7F0
:103B900003FF002220217A48FCF7FEFE002240218C
:103BA0007748FCF7F9FE08250127754E15E001223C
:103BB00010213046FCF7F0FE012000F0DDFD01226F
:103BC00008213046FCF7E8FE012000F0D5FD002278
:103BD00008213046FCF7E0FE3DB1013D07FA05F251
:103BE00012F0B004E3D12246E2E70122402164480A
:103BF000FCF7D2FE002220216148FCF7CDFE002216
:103C000040215F48FCF7C8FE082501275C4E15E0FF
:103C1000012210213046FCF7BFFE012000F0ACFD70
:103C2000012208213046FCF7B7FE012000F0A4FD78
:103C3000002208213046FCF7AFFE3DB1013D07FAF6
:103C400005F212F00404E3D12246E2E7012240210A
:103C50004B48FCF7A1FE002220214948FCF79CFEBE
:103C6000002240214648FCF797FE08250127444ED4
:103C700015E0012210213046FCF78EFE012000F0F5
:103C80007BFD012208213046FCF786FE012000F072
:103C900073FD002208213046FCF77EFE3DB1013D58
:103CA00007FA05F212F01404E3D12246E2E70122FA
:103CB00040213348FCF770FE002220213048FCF7F9
:103CC0006BFE002240212E48FCF766FE08250127E6
:103CD0002B4E15E0012210213046FCF75DFE01203D
:103CE00000F04AFD012208213046FCF755FE012074
:103CF00000F042FD002208213046FCF74DFE3DB1A8
:103D0000013D07FA05F212F02004E3D12246E2E772
:103D1000012240211A48FCF73FFE002220211848CA
:103D2000FCF73AFE002240211548FCF735FE082535
:103D30000127134E15E0012210213046FCF72CFE1E
:103D4000012000F019FD012208213046FCF724FE75
:103D5000012000F011FD002208213046FCF71CFE76
:103D60003DB1013D07FA05F212F00C04E3D1224601
:103D7000E2E70122BDE8F84040210148FCF70CBE13
:103D8000000801402DE9F0474FF00108DFF874907A
:103D90001B4E09F5FC7A01222021304619F8017FDB
:103DA000FCF7FAFD002240213046FCF7F5FD08251E
:103DB00015E0012210213046FCF7EEFD012000F055
:103DC000DBFC012208213046FCF7E6FD012000F073
:103DD000D3FC002208213046FCF7DEFD3DB1013D59
:103DE00008FA05F212EA0704E3D12246E2E70122CB
:103DF00040213046FCF7D0FDD145CCD1BDE8F0875D
:103E000000080140BF1B00202DE9F047234D064666
:103E10000C4628684FF47A711746FDF7EDFD01282E
:103E200001D0BDE8F087052C28BF0524552E28BFFA
:103E30005326542101FB0461DFF86C803B78C8F8FD
:103E400000101BB33A4600261548164C0144C0F139
:103E5000060E203B03EB8303E018E35C90F801902F
:103E60004B7090F802C00379C7780E7081F8029009
:103E700081F803C00F714B710EEB010001F8066F62
:103E800012F8013F002BE4D1C8F800000023286895
:103E90001A46BDE8F0471946FDF71CBCC41D0020BA
:103EA000C01B00208C520008B81D00202DE9F047EF
:103EB0004FF4FC720021214800F0EDFE4FF00108A4
:103EC000DFF884901E4E09F5FC7A0122202130464D
:103ED00019F8017FFCF760FD002240213046FCF715
:103EE0005BFD082515E0012210213046FCF754FD4A
:103EF000012000F041FC012208213046FCF74CFD76
:103F0000012000F039FC002208213046FCF744FD76
:103F10003DB1013D08FA05F212EA0704E3D1224659
:103F2000E2E7012240213046FCF736FDD145CCD1F5
:103F30000022044B1A60BDE8F08700BFC01B0020C0
:103F400000080140B81D0020BF1B00202DE9F043F0
:103F5000D0E90036532B28BF532384682F2E9C466C
:103F600028BF2F260B784F780269002C40D0C168FB
:103F700000293DD0A34228BF23468F4228BF0F46C9
:103F800003EB0C05542D06EB070188BFCCF154035D
:103F900030293AD9C6F13007002A37D133B34FF070
:103FA00054084FF0010E3348374403EB0C052F2E15
:103FB000B14628BF4FF02F0909F007040EFA04F4A8
:103FC000E44363464FEAD90908FB09F964B2532B6D
:103FD00094BF09EB030109F15301425C0133224014
:103FE0009D424254F3D10136B742E0D1BDE8F0839F
:103FF000002AC5D041690029C2D01446A34228BF77
:1040000023468F4228BF0F46BAE772B3426962B3B4
:10401000002FEBD0002BE9D04FF054084FF0010EE9
:104020001448374403EB0C052F2EB14628BF4FF040
:104030002F0909F007040EFA04F4E44363464FEA3B
:10404000D90908FB09F964B2532B94BF09EB0301AA
:1040500009F15301425C01332240AB424254F3D197
:104060000136B742E0D1BDE8F083002F96D1BDE81C
:10407000F08300BFC01B002070B50B4C05460E46F8
:10408000206840F6B831FDF7B7FC012800D070BDBC
:1040900031462846FFF75AFF002320681A46BDE83C
:1040A00070401946FDF716BBC41D0020D0E900235F
:1040B000532A28BF53222F2B28BF2F232DE9F04F3F
:1040C000964684684A7885B0029303920B78026919
:1040D00064B1C56855B19C4228BF1C46039EA446E6
:1040E000B5422C4628BF3446019405E0002A40F032
:1040F000B3809C46039C01940CEB0E04542CDDE928
:1041000001452C4488BFCEF1540C302C48D9C5F160
:1041100030040194002A45D1BCF1000F00F09980D1
:104120004FF0000B4F4D029A012002EB0B062F2E91
:1041300028BF2F26542206F0070700FA07F77FB2A0
:10414000F6080BF0070800FA08F802FB06F66FEA1B
:10415000070A4FEADB09002003E08445AC5418D07D
:104160000B780EEB0002532A94BFB21806F15302EB
:104170000C1809FB03439C78AB5614EA080F00F1B6
:10418000010043EA070403EA0A03E6D16045AB54A1
:10419000E6D1019B0BF1010B5B455AD00B78C2E7CE
:1041A000002A52D04269002A4FD0039A0198A3EB0B
:1041B0000C0A121A00284CD0BCF1000F49D002980A
:1041C0000192821A1046274D02928A44019A0124D4
:1041D00086182F2E28BF2F26542006F0070704FA32
:1041E00007F77FB2F60802F0070800FB06F66FEA51
:1041F000070B04FA08F84FEAD209002003E08445CF
:10420000AC5419D00B780EEB0002532A94BFB218AD
:1042100006F153020AEB000409FB03439C78AB56FA
:1042200014EA080F00F1010043EA070403EA0B0354
:10423000E5D18445AB54E5D1019B039A01339A4201
:10424000019306D00B780298C0E7019A002A7FF408
:1042500063AF05B0BDE8F08F4569002D3FF449AF6D
:10426000144638E7C01B002070B50B4C05460E46BF
:10427000206840F6B831FDF7BFFB012800D070BDC3
:1042800031462846FFF712FF002320681A46BDE892
:1042900070401946FDF71EBAC41D0020064B0021D0
:1042A0001B78064A03F0FD03042B08BF012311709D
:1042B00008BF1370704700BFBC1B0020BC1D00204E
:1042C000064B01211B78064A03F0FD03052B08BFAE
:1042D0000223117008BF1370704700BFBC1B002081
:1042E000BC1D00200D22014B1A707047BC1D002020
:1042F0000C22014B1A707047BC1D00200F22014B8D
:104300001A707047BC1D0020042310B50F4C01200B
:104310002370FFF797F852280FD00D4B1B78032B13
:1043200008D0042B02D10223237010BD082B08BF34
:10433000237010BD0623237010BD0320FFF782F801
:104340005228EAD10523237010BD00BFBC1D0020F8
:104350002C000020062310B50F4C01202370FFF71E
:1043600071F84C280FD00D4B1B78012B08D0042B73
:1043700002D10223237010BD082B08BF237010BD8B
:104380000423237010BD0320FFF75CF84C28EAD10A
:104390000723237010BD00BFBC1D00202C0000208F
:1043A00008B52820FDF7B4F8094B1B78032B0AD079
:1043B000042B03D10222074B1A7008BD082B04BF3F
:1043C000044A137008BD0622024B1A7008BD00BFD4
:1043D0002C000020BC1D002008B52820FDF798F80F
:1043E0000C4B1B78012B0BD0032B03D106220A4B5D
:1043F0001A7008BD042B07D10222074B1A7008BDA2
:104400000422054B1A7008BD082B04BF024A137022
:1044100008BD00BF2C000020BC1D0020082310B5E3
:10442000044C4FF4C8702370FDF772F80923237011
:1044300010BD00BFBC1D00200A2310B5044C4FF472
:1044400016702370FDF764F80B23237010BD00BFB6
:10445000BC1D002008B54FF47A70FDF759F8074BE2
:104460001B78032B06D0012B0CBF04220322044B24
:104470001A7008BD0622024B1A7008BD2C000020DD
:10448000BC1D002008B5C820FDF742F80120FEF74A
:10449000D9FF41280ED00C4B1B78032B06D0012BE3
:1044A0000CBF04220322094B1A7008BD0622074BD9
:1044B0001A7008BD0320FEF7C5FF4128EBD10A2280
:1044C000024B1A7008BD00BF2C000020BC1D00204C
:1044D00002210D4B0D4A1B781170023B012B0CD9A8
:1044E0000B4B1B78032B05D0012B09D0082B08BFE1
:1044F00013707047062313707047002313707047C2
:1045000004231370704700BFBC1B0020BC1D00209B
:104510002C00002003210D4B0D4A1B781170023B2B
:10452000012B0DD90B4B1B78032B06D0012B0AD086
:10453000042B04BF022313707047062313707047C7
:10454000002313707047042313707047BC1B0020B6
:10455000BC1D00202C0000200C22014B1A7070475B
:10456000BC1D0020044B1A780F2A04D8034B03EB20
:10457000C2035B6818477047BC1D00203001002053
:104580000120FCF7C5BF00BF01490248FFF76CBE20
:10459000FC5400083002002010B50A4C0A4920469D
:1045A000FFF76AFD23680748452B98BF013306498A
:1045B00098BF2360FFF758FEBDE810407820FCF755
:1045C000A7BF00BF30020020FC54000810B50A4C01
:1045D0000A492046FFF750FD236807483B2B8CBF54
:1045E0004B230A3306492360FFF73EFEBDE8104027
:1045F0007820FCF78DBF00BF30020020FC5400087B
:10460000D854000810B50A4C0A492046FFF734FD7B
:10461000236807480F2B88BF0A3B074988BF2360E0
:10462000FFF722FEBDE810407820FCF771BF00BF05
:1046300030020020FC540008B454000810B5094CA6
:1046400009492046FFF718FD23680BB1013B2360A1
:1046500004480549FFF708FEBDE810407820FCF744
:1046600057BF00BF30020020FC54000810B5074CB3
:1046700007492046FFF700FD20460649FFF7F4FDF5
:10468000BDE810407820FCF743BF00BF3002002097
:10469000FC5400086C54000810B5074C074920462C
:1046A000FFF7EAFC20460649FFF7DEFDBDE81040B3
:1046B0007820FCF72DBF00BF300200206C540008AA
:1046C0009054000810B5074C07492046FFF7D4FC6A
:1046D00020460649FFF7C8FDBDE810407820FCF7EA
:1046E00017BF00BF3002002090540008205500087A
:1046F00010B5074C07492046FFF7BEFC2046064987
:10470000FFF7B2FDBDE810407820FCF701BF00BF05
:10471000300200206C540008205500080120FCF7EE
:10472000F7BE00BF0120FCF7F3BE00BF0120FCF77D
:10473000EFBE00BF0120FCF7EBBE00BF01490248FD
:10474000FFF792BDFC5400083002002001490248E6
:10475000FFF78ABDFC54000830020020044B1A7891
:104760000F2A04D8034B03EBC2035B68184770475A
:10477000BC1D0020B00100204FF0060101FB00F13C
:104780000139FDD1704700BF08B50120FCF7C0FE1C
:10479000FFF7E8FEF9E700BF08B5FFF7A7F9FCE768
:1047A00010B5134884B0FBF7B7FD032200210120A8
:1047B000FCF74CFF00230F4C1A4619462060FCF70B
:1047C00089FF0B4C4FF47A712046FBF73FFE2046E1
:1047D000FBF7F8FE01A90A2280B200F04FFA00218F
:1047E00001AA0846FFF710FBFEF77EFFEAE700BFCD
:1047F000D01D0020C81D002008B503220021012083
:10480000FCF724FF0023044C1A4619462060FCF7ED
:1048100061FFFEF733FEFCE7CC1D002008B5032244
:1048200000210120FCF712FF084C2060FFF772F90D
:10483000FFF73CFB002320681A461946FCF74AFFA5
:104840002920FCF765FEFFF79DFAF9E7C41D00205B
:1048500008B5FEF72BFCFCE708B5FFF77FFFFCE788
:1048600080B5A4B0FBF774FC3F4CFEF783FBFEF76A
:104870003BFBFEF7DBFAFEF7FFFA3C48FBF74CFD8B
:104880003B48FBF749FDFEF71DFB0FCC254655F8CD
:10489000046B0DF1040E0DF1180CAEE80F000FCDF6
:1048A000ACE80F002B6804F118080BAFCCF800300F
:1048B000B8E80F000FC7D8F80030CEF8006004F158
:1048C0002C0904F140053B600DF1400804F1540748
:1048D0000DF1540E0DF1680CB9E80F00A8E80F00B7
:1048E0000FCDAEE80F000FCFACE80F00D9F8006095
:1048F0003B682D6868341FAFCCF80030CEF800500C
:104900000FCCC8F800600FC7236800210BA83B60DC
:10491000FCF7E4FD174B0021186001A8FCF7DEFD51
:10492000154B0021186006A8FCF7D8FD134B002199
:10493000186010A8FCF7D2FD114B0021186015A8D3
:10494000FCF7CCFD0F4B002118601AA8FCF7C6FD40
:104950000D4B002118601FA8FCF7C0FD0B4B186021
:10496000FCF7B6FDFEE700BFD44D0008D01D0020C7
:10497000001E0020441E0020481E00205C1E002057
:10498000501E0020581E0020541E00204C1E0020E7
:10499000114B10B5986982B040F0010098619C6994
:1049A000002204F001040094009CDC690F2144F013
:1049B0008054DC61DB696FF0010003F080530193E8
:1049C000019BFBF7A5FE054A536823F0E06343F023
:1049D0008063536002B010BD00100240000001402F
:1049E000002330B50268254989B08A42CDE90433F5
:1049F000CDE9063322D0224B9A4201D009B030BD16
:104A00000225032403F568439A6904A942F48062ED
:104A10009A619A691B4802F480620292029A9A692A
:104A200042F004029A619B69049503F00403039326
:104A3000039B0594FBF7B0FE09B030BD01250324AC
:104A400003F1804303F504339A6904A942F4007228
:104A50009A619A690B4802F400720092009A9A696E
:104A600042F004029A619B69049503F004030193E8
:104A7000019B0594FBF790FE09B030BD0024014076
:104A8000002801400008014002680C4B9A4200D007
:104A9000704700B583B0FBF783FF0120084B09493D
:104AA000DA6942F00062DA61DB6903F000630193C6
:104AB000019B086003B05DF804FB00BF00280040C4
:104AC000001002403C04424210B5014688B000226A
:104AD0001E20FBF71DFE1E20FBF750FE154B01A903
:104AE000DA6903A842F00402DA61DB69124C03F0D0
:104AF00004030293029BFCF73DFAFCF71BFA40F219
:104B0000E73100220D4BE160A3FB00130C499B0C25
:104B1000013B2046C4E900132261A260FCF7C4FBFC
:104B200010B1012008B010BD2046FCF70BFC08B006
:104B300010BD00BF00100240601E002083DE1B433A
:104B400000080040704700BFFEE700BFFEE700BF5F
:104B5000FEE700BFFEE700BF704700BF0148FCF75B
:104B600009BC00BF601E002030B44FF41F054FF099
:104B700000640E4B0E4A19680E4841F0010119609D
:104B800059680A405A601A6822F0847222F480320E
:104B90001A601A6822F480221A605A6822F4FE020F
:104BA0005A609D60846030BC704700BF00100240B6
:104BB0000000FFF800ED00E0002103E00B4B5B5824
:104BC000435004310A480B4B42189A42F6D30A4A22
:104BD00002E0002342F8043B084B9A42F9D3FFF766
:104BE000C3FF00F00FF8FFF73BFE7047E8550008E1
:104BF000000000204C0200204C020020A01E0020DB
:104C0000FEE7000070B500250C4E0D4CA41BA4104F
:104C1000A54209D100F086F800250A4E0A4CA41BD3
:104C2000A410A54205D170BD56F82530984701352E
:104C3000EEE756F8253098470135F2E7E0550008D1
:104C4000E0550008E0550008E4550008931E222BAB
:104C500010B50C4604D900231C460B70204610BD2D
:104C60000A2A09D1002807DA2D230B7001214042BE
:104C7000214400F019F8F1E70021F9E7FFF7E6BF5A
:104C800010B5431E0A44914200D110BD11F8014BEA
:104C900003F8014FF7E703460244934200D17047FF
:104CA00003F8011BF9E70000F0B58BB005460C4690
:104CB0006E461B4B03F1200C3746186859680833C1
:104CC00003C763453E46F7D118681B7938603B71CE
:104CD000931E222B4FF0000304D923701C4620465C
:104CE0000BB0F0BD661EB5FBF2F002FB10550AAF2B
:104CF0003D4415F8285C591C06F8015F054668B963
:104D0000224660542344191B101B8142E7DD1178B1
:104D1000187802F8010B03F80119F4E70B46E2E7F3
:104D2000B8550008F8B500BFF8BC08BC9E467047EF
:0C4D3000F8B500BFF8BC08BC9E467047F8
:104D3C0002030405060708090A0B0C0D0E0F1010D0
:104D4C0002030405060708090A0B0C0D0E0F1010C0
:104D5C000800000026000000000000000000000019
:104D6C0000000000000000003C00000026000000D5
:104D7C000000000000000000000000000000000027
:104D8C00140000000A0000000000000000000000F9
:104D9C0000000000000000001E00000014000000D5
:104DAC0000000000000000000000000000000000F7
:104DBC0041000000050000000000000000000000A1
:104DCC00000000000000000090550008F9470008A2
:104DDC000000000000000000200000007C550008CE
:104DEC00A147000800000000000000008000000047
:104DFC00705500081D48000800000000000000006D
:104E0C0040000000645500085148000800000000F4
:104E1C0000000000200000005855000899470008C9
:104E2C000000000000000000400000005055000889
:104E3C00894700080000000000000000400000004E
:104E4C00445500085948000800000000000000000C
:104E5C00400000003008FEFE92DEFE6600FEFE32D0
:104E6C003EFECE00FEFEFE007C7EC6DAFAFA700034
:104E7C007EFEC0C0FE7E0000FEFEDADAC000FEFE42
:104E8C003EF8E03E8EFE00002808C0FC7E16FAFEBE
:104E9C008E007CFEC6C2E67E3C0030FECEC0E07EBC
:104EAC001E00F0FE0E1C78F0FE0E00F8FEC6C2E6E8
:104EBC007E3C0000202020202020202020202020AC
:104ECC00200000006767206169206D616E000000A2
:104EDC000808303CFFFFFFFF3C300000081038385A
:104EEC001818F8F8F000383C3E3F3B3938300000D9
:104EFC005030FFFF03030303030383838383830384
:104F0C0003030303030303030303030303838383E5
:104F1C0083838303030303030303030303030303D5
:104F2C0003038303030303030303030303030303C5
:104F3C000303030303030303030303838383830335
:104F4C00FFFFFFFF004020180C0B0908000445630D
:104F5C00584C0A2B09014060607050480925240206
:104F6C0000016030080623311804033F602010084C
:104F7C004623111816110868180C0663594C444244
:104F8C0021211109434040444625351C00000000F6
:104F9C00FFFFFFFF00000000000000000000000009
:104FAC00000000000000000000000000000000C035
:104FBC006070381C8C0C0E86868686868C0C1C3891
:104FCC0070E0800000000000000000000000000005
:104FDC0000000000000000000000000000000000C5
:104FEC00FFFFFFFF000000000000C0C0C060000019
:104FFC00C0C040C0C0000000000000000078CF011D
:10500C00004060602031F1FD3D79C8880C0800003B
:10501C0000011FFE000000000000000000004040E6
:10502C00C0C00000C0C040C0C08000000000000034
:10503C00FFFFFFFF000000000000181F0F00101FF3
:10504C001F07020303000000000000000000030023
:10505C0000004044828381808080808383C6666C9C
:10506C003C180F030000000000000000101C1C1E68
:10507C001B09001E1F0702030301000000000000B3
:10508C00FFFFFFFFC0C0C0C0C0C0C0C0C0C0C0C018
:10509C00C0C0C0C0C0C0C0C0C0C0C0C0C0C0C0C004
:1050AC00C0C0C0C0C0C0C1C1C1C1C1C1C0C0C0C0EE
:1050BC00C0C0C0C0C0C0C0C0C0C0C0C0C0C0C0C0E4
:1050CC00C0C0C0C0C0C0C0C0C0C0C0C0C0C0C0C0D4
:1050DC00FFFF000008100038989898F8F870003816
:1050EC003333333F3F1E00000810003038F8F8F817
:1050FC0000000000003F3F3F000000004030FFFF79
:10510C00FFFF0F0F0F0F0F0F0F0F0F0F0F0F0F0FC3
:10511C000F0F0F0F0F0F0F0F0F0F0F0F0F0F0F0F93
:10512C000F0F0F0F0F0F0F0F0F0F0F0F0F0F0F0F83
:10513C000F0F0F0F0F0F0F0F0F0FFFFFFFFFFFFFD3
:10514C00FFFFF8F0F0E000000000060F0F06000073
:10515C000000000000000000000000000000000043
:10516C000000000000000000000000000000060F1E
:10517C000F0600000000E0F0F0F8FFFFFFFFFFFF5C
:10518C00FFFF00000000070F0F0E30F0F0F0F0F002
:10519C00F0F0F0F0F0F0F0F0F0F0F0F0F0F0F0F003
:1051AC00F0F0F0F0F0F0F0F0F0F0F0F0F0F0F0F0F3
:1051BC00F0300E0F0F0700000000FFFFFFFFFFFF96
:1051CC00FFFFF0F0F0F0F0F0F0F0F0F0F0F0F0F0B5
:1051DC00F0F0F0F0F0F0F0F0F0F0F0F0F0F0F0F0C3
:1051EC00F0F0F0F0F0F0F0F0F0F0F0F0F0F0F0F0B3
:1051FC00F0F0F0F0F0F0F0F0F0F0FFFFFFFF000047
:10520C00000070F080C06030000000C07030F00012
:10521C00000080F0B01090F0600000000000E0F0A2
:10522C009010100080C06030101010F0E00000F002
:10523C00F0101010001010F0F01010100000000012
:10524C00101C0E03031F1800181C070704041F1E54
:10525C0000101F1F11110D0F00000000001810117D
:10526C001B0F06000F1F181010180C0701001F0F42
:10527C000101010000001C1F0100000000000000E3
:10528C00000000000000005F000000070007001491
:10529C007F147F14242A7F2A122313086462364950
:1052AC005522500005030000001C22410000412241
:1052BC001C0014083E081408083E08080050300072
:1052CC0000080808080800606000002010080402AC
:1052DC003E5149453E00427F4000426151494621C2
:1052EC0041454B311814127F1027454545393C4A2E
:1052FC00494930017109050336494949360649497E
:10530C00291E0036360000005636000008142241D3
:10531C00001414141414004122140802015109063B
:10532C00324979413E7E1111117E7F494949363E01
:10533C00414141227F4141221C7F494949417F091A
:10534C000909013E4149497A7F0808087F00417FDD
:10535C0041002040413F017F081422417F404040E2
:10536C00407F020C027F7F0408107F3E4141413E8A
:10537C007F090909063E4151215E7F0919294646DC
:10538C004949493101017F01013F4040403F1F2005
:10539C0040201F3F4038403F6314081463070870D7
:1053AC0008076151494543007F4141000204081040
:1053BC00200041417F000402010204404040404073
:1053CC00000102040020545454787F484444383877
:1053DC0044444420384444487F3854545418087E7C
:1053EC000901020C5252523E7F0804047800447D9D
:1053FC0040002040443D007F1028440000417F4085
:10540C00007C041804787C0804047838444444383C
:10541C007C14141408081414187C7C080404084820
:10542C0054545420043F4440203C4040207C1C20D9
:10543C0040201C3C4030403C44281028440C505028
:10544C00503C4464544C44000836410000007F003A
:10545C0000004136080010080810087846414678CC
:10546C0010102040E0A0A0A0E00000000000000010
:10547C000000788427DC04142F2A54745840407898
:10548C0088700000101088C8FE6AEAAA3E60C060EE
:10549C002030988868380306FF180081E13D050626
:1054AC00020301000000000010108044243FE52599
:1054BC0025FF60E4002424242424CFB084E51423A5
:1054CC00E1CD93A1E0000000010100001010444464
:1054DC000404008044243FE52525FF60E00004001F
:1054EC00E0A090CFE02415E483B1CD0301000000CF
:1054FC00101000000084443F2525253F408080404B
:10550C0080000000E19A44A4252620204854A4429F
:10551C0081000000101000000084443F2525253F29
:10552C004080974097000000E19A44A42526202053
:10553C004854A4428100000050315669657754618B
:10554C00736B000050315461736B00004D656E75C8
:10555C005461736B00000000626F74616F5461736F
:10556C006B00000064656661756C745461736B004C
:10557C00496E746572707265746572325461736BC6
:10558C0000000000496E7465727072657465725427
:10559C0061736B00000000000000000001020304B6
:1055AC000607080900000000010203043031323301
:1055BC003435363738396162636465666768696AA1
:1055CC006B6C6D6E6F707172737475767778797AA7
:0455DC0000000000CB
:0455E0003501000889
:0455E40011010008A9
:1055E8000100000010000000AAAAAAAA01000000F9
:1055F80000000000E92F0008010000004930000801
:105608000200000015300008414C4E520600000010
:1056180000000000BD310008010000003D31000815
:10562800020000005D320008030000007931000824
:1056380004000000F930000805000000AD32000841
:105648000600000031330008070000000D32000892
:1056580008000000C930000809000000FD320008F9
:10566800204E204E204E204E204E2000414C4E52BF
:105678000600000000000000B5340008010000002A
:105688008135000802000000CD3400080300000046
:105698004535000804000000BD350008050000007D
:1056A800E534000806000000313600080700000055
:1056B800FD34000808000000153500080900000046
:1056C800FD350008000000007537000801000000E3
:1056D8003537000802000000B53700080300000055
:1056E8003138000804000000E53900080500000012
:1056F8006537000806000000DD38000807000000D4
:105708003137000808000000AD380008010000002B
:10571800000000009D42000801000000C14200088E
:1057280002000000D14400080300000015450008ED
:10573800040000000943000805000000A143000818
:10574800060000005543000807000000D943000880
:10575800080000001D4400080900000085440008F6
:105768000A000000394400080B00000055440008F6
:105778000C000000F14200080D000000E54200089E
:105788000E000000594500080F000000FD42000807
:10579800000000008145000801000000894500085C
:1057A800020000003D470008030000004D470008C4
:1057B800040000009945000805000000CD450008D8
:1057C800060000003D4600080700000005460008E6
:1057D800080000006D46000809000000F1460008B6
:1057E8000A000000994600080B000000C5460008A2
:1057F8000C0000002D4700080D0000002547000898
:105808000E000000354700080F0000001D47000883
:105818000400000014000000000000000000000068
:0C58280000000000000000000024F4005C
:0400000508004BB9EB
:00000001FF
