:020000040800F2
:1000000000500020B5480008414800084548000855
:10001000494800084D480008514800080000000009
:10002000000000000000000000000000512A00084D
:100030005548000800000000E12A0008252B0008B0
:10004000FD480008FD480008FD480008FD4800087C
:10005000FD480008FD480008FD480008FD4800086C
:10006000FD480008FD480008FD480008FD4800085C
:10007000FD480008FD480008FD480008FD4800084C
:10008000FD480008FD480008FD480008FD4800083C
:10009000FD480008FD480008FD480008FD4800082C
:1000A000FD480008FD480008FD480008FD4800081C
:1000B000FD480008FD48000859480008FD480008B0
:1000C000FD480008FD480008FD480008FD480008FC
:1000D000FD480008FD480008FD480008FD480008EC
:1000E000FD480008FD480008FD4800080000000029
:1000F0000000000000000000000000000000000000
:0C01000000000000000000005FF808F1A3
:1001100010B5054C237833B9044B13B10448AFF341
:1001200000800123237010BDF401002000000000B6
:100130007049000808B5034B1BB103490348AFF3EE
:10014000008008BD00000000F80100207049000890
:10015000074A08B51368032043F01003136000F04A
:10016000C5FA002004F02EFB04F0B4FA002008BD0C
:1001700000200240034A044B11681B780B441360B3
:10018000704700BF6411002000000020014B186878
:10019000704700BF64110020002871D0836A70B5D9
:1001A0000446002B62D023689A68D00749D4A26A1B
:1001B000D20640D4A26A616822F48852E669A06837
:1001C00022F00202257B42F002023143B0F5807F2B
:1001D000A26241EA4502217D5DD0012800F08780BE
:1001E000012900F093805868494920F4694058601B
:1001F00000209D68294011439960D96A454D21F43A
:1002000070010143D9629B681D40AA423AD0012087
:10021000A36A23F0120343F01003A362E36A0343CB
:10022000E36270BDA36A43F01003A362E36A43F084
:100230000103E362A36AA36A012043F01003A362EF
:1002400070BD9A6822F001029A60FFF79FFF054691
:1002500004E0FFF79BFF401B0228E3D823689A685D
:10026000D107F6D4A26AD206E5D4A3E7C36280F828
:10027000243004F057FA23689A68D007E1D496E74F
:10028000012070470020E062A36A23F0030343F0DB
:100290000103A36270BD01290ED058681C4920F4E7
:1002A000694040F48070586098680140114399603B
:1002B000216901390805A0E70646F5B9A1694D1E77
:1002C00046EA453545F400665D68114925F46945FF
:1002D00035435D609D68B0F5807F01EA050141EA24
:1002E00002019960E4D00128E2D0002085E70129CD
:1002F00008BF4FF48076E0D0CFE7A16A41F020013B
:10030000A162E16A41F00101E162DDE70026D4E784
:10031000FDF7E1FFFE0E1FFF90F82430012B66D0A1
:100320000023012170B5026882B0019393680446EE
:1003300080F82410D80720D4404B41481B689168AE
:10034000A0FB030341F001019B0C91600193019B11
:100350002BB1019B013B0193019B002BF9D1FFF7CE
:1003600015FF064604E0FFF711FF801B022832D874
:100370002268956815F00105F5D0A36A314923F488
:10038000407323F0010343F480738A42A36230D0A8
:10039000A36A23F48013A3625368590535D4A36A72
:1003A000002113F4805318BFE36A84F8241018BFA7
:1003B00023F00603E3626FF002031360936803F413
:1003C0006023B3F5602F27D00020936843F4801397
:1003D000936002B070BD0120A36A84F8245043F0FA
:1003E0001003A362E36A0343E36202B070BD02201C
:1003F0007047154B596811F4702FC9D0A16A41F4A8
:100400008011A1625B685B05C9D5A36A23F44053E0
:1004100043F48053A362C2E70A4B9A4206D00020FD
:10042000936843F4A003936002B070BDA3F58063AA
:100430005B6813F4702FC7D1F1E700BFF001002013
:1004400083DE1B4300280140002401402DE9F041D8
:100450000446002582B00E460195FFF797FE2368FB
:100460009A68D7056FD45A680746D50519D4DA6A51
:1004700012F4700F15D1701C79D11A689107FCD550
:100480006FF012021A60A26A42F40072A2629B68C4
:1004900003F46023B3F5602F75D0002002B0BDE8EF
:1004A000F081444B0220D3F8008000F005FE226862
:1004B00041491569B8FBF0F00D42134610D1D568DB
:1004C00001F15C410D420BD115693C490D426ED1E1
:1004D000D56801F16E410D4214BF2925142509E0AC
:1004E000156936490D4224D1D56801F16E410D429E
:1004F0001FD1542505FB00F501998D42C0D9731C0D
:100500002BD036B90AE0019B01330193019B9D4238
:100510004AD9FFF73BFEC01B8642F4D200220320DB
:10052000A36A84F8242043F00403A36202B0BDE868
:10053000F081156922490D4217D1D5680D4214BFCB
:10054000FC255425D6E70120A36A84F8245043F003
:100550002003A36202B0BDE8F081019B0133019347
:10056000019B9D42F9D813468AE7FC25C2E71A6829
:10057000920785D4002ED1D0FFF708FEC01BB042F1
:10058000CCD8236877E7237B002B86D1A36A23F49A
:100590008073A362A06A10F480507FF47EAFA36AD8
:1005A00043F00103A36279E72268134668E729252F
:1005B000A0E700BFF00100202449922492244912B0
:1005C000499224000368D86C704700BF002270B4C1
:1005D00090F8243083B0012B01925FD001234D6845
:1005E0000468062D80F824300A6805EB85034FF077
:1005F0001F0625D90C2D47D8233B256B9E4025EAA5
:10060000060502FA03F32B432363092A8B684FF094
:10061000070602EB420123D91E39E5688E408B4064
:1006200025EA06010B43E360A2F11003012B22D956
:100630000023002280F82420184603B070BC7047C5
:10064000053B656B9E4025EA060502FA03F32B4342
:10065000092A63634FF007068B6802EB4201DBD87F
:1006600025698E408B4025EA06010B432361A2F1E8
:100670001003012BDCD81A4B9C4214D0826A012350
:1006800042F020028262D4E7413BE56A9E4025EABF
:10069000060502FA03F32B43E362B6E7022318468A
:1006A00003B070BC7047A3681B02C1D4A368102AB2
:1006B00043F40003A360BBD10A4B0B4A1B68A2FBA7
:1006C00003239B0C03EB83035B000193019B002B33
:1006D000AED0019B013B0193019B002BF9D1A7E711
:1006E00000240140F001002083DE1B434FF6FF0190
:1006F000064A0002D36800F4E0600B4043F0BF6399
:1007000043F400330343D360704700BF00ED00E0C3
:10071000184B30B4DB68C3F30223C3F10705042D83
:1007200003F1040428BF0425062C19D94FF0FF3427
:10073000033B9C4022EA04044FF0FF32AA4021EA26
:10074000020101FA03F2224312010028D2B20ADBAD
:1007500000F1604000F5614080F8002330BC704734
:1007600000242346E8E7044B00F00F0003441A7608
:1007700030BC704700ED00E0FCEC00E0002807DB37
:10078000012300F01F01034A8B40400942F820304A
:10079000704700BF00E100E00A68002A00F0DB803B
:1007A0002DE9F04F4FF0000A85B05546DFF8D0C173
:1007B000DFF8D0E16D4FDFF8D08103E0013532FA88
:1007C00005F378D00123AB4002EA0304A342F5D13C
:1007D0004A68122A00F09E8000F28780022A00F008
:1007E0009D807CD9032A69D0112A02D1CB6803F1FC
:1007F000040AFF2C66D881460368AA000F2606FA71
:1008000002FB23EA0B030AFA02F21343C9F8003091
:100810004A68D30061D5DCF8189025F0030349F04D
:100820000109CCF81890DCF8189003F1804309F026
:100830000109CDF80C9003F5803305F00309DDF8CC
:100840000CB04FEA8909D3F808B006FA09F62BEA8A
:1008500006067045019611D0404563D0444EB04223
:100860007AD0444EB0420CBF4FF0030B4FF0040B54
:10087000019E0BFA09F946EA090601969E603B685B
:10088000D6034CBF2343A3433B607B6896034CBF16
:100890002343A3437B60BB68D6024CBF2343A343DF
:1008A000BB609202FB6815D51C43FC600A680135E9
:1008B00032FA05F386D105B0BDE8F08FFF2C4FF07A
:1008C000000A98D905F18042083A4368920000F185
:1008D000040993E723EA0404FC600A686EE7A2B106
:1008E000012A86D1D1F80CA083E7234EB2420CD066
:1008F00020D9224EB24208D006F58036B24204D04A
:10090000A6F58016B2427FF474AF8A68E2B94FF060
:10091000040A6EE7CB6803F10C0A6AE7CB6803F1BF
:10092000080A66E74FF0010B0BFA09F946EA0906D7
:100930000196A3E7A6F58016B242E6D006F580360A
:10094000B2427FF456AFE0E7012A0CBF0361436176
:100950004FF0080A4DE770474FF0020B019E0BFA6B
:1009600009F946EA0906019688E700BF000401403C
:10097000001001400014014000002110000031105F
:100980000010024000080140000C01408368194239
:1009900014BF01200020704702B9090401617047AB
:1009A0000122014B1A60704720000E42002800F01F
:1009B00055812DE9F041036882B0DD07044635D545
:1009C000A8494A6802F00C02042A00F005814A682E
:1009D00002F00C02082A00F0FB806368B3F5803F48
:1009E00010D0002B00F02081B3F5A02F00F078810B
:1009F0009C4B1A6822F480321A601A6822F4802212
:100A00001A6004E0974A136843F480331360FFF7D9
:100A1000BDFB944D064605E0FFF7B8FB801B64283C
:100A200000F2F5802B689A03F6D523689F074DD412
:100A30001A0722D5A369002B00F0BA8001228A4B45
:100A4000884D1A60FFF7A2FB064605E0FFF79EFB04
:100A5000801B022800F2DB806B6A9B07F6D5834B74
:100A6000834A1B68A2FB03235B0A019300BF019B1F
:100A70005A1E0192002BF9D123685D0769D5794B85
:100A8000DA69D00000F1EC800125DA6942F0805289
:100A9000DA61DB6903F080530093009B754B1A68A1
:100AA000D10540F1A380E368012B37D0002B00F083
:100AB000E780052B6B4B1A6A00F01F8122F00102C0
:100AC0001A621A6A22F004021A622CE0654A51681E
:100AD00011F00C0F61D0516801F00C01082959D0B8
:100AE0002369002B00F0EB800122634B5D4D1A60FF
:100AF000FFF74CFB064605E0FFF748FB801B02288A
:100B000000F285802B689807F6D52B68626923F080
:100B1000F80343EAC2032B60236889E7514A136A4A
:100B200043F001031362FFF731FB4E4E804641F262
:100B3000883705E0FFF72AFBA0EB0800B84266D82B
:100B4000336A9B07F6D525B1464AD36923F0805313
:100B5000D361E069D0B1434D6A6802F00C02082A03
:100B600000F0D38002284FF00001444A00F0DE80FC
:100B70001160FFF70BFB2C46054604E0FFF706FB70
:100B8000401B022843D823689B01F7D4002002B001
:100B9000BDE8F0815268D603A2D4324A12689507A4
:100BA00039D52269012A36D0012002B0BDE8F08192
:100BB0002D4A2C4D1360FFF7E9FA064604E0FFF7D3
:100BC000E5FA801B022822D86B6A9F07F7D453E707
:100BD0004A68D0037FF501AF224A126891037FF57E
:100BE00025AF6268002A7FF421AFDDE71A681E4650
:100BF00042F480721A60FFF7C9FA07463368DA05D3
:100C00003FF551AFFFF7C2FAC01B6428F6D90320A5
:100C100002B0BDE8F081134960690A6822F0F80269
:100C200042EAC0020A6003E703F1804303F504339C
:100C30001A681D4622F480321A601A6822F4802253
:100C40001A60FFF7A3FA064604E0FFF79FFA801B3D
:100C50006428DCD82B689B03F7D4E6E601207047B4
:100C600000251BE70010024080044242F0010020F2
:100C7000D34D6210007000400000424260004242CA
:100C800003F1804303F504331A6A1E4622F0010281
:100C90001A621A6A41F2883822F004021A62FFF7D7
:100CA00075FA074604E0FFF771FAC01B4045AED85D
:100CB000336A9807F7D4002D3FF44BAF44E7344A2A
:100CC000344D1360FFF762FA064604E0FFF75EFA60
:100CD000801B02289BD82B689907F7D42368A7E6C6
:100CE00003F18043A3F53C331A6842F480221A6072
:100CF0001A6842F480321A6089E642F004021A62ED
:100D00001A6A42F001021A620DE701283FF44DAF62
:100D10006B68226A03F4803191427FF445AF606AC8
:100D200003F47013181A18BF01203EE71160FFF793
:100D30002DFA064605E0FFF729FA801B02283FF648
:100D400066AF2B689901F6D4226AB2F5803F05D1CF
:100D50006B68A16823F400330B436B6001250D4BD6
:100D6000606A5968024321F474110B480A435A60BF
:100D700005601C46FFF70AFA054605E0FFF706FA8C
:100D8000401B02283FF643AF23689A01F6D5FDE6E3
:100D900000004242001002406000424278B15D4AC9
:100DA000136803F007038B420BD2136823F0070389
:100DB0000B431360136803F007038B4201D001203B
:100DC00070472DE9F041036886B09D0714D55C0794
:100DD00004D5514C626842F4E06262601A0704D59F
:100DE0004D4C626842F4605262604B4C85686268A8
:100DF00022F0F0022A436260DB0704460D4620D54C
:100E00004268454B012A1B686FD0022A7ED09807A2
:100E100027D5414E41F28838736823F0030313430A
:100E20007360FFF7B3F9074604E0FFF7AFF9C01BA3
:100E3000404569D87368626803F00C03B3EB820F16
:100E4000F3D1344A136803F00703AB420DD913689A
:100E500023F007032B431360136803F00703AB422F
:100E600003D0012006B0BDE8F0812368590706D5FC
:100E70002949E0684A6822F4E06202434A601A079E
:100E800007D5254A2169536823F4605343EAC10317
:100E9000536040F20122214B06ACADF804200FCB89
:100EA00004E90F001C494A6802F00C03082B1AD110
:100EB000C2F38343234413F8100CD30318D4184B04
:100EC00003FB00F3144A174852681749C2F3031290
:100ED000805C164AC3400868136003F073FC00206E
:100EE00006B0BDE8F081124BECE79F0391D4B8E760
:100EF0004A680F4BC2F3404203FB00F3224412F84E
:100F0000142CB3FBF2F3DDE70320ABE79E0180D4A2
:100F1000A7E700BF002002400010024088490008F7
:100F200000093D00C452000804000020F001002028
:100F300000127A00044B05495B68054AC3F302239B
:100F4000CB5C1068D840704700100240D4520008B3
:100F5000F0010020044B05495B68054AC3F3C22336
:100F6000CB5C1068D840704700100240D452000893
:100F7000F00100200F220D4B02605A6810B402F0FD
:100F8000030242605A680A4C02F0F00282605A681A
:100F900002F4E062C2605B68DB0803F4E0630361B3
:100FA000236810BC03F007030B6070470010024079
:100FB000002002402DE9F0410446006882B0C507D8
:100FC0002AD53A4BDA69D1003DD5394B00251A684C
:100FD000D20546D5354960680A6A12F440720FD0CE
:100FE00000F4407393420BD0012700260B6A314A6C
:100FF00023F44070176016600862D80745D4606813
:101000002A4A136A23F44073034313621DB1D36960
:1010100023F08053D3612068830706D5234AA16853
:10102000536823F440430B43536010F0100007D083
:1010300000201E4AE168536823F480030B43536089
:1010400002B0BDE8F081DA69012542F08052DA6130
:10105000DB6903F080530193019B154B1A68D2059D
:10106000B8D41A681E4642F480721A60FFF78EF8F0
:1010700007463368DB05ADD4FFF788F8C01B64284A
:10108000F7D9032002B0BDE8F0810E46FFF77EF8E5
:1010900041F288378046336A9A07B0D4FFF776F872
:1010A000A0EB0800B842F6D9EBE700BF0010024001
:1010B000007000404004424210B5044640F2012254
:1010C00086B0344B0DF1180C022CADF804200FCB78
:1010D0000CE90F0042D0102C1CD0012C02D00020B3
:1010E00006B010BD40F202322B490B6A1A40B2F52D
:1010F000817F4BD003F44073B3F5007F3AD0B3F552
:10110000407FECD10B684FF2244013F4003F08BF3E
:101110000020E5E7204B5968186810F08070DFD098
:1011200006A8C1F38342024412F8100CCA0329D561
:101130005B6806A9C3F340430B44184A13F8143CF8
:10114000B2FBF3F300FB03F0134B5B685B02C7D405
:10115000134B4000A3FB00304008C1E7FFF7FAFE45
:101160000D4B5B68C3F3813301335B00B0FBF3F0DD
:1011700006B010BD4B6A49F6404013F0020F08BF9D
:101180000020ADE7074B03FB00F0DDE74FF4004024
:10119000A6E700BF984900080010024000127A003C
:1011A000ABAAAAAA00093D0000286ED038B5437C3E
:1011B000044603F0FF02002B63D00223226863740D
:1011C000536823F008035360FEF7E0FF054605E08F
:1011D000FEF7DCFF401BB0F57A7F4ED823685B68D2
:1011E0001807F5D5FEF7D2FF054605E0FEF7CEFF5E
:1011F000401BB0F57A7F40D823685A689106F5D530
:101200005968A06841F010015960596821F0070140
:10121000596020B122490A6B22F001020A63204979
:10122000CA6A22F460720243CA626068421C2ED00D
:10123000996885B221F00F0141EA10419960DA689E
:10124000120C12042A43DA605A6822F010025A6023
:10125000FEF79CFF054605E0FEF798FF401BB0F542
:101260007A7F0AD823685B689B06F5D501230020A6
:101270006373E073A373637438BD04230120637444
:1012800038BD027403F07EFA97E701207047012011
:10129000FFF712FF0028F0D023680138C8E700BF2D
:1012A000006C0040704700BF002836D090F83D30F9
:1012B00070B503F0FF0204460BB302232268204EF0
:1012C00084F83D30B2421368A569E068616826D0B1
:1012D000B2F1804F18D0A6F59436B24214D006F57C
:1012E0008066B24210D023F080032B431360D0629B
:1012F000916201230020536184F83D3070BD80F875
:101300003C20FFF7CFFFD8E7A66823F070033343F4
:10131000266923F440733343E5E701207047A6684C
:1013200023F070033343266923F44073334323F0DF
:1013300080032B431360D062916263691363D8E723
:10134000002C01400368DA6842F00102DA609A6812
:1013500002F00702062A03D01A6842F001021A605E
:1013600000207047704700BF704700BF704700BF44
:10137000704700BF036810B51A690446910702D58B
:10138000DA6892075FD41A69500702D5DA68510704
:1013900046D41A69120702D5DA6810072ED41A69E2
:1013A000D20602D5DA68D00618D41A69D10702D558
:1013B000DA68D2075DD41A69100602D5DA68110618
:1013C0005FD41A69520602D5DA68500661D41A69E8
:1013D000910602D5DA68920643D410BD6FF0100171
:1013E00008221961DB69204613F4407F227764D01C
:1013F000FFF7BAFF002223682277D6E76FF00801D3
:1014000004221961DB6920469907227752D1FFF740
:10141000A9FF2046FFF7AAFF002223682277BEE734
:101420006FF00401022219619B69204613F4407F8A
:1014300022773CD1FFF796FF2046FFF797FF002267
:1014400023682277A5E76FF00201012219619B69E9
:1014500002779B0725D0FFF787FF002223682277BA
:1014600091E76FF020022046BDE810401A6100F0BD
:101470002BB86FF0010220461A6101F085FD236848
:1014800099E76FF0800220461A6100F01FF8236888
:1014900097E76FF0400220461A61FFF769FF236863
:1014A00095E7FFF75FFF2046FFF760FFD5E7FFF7FF
:1014B0005BFFC4E7FFF758FFAEE7FFF753FF204697
:1014C000FFF754FF96E700BF704700BF704700BFAB
:1014D00008B500F0CFFD002008BD00BF30B5B0F961
:1014E00008400246842C08BF002485B018BF03348E
:1014F00003AD0B4640681168128ACDE9004500F043
:1015000083FC012814BF0020039805B030BD00BF44
:1015100008B5002808BF012000F0DAFF002008BD50
:101520004FF0FF31002200F1080381600260436048
:10153000C0E90333704700BF00230361704700BF59
:10154000436810B49C6802688C609C6801324B60F0
:101550006160996010BC08610260704730B40D682A
:101560006B1C11D000F1080200E01A4653681C6899
:10157000AC42FAD904684B60013499608A605160CA
:101580000861046030BC704702695368F2E700BF2D
:10159000036910B4D0E901215C68916081688442DC
:1015A0004A6008BF596000211A680161013A1A6057
:1015B000186810BC704700BF70B5054601F05AFAB4
:1015C00095F8454064B2002C16DD6B6AA3B105F1B5
:1015D000240605E0013CE3B25CB26BB16B6A5BB11F
:1015E000304601F027F80028F4D0013C01F0BAF8A9
:1015F000E3B25CB2002BF1D1FF2385F8453001F056
:101600005BFA01F037FA95F8444064B2002C16DD1D
:101610002B69A3B105F1100605E0013CE3B25CB211
:101620006BB12B695BB1304601F004F80028F4D0AF
:10163000013C01F097F8E3B25CB2002BF1D1FF233B
:1016400085F84430BDE8704001F036BA40B94FF03B
:10165000500383F31188BFF36F8FBFF34F8FFEE703
:1016600070B506460D4651B101FB00F0483001F05F
:1016700011FB044658B300F14803036005E048201D
:1016800001F008FB044610B32460C4E90F6501F0C3
:10169000F1F9D4E90F32FF25002003FB02F32168A2
:1016A0009A1A0A440B44A063E260C4E9013104F1D0
:1016B000100084F8445084F84550FFF731FF04F1DE
:1016C0002400FFF72DFF01F0F7F9204670BD00243C
:1016D000204670BD2DE9F04F85B00192002800F042
:1016E0002581002900F01581022B0BD1C26B012A44
:1016F00008D04FF0500383F31188BFF36F8FBFF30F
:101700004F8FFEE704461F460E4601F031F80028D1
:1017100040F0FC80019B43B14FF0500383F31188EC
:10172000BFF36F8FBFF34F8FFEE79A4601F0A2F928
:10173000A26BE36B4FF000089A42DFF8B89275D3C2
:10174000022F00F0FC80019D002D00F04E81BAF1C7
:10175000000F02D102A800F0B3FF01F0ADF900F0D4
:1017600079FD01F087F994F84430FF2B08BF84F825
:10177000448094F84530FF2B08BF84F8458001F081
:101780009BF901A902A800F0A7FF002840F02681DC
:1017900001F070F9A26BE36B9A426AD001F08CF908
:1017A00001F068F994F845506DB2002D11DD636ABF
:1017B0007BB104F1240A01E0636A53B1504600F0A2
:1017C00039FF08B100F0CEFF013DEBB25DB2002B56
:1017D000F2D1FF2384F8453001F06EF901F04AF9A7
:1017E00094F844506DB2002D11DD23697BB104F1F2
:1017F000100A01E0236953B1504600F01BFF08B105
:1018000000F0B0FF013DEBB25DB2002BF2D1FF233F
:1018100084F8443001F050F900F0D0FD01F02AF9CD
:10182000A26BE36B4FF0010A9A4289D2226CA56B3E
:10183000002A00F087803146002F40F0BB80A0686E
:1018400003F082F8A368216C62680B44934205F1AF
:101850000105A36079D3A5632268636AA260002BA7
:1018600077D004F1240000F0E5FE002840F08280EB
:101870006FE004F1100A01F01FF95046019900F0E1
:1018800089FE01F0F7F894F845506DB2002D11DD96
:10189000636A7BB104F1240B01E0636A53B15846DB
:1018A00000F0C8FE08B100F05DFF013DEBB25DB293
:1018B000002BF2D1FF2384F8453001F0FDF801F050
:1018C000D9F894F844506DB2002D0ADC0CE0504673
:1018D00000F0B0FE08B100F045FF013DEBB25DB293
:1018E00013B12369002BF2D1FF2384F8443001F0B7
:1018F000E3F800F063FD002890D14FF08053C9F861
:101900000030BFF34F8FBFF36F8F87E74FF0000AB0
:101910000CE7026C002A3FF4E7AE4FF0500383F36C
:101920001188BFF36F8FBFF34F8FFEE74FF0500367
:1019300083F31188BFF36F8FBFF34F8FFEE7226CE5
:10194000A56B02BB266801354EB1A563636A002B07
:1019500087D101F0B1F8012005B0BDE8F08F6068D3
:1019600000F06CFFA563636A6660002B7FF479AFBB
:101970000028EED04FF080521E4B1A60BFF34F8FFD
:10198000BFF36F8FE5E73146E06802F0DDFF236CBF
:10199000E2685B4221681A449142E26016D96268AB
:1019A0001344E360022F11D00135A563636A002B55
:1019B000CFD056E7E06802F0C7FF236CE2685B42D5
:1019C00021681A448A42E260ECD2E8E7002DBCD1DB
:1019D0000123A363636A002BBBD042E72046FFF7D5
:1019E000EBFD00F0EBFC0020B6E701F065F82846BF
:1019F000B2E700BF04ED00E02DE9F04385B00191AE
:101A000050B1056C8DB14FF0500383F31188BFF3D3
:101A10006F8FBFF34F8FFEE74FF0500383F31188B2
:101A2000BFF36F8FBFF34F8FFEE7044600F0A0FEB9
:101A300050B9019D45B14FF0500383F31188BFF3B6
:101A40006F8FBFF34F8FFEE701F014F8A36B2E46A4
:101A50000027DFF8B482002B40F0B380019B002BFD
:101A600000F0298116B902A800F02AFE01F024F83E
:101A700000F0F0FB00F0FEFF94F84430FF2B08BFAD
:101A800084F8447094F84530FF2B08BF84F8457003
:101A900001F012F801A902A800F01EFE002844D1AE
:101AA00000F0E8FFA36B002B00F09D8001F004F82C
:101AB00000F0E0FF94F8456076B2002E10DD636A16
:101AC00073B104F12409484600F0B4FD002840F049
:101AD0008780013EF3B25EB213B1636A002BF2D18C
:101AE000FF2384F8453000F0E7FF00F0C3FF94F8CF
:101AF000446076B2002E10DD236973B104F1100941
:101B0000484600F097FD002840F0BF80013EF3B248
:101B10005EB213B12369002BF2D1FF2384F8443065
:101B200000F0CAFF00F04AFC44E000F0A3FF94F884
:101B3000456076B2002E11DD636A7BB104F12409A1
:101B400001E0636A53B1484600F074FD08B100F04B
:101B500009FE013EF3B25EB2002BF2D1FF2384F8FE
:101B6000453000F0A9FF00F085FF94F8446076B29C
:101B7000002E11DD23697BB104F1100901E0236916
:101B800053B1484600F056FD08B100F0EBFD013EB0
:101B9000F3B25EB2002BF2D1FF2384F8443000F0A0
:101BA0008BFF00F00BFC00F065FFA36B002B7BD0DC
:101BB00000F082FF00F05EFFA36B0126002B3FF4D4
:101BC0004DAF2268013BA36312B900F0F1FE6060E3
:101BD0002369002B40F0888000F06EFF012566E04D
:101BE00000F0C0FD75E700F067FF2368002B52D0BE
:101BF00004F124094846019900F0CCFC00F03AFFBA
:101C000094F8456076B2002E04DC11E0013EF3B298
:101C10005EB26BB1636A5BB1484600F00BFD002811
:101C2000F4D0013E00F09EFDF3B25EB2002BF1D184
:101C3000FF2384F8453000F03FFF00F01BFF94F8CD
:101C4000446076B2002E0EDD236963B104F1100901
:101C5000484600F0EFFCD8B9013EF3B25EB213B1D2
:101C60002369002BF4D1FF2384F8443000F024FFD3
:101C700000F0A4FB00289DD14FF08053C8F800303D
:101C8000BFF34F8FBFF36F8F94E700F06BFD3DE71D
:101C900000F068FDE0E700F0EDFE606800F078FD20
:101CA000054600F009FFA3E700F006FF6DB92846DE
:101CB00005B0BDE8F083A5B14FF0500383F3118860
:101CC000BFF36F8FBFF34F8FFEE700F0D3FE616A63
:101CD00019B1236B1968C1F10701606800F00AFEB1
:101CE000002500F0E9FEE2E704F1100000F0A2FC9C
:101CF00000283FF471AF4FF08052034B1A60BFF3DE
:101D00004F8FBFF36F8F67E704ED00E080B54FF0B2
:101D1000805A154D154F164EDFF85880DFF8589051
:101D200014E000F0A7FEFB68DC68201DFFF730FC24
:101D30003368013B33602B68013B2B6000F0BCFE35
:101D4000206B01F03BF8204601F038F82B68002B9F
:101D5000E7D1D8F80030012BF8D9C9F800A0BFF3BB
:101D60004F8FBFF36F8FF1E7AC02002020030020FC
:101D7000A80200201C02002004ED00E0F8B51B4B77
:101D80001B4E1C6833680546181D0F46FFF700FC04
:101D900040B9012233681749D86A0B68824023EAA8
:101DA00002030B606B1C17D0336864195C600BD2A4
:101DB000114B186831680431FFF7D0FB0F4B1A68DC
:101DC000A24288BF1C60F8BD0D4B18683168BDE8A1
:101DD000F8400431FFF7C2BB002FE5D03168094855
:101DE0000431BDE8F840FFF7ABBB00BF340300206F
:101DF00010020020BC02002014020020EC0200208F
:101E0000180200200C0300202DE9F84F4FEA820A47
:101E1000804650460D4699460B9F00F03BFF002838
:101E200000F008810646542000F034FF04460028E4
:101E300000F0D38006632B78AAF1040A80F83430CE
:101E40002B78564426F0070A002B4DD06B7880F88B
:101E500035306B78002B47D0AB7880F83630AB78D4
:101E6000002B41D0EB7880F83730EB78002B3BD05B
:101E70002B7980F838302B79002B35D06B7980F8AE
:101E800039306B79002B2FD0AB7980F83A30AB79B1
:101E900053B3EB7980F83B30EB792BB32B7A80F896
:101EA0003C302B7A03B36B7A80F83D306B7ADBB130
:101EB000AB7A80F83E30AB7AB3B1EB7A80F83F3042
:101EC000EB7A8BB12B7B80F840302B7B63B16B7B43
:101ED00080F841306B7B3BB1AB7B80F84230AB7B11
:101EE00013B1EB7B80F843300A9D4FF0000B062DB9
:101EF00028BF0625261DE5626564304684F843B098
:101F0000C4F848B0FFF718FBC5F1070504F1180045
:101F1000FFF712FBC4F84CB0A561246184F850B0FF
:101F200064624A464146504600F07EFD206007B19B
:101F30003C6000F09FFD414A414F1368013313603C
:101F40003B68002B3FD0DFF81881E36AD8F8002007
:101F500072B3DFF810910125DFF80CE1DFF80CC156
:101F600005FA03F203EB8303314609EB8300DEF845
:101F70000060DCF8003032432B44CCF80030CEF85F
:101F80000020FFF7DDFA00F097FDD8F80030BBB174
:101F90003A68E36AD26A9A4212D24FF08052294BD1
:101FA0001A60BFF34F8FBFF36F8F2846BDE8F88FDD
:101FB0003A68DFF8B090D26A9A4298BF3C60CAE7AC
:101FC0002846BDE8F88F3C601368012B0CD0E36A0B
:101FD000DFF89090DFF88880BDE7304600F0EEFE35
:101FE0004FF0FF30BDE8F88FDFF878904D4609F1EB
:101FF0008C0828461435FFF793FA4545F9D1DFF8E8
:102000007080114D4046FFF78BFA2846FFF788FA9B
:102010000E48FFF785FA0E48FFF782FA0D48FFF7E2
:102020007FFA0D4B0D4AC3F80080E36A1560DFF8B4
:10203000308090E74FF0FF30B8E700BFA8020020E3
:102040001002002004ED00E0D4020020F402002081
:10205000200300200C03002014020020180200209E
:10206000080300201C020020BC020020B80200204F
:10207000C00200202DE9F8434FF4007000F00AFE82
:10208000002800F093800646542000F003FE04462A
:10209000002800F0888000255B4B071D4363066322
:1020A00080F8385080F84350C562C0E91155384671
:1020B000FFF742FA04F11800FFF73EFA072306F58E
:1020C000FE7626F007062A46E564A3614F493046AE
:1020D000246184F85050646200F0A6FC4C4B2060F0
:1020E0001C6000F0C7FC4B4BDFF858811A680132C6
:1020F0001A60D8F80020002A4CD0474EE06A3368B6
:10210000002B3ED0454D0123DFF83CE1DFF83CC118
:10211000834000EB8000DCF8002005EB8000DEF857
:10212000005001322B433946CEF80030CCF8002065
:10213000FFF706FA00F0C0FC33686BB1D8F8002056
:10214000E36AD26A9A4207D24FF08052344B1A6047
:10215000BFF34F8FBFF36F8F4FF0500383F311889E
:10216000BFF36F8FBFF34F8F4FF0FF340121002279
:102170002C4B2D48046031601A60BDE8F84300F034
:1021800005BDD8F80030254DDB6A834298BFC8F8FA
:102190000040B8E7C8F800401B68012B0FD0E06A88
:1021A0001E4D1D4EAFE7304600F008FE4FF05003C5
:1021B00083F31188BFF36F8FBFF34F8FFEE7174D87
:1021C0002E4605F18C0930461436FFF7A9F9B145C2
:1021D000F9D1DFF87C90154E4846FFF7A1F930465B
:1021E000FFF79EF91248FFF79BF91248FFF798F99D
:1021F0001148FFF795F9114A114BC2F80090E06AB7
:102200001E60054E7FE700BF49444C450D1D000888
:10221000E8020020A8020020080300201C02002081
:1022200004ED00E034030020EC020020D402002082
:10223000F4020020200300200C03002014020020E0
:102240001802002010020020BC020020B80200206A
:10225000C0020020024A136801331360704700BFB8
:10226000B40200202DE9F84F494B1B68CBB9494B0C
:102270001E6801361E600EB3DFF838B1DBF80020AF
:102280000025B24228D9444FDFF82C81D8F800301D
:10229000DB6A03EB83039B00FB58022B28BF01255D
:1022A00004E000253D4A1368013313603C4B1B6872
:1022B000002B0CBF28460120BDE8F88F394C23685D
:1022C0001B68002B47D04FF0500383F31188BFF3F6
:1022D0006F8FBFF34F8FFEE7324C2F4FDFF8D88060
:1022E0002DE02268D268D2F80C90D9F8041009F1D8
:1022F000040A8E422CD35046FFF74AF9D9F8281029
:1023000009F1180009B1FFF743F90121264AD9F86C
:102310002C00136801FA00FC00EB8000514607EB2B
:1023200080004CEA030CC2F800C0FFF709F9D8F8A6
:102330000000D9F82C10C26A914228BF01252268FA
:102340001268002ACDD14FF0FF32CBF800209DE774
:10235000CBF800109AE7154B21681868144A2060E2
:10236000196013680133136023681B6833B94FF099
:10237000FF32DFF840B0CBF800207FE72268DFF8BB
:1023800034B0D268D2685268CBF8002076E700BF3C
:10239000B4020020340300201C020020B002002000
:1023A0003803002014020020BC0200201802002084
:1023B000F0020020EC020020100200202DE9F84F6E
:1023C000384C236843B94FF0500383F31188BFF3AF
:1023D0006F8FBFF34F8FFEE700F04CFB2368013B8C
:1023E000236024687CBB304B1B6863B32F4DDFF840
:1023F000D4A02F4EDFF8D090DFF8D0B0DAF800305C
:102400003BB30127DAF80C30DC6804F1040804F16E
:102410001800FFF7BDF84046FFF7BAF8E06A3268E7
:1024200007FA00F300EB80001343414609EB8000FC
:102430003360FFF785F8DBF80030E26ADB6A9A4226
:10244000DCD32F60DAE7002400F036FB2046BDE83D
:10245000F88F3CB1174B1A681268DAB94FF0FF32A7
:10246000154B1A60154E34683CB10127FFF7FAFE90
:1024700000B12F60013CF9D134602B68002BE2D011
:102480004FF080520E4B1A60BFF34F8FBFF36F8F28
:102490000124D9E71A68084BD268D26852681A60DA
:1024A000E0E700BFB4020020A802002038030020AB
:1024B000BC02002014020020EC020020B002002028
:1024C00004ED00E0F40200201C02002010020020B5
:1024D00008B598B10E4B196841B14FF0500383F322
:1024E0001188BFF36F8FBFF34F8FFEE71A68013279
:1024F0001A60FFF743FCFFF761FF38B94FF08052D5
:10250000044B1A60BFF34F8FBFF36F8F08BD00BF3E
:10251000B402002004ED00E0194B1B68E3B919492F
:10252000194A10B40B601368B3FA83F3DBB2C3F13A
:102530001F03164803EB830292008158841879B177
:1025400061680832496802449142616011D0CA68EA
:102550000F4B10BC1A60704701220A4B1A6070477B
:102560004FF0500383F31188BFF36F8FBFF34F8F8A
:10257000FEE7142202FB030349685960E7E700BF46
:10258000B402002038030020BC0200201C020020FE
:102590001002002040B94FF0500383F31188BFF3BD
:1025A0006F8FBFF34F8FFEE770B51B4D0C46296848
:1025B0001831FEF7D3FF194B1E6828680430FEF768
:1025C000E7FF40B901222B681549D86A0B688240A1
:1025D00023EA02030B60631C0FD02B68A4195C6014
:1025E00012D2104B186829680431FEF7B7FF0E4B62
:1025F0001A68944238BF1C6070BD29680B480431CA
:10260000BDE87040FEF79CBF094B18682968BDE81B
:1026100070400431FEF7A2BF1002002034030020F6
:10262000BC02002014020020EC0200200C03002059
:1026300018020020F8B5C368DC6854B304F118052B
:102640002846FEF7A5FF184B1B68EBB9261D304640
:10265000FEF79EFF0123154DE26A2F681448934050
:1026600002EB82023B43314600EB82002B60FEF717
:1026700067FF104BE26A1B68DB6A9A4212D901239A
:102680000D4A18461360F8BD29460C48FEF758FF5E
:10269000EFE74FF0500383F31188BFF36F8FBFF361
:1026A0004F8FFEE70020F8BDB4020020BC020020DE
:1026B0001C0200201002002038030020F402002039
:1026C000034A044B12681B68C0E90023704700BF2F
:1026D000F002002034030020F8B540B3F1B10D46FC
:1026E000044600F0C7F9DFF878C02B686768DCF8AB
:1026F0000060591CA6EB070222D018482168D0F8C8
:1027000000E0714501D0B74225D993421AD8002381
:1027100001262B6000F0D0F93046F8BD4FF0500391
:1027200083F31188BFF36F8FBFF34F8FFEE74FF036
:10273000500383F31188BFF36F8FBFF34F8FFEE712
:102740000026E7E70068DCF800109B1A2B600026E3
:10275000C4E90001DEE70126DCE700BFF00200204B
:10276000340300200122014B1A6070473803002017
:10277000054B1B6833B1054B1B68002B0CBF0220B7
:10278000002070470120704708030020B402002099
:102790002DE9F0410746C8B1254DC26A2968C96ACA
:1027A0008A4215D28169002904DB2968C96AC1F10E
:1027B000070181611F4E02EB8202796906EB8202FA
:1027C00091420ED001202A68D26AFA62BDE8F081F7
:1027D0002A68406CD36A98422CBF00200120BDE8D3
:1027E000F08107F104084046FEF7D2FE68B9F96AA5
:1027F00001EB81039B00F3583BB901230E4A8B4048
:10280000116821EA0301116000E00B4A01242B68E2
:102810001568D86A4146F86204FA00F300EB8000BC
:1028200006EB80002B431360FEF78AFE2046CDE7BF
:10283000100200201C020020BC02002068B1F8B584
:10284000294B1B6883420AD04FF0500383F3118851
:10285000BFF36F8FBFF34F8FFEE7002070479B6C75
:1028600043B94FF0500383F31188BFF36F8FBFF369
:102870004F8FFEE7C16A426C013B9142836400D0F6
:102880000BB10020F8BD071D04463846FEF780FE58
:10289000B8B11648164B01254FF0140C626CD3F8F2
:1028A00000E005FA02F63946C2F1070746EA0E06CD
:1028B0000CFB0200E262A7611E60FEF741FE2846A3
:1028C000F8BD1423E56A094803FB05F3C3580BB1AF
:1028D000074BE0E70122064B02FA05F51A6822EAE7
:1028E00005021A60D7E700BF100200201C0200207A
:1028F000BC020020A8B1F8B5846C44B94FF0500375
:1029000083F31188BFF36F8FBFF34F8FFEE7436CE4
:10291000C26A8B4238BF0B469A4201D0012C01D0CB
:10292000F8BD70471F490968814222D0142581698A
:102930001D4E002905FB0262C362A4BFC3F1070359
:10294000836143699342EBD1071D04463846FEF785
:102950001FFEB8B1E06A154B012214241D688240A5
:102960002A43394604FB00601A60BDE8F840FEF7D0
:10297000E7BD4FF0500383F31188BFF36F8FBFF3B0
:102980004F8FFEE70122E06A05FB00F5735902FA5A
:1029900000F10BB1054BDFE7044B1A6822EA010294
:1029A0001A60D9E7100200201C020020BC0200209F
:1029B000044B1A681AB119688A6C01328A64186863
:1029C000704700BF1002002000220E4B82B01B682F
:1029D0000192013308D04FF0500383F31188BFF305
:1029E0006F8FBFF34F8FFEE74FF0500383F31188D3
:1029F000BFF36F8FBFF34F8F019B002BFCD002B052
:102A0000704700BF0800002006480068006880F397
:102A1000088862B661B6BFF34F8FBFF36F8F00DFD8
:102A200000BF000008ED00E010B44FF08074064BCA
:102A300021F0010140F8202C40E9021440F80C3C40
:102A400010BC4038704700BFC929000800000000D2
:102A5000074B19680868B0E8F00F80F30988BFF3E6
:102A60006F8F4FF0000080F311884EF00D0E70470D
:102A7000100200204FF0500383F31188BFF36F8FD3
:102A8000BFF34F8F0A4A13680133012B136000D044
:102A90007047084B1B6813F0FF0FF9D04FF050033D
:102AA00083F31188BFF36F8FBFF34F8FFEE700BF33
:102AB0000800002004ED00E0084A136843B94FF015
:102AC000500383F31188BFF36F8FBFF34F8FFEE77F
:102AD000013B13600BB983F3118870470800002095
:102AE000EFF30980BFF36F8F0D4B1A6820E9F00FE9
:102AF00010602DE908404FF0500080F31188FFF777
:102B00000BFD4FF0000080F31188BDE80840196804
:102B10000868B0E8F00F80F30988BFF36F8F704743
:102B20001002002008B54FF0500383F31188BFF363
:102B30006F8FBFF34F8FFFF795FB18B14FF08052A7
:102B4000024B1A60002383F3118808BD04ED00E0F6
:102B50000023072110B4084A084C09481360236079
:102B60000368084C0848A4FB03439B09013B03602E
:102B700010BC1160704700BF10E000E018E000E0FA
:102B8000F0010020D34D621014E000E030B5FF25C5
:102B90000724274B83B01A782649D2B201921D70C0
:102BA0001B782548DBB28DF803309DF803309DF883
:102BB000032003F050030B701106046010D50623A8
:102BC00000E00B469DF80320591E5200D2B28DF84A
:102BD00003209DF803201206F3D4032B036008D0D2
:102BE0004FF0500383F31188BFF36F8FBFF34F8F04
:102BF000FEE7002401990E4D1B02104AC9B203F4EE
:102C0000E06303602970136843F470031360136872
:102C100043F070431360FFF79BFF094B1C60FFF705
:102C2000F3FEFFF779FCFFF7CFFE204603B030BD7F
:102C300000E400E03C0300204003002020ED00E021
:102C40000800002030B4114B1A68824201D21346AA
:102C5000FAE75C681919884203D141681846214493
:102C60005960446801198A4209D1094909688A42B0
:102C700005D0D2E900512144C0E9005100E00260D2
:102C8000984218BF186030BC704700BF540F002036
:102C9000440300202DE9F041414F0446FFF7DAFAE2
:102CA0003A68002A5AD03F4B1E68344250D1002C5B
:102CB0004ED004F1080358071CBF23F00703083364
:102CC000002B45D0DFF8F080D8F800509D423FD36C
:102CD0003548046806E0D4F800C0BCF1000F04D009
:102CE0002046644661689942F5D3944230D0CA1AAE
:102CF0002768102A076010D9E018410708D04FF064
:102D0000500383F31188BFF36F8FBFF34F8FFEE73C
:102D100042606360FFF796FF61680023234A6D1AE3
:102D2000106831438542C4E9003104F1080438BF1A
:102D30001560C8F80050FFF741FB63070BD04FF058
:102D4000500383F31188BFF36F8FBFF34F8FFEE7FC
:102D5000FFF734FB00242046BDE8F081144B00202F
:102D60005D071CBF073323F0070319464FF00045EA
:102D7000104ADFF834C022F00702D31ACCF804005E
:102D8000CCF800103A60C2E90000084FC1E9002306
:102D9000094804492E463B6003600D6085E700BF8B
:102DA00044030020480F0020540F0020500F002043
:102DB00048030020400F00204C0F0020D0B1194ADA
:102DC00050F8043C1268134208D14FF0500383F3CB
:102DD0001188BFF36F8FBFF34F8FFEE750F8081CC9
:102DE00049B14FF0500383F31188BFF36F8FBFF3E6
:102DF0004F8FFEE7704710B5044623EA020340F800
:102E0000043CFFF727FA084A54F8043C1168A4F17F
:102E100008000B441360FFF715FFBDE81040FFF7F3
:102E2000CDBA00BF480F00204C0F002070B5002520
:102E30004FF460224FF48071022301260C4C0D48A0
:102E400084B0C4E900052046A160E2612361CDE9B8
:102E50000155039525752673FDF79EF9072301A9F2
:102E60002046CDE901560393FDF7B0FB04B070BDD9
:102E7000A41100200024014010B44FF0FF344FF49F
:102E80008072044B04491846C3E9001410BC9A60D0
:102E9000FEF78AB9D41100200028004070B5002444
:102EA00088B0CDE90444CDE906441C4B1C4D9A6919
:102EB000284642F020029A619969224601F02001D9
:102EC000019101999969012641F00401996199697B
:102ED00001F0040102910299996941F00801996198
:102EE0009B69F82103F008030393039BFDF754FD4E
:102EF000F8220223284604A9CDE904260793069464
:102F0000FDF74AFC4FF4C07304A90648CDE9054615
:102F10000493FDF741FC08B070BD00BF00100240F3
:102F200000080140000C014010B594B0242200219B
:102F30000BA801F014FD0024012310220A210AA885
:102F4000CDE90F230A910E9305940194CDE906442F
:102F5000CDE90844CDE902440494FDF727FD0F2391
:102F6000214605A80593CDE90644CDE90844FDF7BF
:102F700015FF03224FF4007301A80394CDE9012348
:102F8000FEF718F814B010BD0268034B9A4200D047
:102F90007047FDF7EFB800BF0008004008B54FF4D8
:102FA00080710748FDF7F2FC10B9064B187008BD98
:102FB0004FF480710248FDF7E9FC0128F5D008BD07
:102FC000000C01400C00002008B54FF48071094846
:102FD000FDF7DCFC012809D04FF480710548FDF7AE
:102FE000D5FC10B90122044B1A7008BD0222024B15
:102FF0001A7008BD000C01400C00002008B54FF409
:1030000080711548FDF7C2FC012813D04FF4807180
:103010001148FDF7BBFC00B108BD0A20FEF778FAA5
:103020004FF480710C48FDF7B1FC88B101220B4BC5
:103030001A7008BD0A20FEF76BFA4FF4807106483B
:10304000FDF7A4FC0128F1D10222044B1A7008BD3F
:10305000024B187008BD00BF000C01400C0000209E
:10306000044B1A78022A04D8034B03EBC2035B68B3
:10307000184770470C0000201000002008B50748D2
:10308000FDF7A0FA064B07491A78074B002A0CBF38
:103090000822092208601A7008BD00BFA411002090
:1030A0000C0000205C0F00202C00002008B50C480C
:1030B000FDF788FA0B4B0C4A1B7810605BB16FF47C
:1030C000FA6240F60103104498428CBF06200420A7
:1030D000064B187008BD0620044B187008BD00BFD1
:1030E000A41100200C0000205C0F00202C00002008
:1030F00008B50A48FDF766FA094B0A4A1B781060C2
:1031000043B1A0F6D3702C288CBF06220122064BB7
:103110001A7008BD0622044B1A7008BDA4110020C5
:103120000C0000205C0F00202C00002008B50C488B
:10313000FDF748FA0B4B0C4A1B7810605BB16FF43B
:10314000FA6240F62E031044984294BF06200320F2
:10315000064B187008BD0620044B187008BD00BF50
:10316000A41100200C0000205C0F00202C00002087
:1031700070B50F4D4FF47A712868FEF73DFC0128B9
:1031800011D100230B4C0C49E2790E7861796272FF
:10319000E171E27861786271E17028681A46194637
:1031A0006670FEF797FA0122044B1A7070BD00BFDB
:1031B00070110020800000202B0000202C00002037
:1031C00070B50F4D4FF47A712868FEF715FC012891
:1031D00011D100230B4C0C49E2790E7861796272AF
:1031E000E171E27861786271E17028681A461946E7
:1031F0006670FEF76FFA0822044B1A7070BD00BFAC
:103200007011002080000020280000202C000020E9
:1032100070B50F4D4FF47A712868FEF7EDFB012869
:1032200011D100230B4C0C49E2790E78617962725E
:10323000E171E27861786271E17028681A46194696
:103240006670FEF747FA0322044B1A7070BD00BF88
:103250007011002080000020290000202C00002098
:1032600070B50F4D4FF47A712868FEF7C5FB012841
:1032700011D100230B4C0C49E2790E78617962720E
:10328000E171E27861786271E17028681A46194646
:103290006670FEF71FFA0422044B1A7070BD00BF5F
:1032A00070110020800000202A0000202C00002047
:1032B00008B50848FDF786F9074B18604B20FEF764
:1032C00027F9064A064B1278002A0CBF082206226C
:1032D0001A7008BDA41100205C0F00200C00002013
:1032E0002C00002070B52F48FDF76CF92E4D2F4CA7
:1032F0002B78206083B3A0F6D3732C2B1AD96FF4EC
:10330000FA6C40F62E066044B04233D86420FEF7D3
:10331000FFF82448FDF756F92B78206033B16FF49D
:10332000FA6240F601031044984236D90622204B37
:103330001A7070BD0520FEF7EBF81A48FDF742F948
:103340002B782060002BF1D0A0F6D3702C28EDD87C
:103350000022174B1A7070BD0520FEF7D9F81148EE
:10336000FDF730F92B782060002BDFD10722104BBE
:103370001A7070BD0520FEF7CBF80A48FDF722F958
:103380002B782060002BD1D06FF4FA610844B04252
:10339000CCD90222064B1A7070BD0522044B1A705C
:1033A00070BD00BFA41100200C0000205C0F0020A5
:1033B0002C00002070B50B4C05464FF47A71206844
:1033C000FEF71AFB012802D00024204670BD00231E
:1033D000054E2068745D1A461946FEF77BF92046B3
:1033E00070BD00BF701100208000002010B50A20C1
:1033F000FEF78EF84FF47A710748FDF727F8074B70
:103400001A78092A06D8BDE81040054B03EBC20321
:103410005B68184710BD00BFA41100202C000020DD
:1034200030000020704700BF002300B587B0684619
:103430000749CDE90033CDE90233CDE9043300F08B
:103440008DFD0222034B1A7007B05DF804FB00BF2C
:10345000344B0008600F00200522024B01201A7037
:10346000FEF756B8600F002000230A2210B50C4C5E
:1034700086B021466846CDE90023CDE90233CDE987
:10348000043300F06BFD6420FEF742F821466846E5
:1034900000F06CFC0122034B1A7006B010BD00BF97
:1034A000404D0008600F002070B500268CB0184D0C
:1034B00006AC0FCD0FC495E80300164D84E8030059
:1034C00006A81549CDE90066CDE90266CDE9046696
:1034D00000F044FD2B78082B0CD0012B01D00CB050
:1034E00070BD06A80C4900F041FC03220B4B1A707A
:1034F0000CB070BD68460A4900F038FC064906A8C1
:1035000000F034FC0421054A2B781170E5E700BF78
:10351000A84900082C000020144B0008600F002070
:10352000344B000870B500268CB0184D06AC0FCD9A
:103530000FC495E80300164D84E8030006A815495A
:10354000CDE90066CDE90266CDE9046600F006FD2E
:103550002B78082B0CD0032B01D00CB070BD06A823
:103560000C4900F003FC02220B4B1A700CB070BD2A
:10357000084906A800F0FAFB0849684600F0F6FB87
:103580000621054A2B781170E5E700BFC049000805
:103590002C000020144B0008600F0020344B000862
:1035A00008B5084A03210A2000F0A8FA064A0321B8
:1035B0000A2000F0A3FAC820FDF7AAFF0122034B5E
:1035C0001A7008BDF84A0008084B0008600F002078
:1035D000F0B593B06F46384C06AD0FCC0FC794E8EA
:1035E000030004F1080687E803000FCE0FC596E834
:1035F0000300203485E80300684630490CAD00F034
:10360000ADFC0FCC0FC594E803002D4B85E80300FB
:103610001B78022B3AD0032B23D0012B0CD006A809
:10362000284900F0A3FB6846244900F09FFB0722CD
:10363000254B1A7013B0F0BD24490CA800F08EFC85
:103640004FF4FA70FDF764FF1E4906A800F086FCEF
:103650004FF47A70FDF75CFF0CA81C4900F086FB64
:10366000DDE71B490CA800F079FC4FF4FA70FDF778
:103670004FFF144906A800F071FC4FF47A70FDF773
:1036800047FF0CA8124900F071FBC8E711490CA8CC
:1036900000F064FC4FF4FA70FDF73AFF094906A800
:1036A00000F05CFC4FF47A70FDF732FF0CA809497A
:1036B00000F05CFBB3E700BFD8490008CC4A000823
:1036C000D4000020984A0008600F00202C4D00080C
:1036D000184D0008204B0008F0B593B06F46384CE9
:1036E00006AD0FCC0FC794E8030004F1080687E885
:1036F00003000FCE0FC596E80300203485E80300D1
:10370000684630490CAD00F029FC0FCC0FC594E899
:1037100003002D4B85E803001B78022B3AD0032BC6
:1037200023D0012B0CD006A8284900F01FFB6846C7
:10373000244900F01BFB0522254B1A7013B0F0BD85
:1037400024490CA800F00AFC4FF4FA70FDF7E0FEE3
:103750001E4906A800F002FC4FF47A70FDF7D8FE6F
:103760000CA81C4900F002FBDDE71B490CA800F087
:10377000F5FB4FF4FA70FDF7CBFE144906A800F0F4
:10378000EDFB4FF47A70FDF7C3FE0CA8124900F070
:10379000EDFAC8E711490CA800F0E0FB4FF4FA700D
:1037A000FDF7B6FE094906A800F0D8FB4FF47A7081
:1037B000FDF7AEFE0CA8094900F0D8FAB3E700BF48
:1037C000D8490008CC4A0008D4000020984A0008D4
:1037D000600F00202C4D0008184D0008204B0008F9
:1037E00010B50A20FDF794FE054B1A78082A06D872
:1037F000BDE81040034B03EBC2035B68184710BDE4
:10380000600F00208C000020F8B50022802199482C
:10381000FDF7C2F80A2000F09BFE012280219548A6
:10382000FDF7BAF8002220219248FDF7B5F80022F2
:1038300040219048FDF7B0F8082501278D4E15E08E
:10384000012210213046FDF7A7F8012000F080FE8C
:10385000012208213046FDF79FF8012000F078FE94
:10386000002208213046FDF797F83DB1013D07FAE7
:1038700005F212F02104E3D12246E2E701224021C1
:103880007C48FDF789F8002220217A48FDF784F86A
:10389000002240217748FDF77FF808250127754E63
:1038A00015E0012210213046FDF776F8012000F0E6
:1038B0004FFE012208213046FDF76EF8012000F08E
:1038C00047FE002208213046FDF766F83DB1013D74
:1038D00007FA05F212F0B004E3D12246E2E7012232
:1038E00040216448FDF758F8002220216148FDF787
:1038F00053F8002240215F48FDF74EF808250127C4
:103900005C4E15E0012210213046FDF745F80120FC
:1039100000F01EFE012208213046FDF73DF801208F
:1039200000F016FE002208213046FDF735F83DB1C3
:10393000013D07FA05F212F00404E3D12246E2E762
:10394000012240214B48FDF727F800222021494859
:10395000FDF722F8002240214648FDF71DF8082512
:103960000127444E15E0012210213046FDF714F8DE
:10397000012000F0EDFD012208213046FDF70CF892
:10398000012000F0E5FD002208213046FDF704F893
:103990003DB1013D07FA05F212F01404E3D12246CD
:1039A000E2E7012240213348FCF7F6FF0022202104
:1039B0003048FCF7F1FF002240212E48FCF7ECFFD5
:1039C000082501272B4E15E0012210213046FCF777
:1039D000E3FF012000F0BCFD012208213046FCF786
:1039E000DBFF012000F0B4FD002208213046FCF787
:1039F000D3FF3DB1013D07FA05F212F02004E3D1F7
:103A00002246E2E7012240211A48FCF7C5FF0022C6
:103A100020211848FCF7C0FF002240211548FCF780
:103A2000BBFF08250127134E15E001221021304667
:103A3000FCF7B2FF012000F08BFD01220821304687
:103A4000FCF7AAFF012000F083FD00220821304688
:103A5000FCF7A2FF3DB1013D07FA05F212F00C049C
:103A6000E3D12246E2E70122BDE8F84040210148C7
:103A7000FCF792BF000801402DE9F0474FF0010824
:103A8000DFF874901B4E09F5FC7A012220213046A4
:103A900019F8017FFCF780FF002240213046FCF737
:103AA0007BFF082515E0012210213046FCF774FF4A
:103AB000012000F04DFD012208213046FCF76CFF8B
:103AC000012000F045FD002208213046FCF764FF8C
:103AD0003DB1013D08FA05F212EA0704E3D122469E
:103AE000E2E7012240213046FCF756FFD145CCD118
:103AF000BDE8F08700080140630F00202DE9F04782
:103B0000234D06460C4628684FF47A711746FDF798
:103B100073FF012801D0BDE8F087052C28BF0524DC
:103B2000552E28BF5326542101FB0461DFF86C8019
:103B30003B78C8F800101BB33A4600261548164CCF
:103B40000144C0F1060E203B03EB8303E018E35C65
:103B500090F801904B7090F802C00379C7780E700E
:103B600081F8029081F803C00F714B710EEB0100D8
:103B700001F8066F12F8013F002BE4D1C8F80000ED
:103B8000002328681A46BDE8F0471946FDF7A2BD94
:103B900068110020640F0020C44E00085C11002052
:103BA0002DE9F0474FF4FC720021214800F0D7FEC8
:103BB0004FF00108DFF884901E4E09F5FC7A0122CF
:103BC0002021304619F8017FFCF7E6FE0022402153
:103BD0003046FCF7E1FE082515E0012210213046B1
:103BE000FCF7DAFE012000F0B3FC01220821304688
:103BF000FCF7D2FE012000F0ABFC00220821304689
:103C0000FCF7CAFE3DB1013D08FA05F212EA0704CD
:103C1000E3D12246E2E7012240213046FCF7BCFE18
:103C2000D145CCD10022044B1A60BDE8F08700BF1B
:103C3000640F0020000801405C110020630F002089
:103C40002DE9F043D0E90036532B28BF5323846875
:103C50002F2E9C4628BF2F260B784F780269002C08
:103C600040D0C16800293DD0A34228BF23468F42DF
:103C700028BF0F4603EB0C05542D06EB070188BF48
:103C8000CCF1540330293AD9C6F13007002A37D194
:103C900033B34FF054084FF0010E3348374403EB71
:103CA0000C052F2EB14628BF4FF02F0909F007044D
:103CB0000EFA04F4E44363464FEAD90908FB09F914
:103CC00064B2532B94BF09EB030109F15301425C29
:103CD000013322409D424254F3D10136B742E0D134
:103CE000BDE8F083002AC5D041690029C2D014463E
:103CF000A34228BF23468F4228BF0F46BAE772B3BC
:103D0000426962B3002FEBD0002BE9D04FF054088A
:103D10004FF0010E1448374403EB0C052F2EB1462B
:103D200028BF4FF02F0909F007040EFA04F4E4430A
:103D300063464FEAD90908FB09F964B2532B94BFD3
:103D400009EB030109F15301425C01332240AB420C
:103D50004254F3D10136B742E0D1BDE8F083002FE1
:103D600096D1BDE8F08300BF640F002070B50B4C06
:103D700005460E46206840F6B831FDF73DFE0128A5
:103D800000D070BD31462846FFF75AFF0023206857
:103D90001A46BDE870401946FDF79CBC681100202A
:103DA000D0E90023532A28BF53222F2B28BF2F23CB
:103DB0002DE9F04F964684684A7885B002930392C5
:103DC0000B78026964B1C56855B19C4228BF1C4696
:103DD000039EA446B5422C4628BF3446019405E014
:103DE000002A40F0B3809C46039C01940CEB0E0427
:103DF000542CDDE901452C4488BFCEF1540C302C05
:103E000048D9C5F130040194002A45D1BCF1000F16
:103E100000F099804FF0000B4F4D029A012002EB09
:103E20000B062F2E28BF2F26542206F0070700FA74
:103E300007F77FB2F6080BF0070800FA08F802FB54
:103E400006F66FEA070A4FEADB09002003E0844523
:103E5000AC5418D00B780EEB0002532A94BFB21862
:103E600006F153020C1809FB03439C78AB5614EA85
:103E7000080F00F1010043EA070403EA0A03E6D150
:103E80006045AB54E6D1019B0BF1010B5B455AD069
:103E90000B78C2E7002A52D04269002A4FD0039A19
:103EA0000198A3EB0C0A121A00284CD0BCF1000FA9
:103EB00049D002980192821A1046274D02928A44F4
:103EC000019A012486182F2E28BF2F26542006F091
:103ED000070704FA07F77FB2F60802F0070800FBAD
:103EE00006F66FEA070B04FA08F84FEAD209002039
:103EF00003E08445AC5419D00B780EEB0002532A32
:103F000094BFB21806F153020AEB000409FB034305
:103F10009C78AB5614EA080F00F1010043EA07044D
:103F200003EA0B03E5D18445AB54E5D1019B039A29
:103F300001339A42019306D00B780298C0E7019AA8
:103F4000002A7FF463AF05B0BDE8F08F4569002D0E
:103F50003FF449AF144638E7640F002070B50B4CAE
:103F600005460E46206840F6B831FDF745FD0128AC
:103F700000D070BD31462846FFF712FF00232068AD
:103F80001A46BDE870401946FDF7A4BB6811002031
:103F9000002108B5084A0846FFF7B0FD074B00218D
:103FA0001B78074A03F0FD03042B08BF012311709F
:103FB00008BF137008BD00BF84510008600F0020C7
:103FC00060110020002108B5084A0846FFF796FD59
:103FD000074B01211B78074A03F0FD03052B08BF9F
:103FE0000223117008BF137008BD00BF9451000870
:103FF000600F002060110020002108B5034A084628
:10400000FFF77CFD0D22024B1A7008BD54510008C9
:1040100060110020002108B5034A0846FFF76EFD35
:104020000C22024B1A7008BDF450000860110020E9
:10403000002108B5034A0846FFF760FD0C22024B39
:104040001A7008BD3451000860110020002108B525
:10405000034A0846FFF752FD0F22024B1A7008BDB3
:104060002451000860110020002110B50846114AB3
:10407000FFF744FD0423104C01202370FFF79AF949
:1040800052280FD00D4B1B78032B08D0042B02D1E4
:104090000223237010BD082B08BF237010BD062318
:1040A000237010BD0320FFF785F95228EAD10523BC
:1040B000237010BD44510008601100202C00002026
:1040C000002110B50846114AFFF718FD0623104CD1
:1040D00001202370FFF76EF94C280FD00D4B1B7891
:1040E000012B08D0042B02D10223237010BD082B12
:1040F00008BF237010BD0423237010BD0320FFF7F9
:1041000059F94C28EAD10723237010BDE450000868
:10411000601100202C000020002108B508460C4A40
:10412000FFF7ECFC2820FDF7F3F90A4B1B78032B73
:104130000AD0042B03D10222074B1A7008BD082BAA
:1041400004BF054A137008BD0622034B1A7008BD50
:10415000145100082C00002060110020002108B537
:1041600008460F4AFFF7CAFC2820FDF7D1F90D4B8E
:104170001B78012B0BD0032B03D106220A4B1A709C
:1041800008BD042B07D10222074B1A7008BD042278
:10419000054B1A7008BD082B04BF034A137008BDF5
:1041A000045100082C00002060110020002110B5EF
:1041B0000846064AFFF7A2FC0823054C4FF4C870D6
:1041C0002370FDF7A5F90923237010BDA450000842
:1041D00060110020002110B50846064AFFF78EFC4A
:1041E0000A23054C4FF416702370FDF791F90B2349
:1041F000237010BDC450000860110020002108B5D4
:1042000008460B4AFFF77AFC4FF47A70FDF780F905
:10421000084B1B78032B06D0012B0CBF0422032272
:10422000054B1A7008BD0622034B1A7008BD00BF6B
:10423000D45000082C00002060110020002108B597
:104240000846114AFFF75AFCC820FDF761F9012022
:10425000FFF7B0F841280ED00C4B1B78032B06D08B
:10426000012B0CBF04220322094B1A7008BD062241
:10427000074B1A7008BD0320FFF79CF84128EBD1CB
:104280000A22034B1A7008BDB45000082C0000200D
:1042900060110020002108B50F4A0846FFF72EFCE8
:1042A00002210E4B0E4A1B781170023B012B0CD9D8
:1042B0000C4B1B78032B05D0012B09D0082B08BF12
:1042C000137008BD0623137008BD0023137008BDCA
:1042D0000423137008BD00BF64510008600F002064
:1042E000601100202C000020002108B50F4A08466C
:1042F000FFF704FC03210E4B0E4A1B781170023BA2
:10430000012B0DD90C4B1B78032B06D0012B0AD0A7
:10431000042B04BF0223137008BD0623137008BDCD
:104320000023137008BD0423137008BD74510008E6
:10433000600F0020601100202C000020044B1A7830
:104340000F2A04D8034B03EBC2035B68184770477E
:1043500060110020D80000200120FDF7D9B800BF6F
:1043600001490248FFF7FABD34520008D801002085
:1043700010B50A4C0A492046FFF7F8FC23680748A5
:10438000452B98BF0133064998BF2360FFF7E6FD30
:10439000BDE810407820FDF7BBB800BFD801002071
:1043A0003452000810B50A4C0A492046FFF7DEFCDB
:1043B000236807483B2B8CBF4B230A3306492360F5
:1043C000FFF7CCFDBDE810407820FDF7A1B800BF95
:1043D000D8010020345200081052000810B50A4CD1
:1043E0000A492046FFF7C2FC236807480F2B88BF05
:1043F0000A3B074988BF2360FFF7B0FDBDE81040C6
:104400007820FDF785B800BFD8010020345200089D
:10441000EC51000810B5094C09492046FFF7A6FCED
:1044200023680BB1013B236004480549FFF796FD63
:10443000BDE810407820FDF76BB800BFD801002020
:104440003452000810B5074C07492046FFF78EFC90
:1044500020460649FFF782FDBDE810407820FDF7B1
:1044600057B800BFD801002034520008A4510008FA
:1044700010B5074C07492046FFF778FC204606494F
:10448000FFF76CFDBDE810407820FDF741B800BF94
:10449000D8010020A4510008C851000810B5074CED
:1044A00007492046FFF762FC20460649FFF756FD04
:1044B000BDE810407820FDF72BB800BFD8010020E0
:1044C000C85100085852000810B5074C074920464B
:1044D000FFF74CFC20460649FFF740FDBDE81040C1
:1044E0007820FDF715B800BFD8010020A4510008BE
:1044F000585200080120FDF70BB800BF0120FDF75E
:1045000007B800BF0120FDF703B800BF0120FCF78A
:10451000FFBF00BF01490248FFF720BD3452000829
:10452000D801002001490248FFF718BD34520008A5
:10453000D8010020044B1A780F2A04D8034B03EB50
:10454000C2035B68184770476011002058010020C3
:104550004FF0060101FB00F10139FDD1704700BFAA
:1045600008B50120FCF7D4FFFFF7E8FEF9E700BF2C
:1045700008B5FFF735F9FCE708B50948FBF7CCFEAD
:10458000032200210120FDF761F80023054C1A46A3
:1045900019462060FDF79EF8FEF728FFFCE700BFF4
:1045A000A41100207011002008B503220021012071
:1045B000FDF74CF8084C2060FFF726F9FFF7F0FAFA
:1045C000002320681A461946FDF784F82920FCF7D5
:1045D0009FFFFFF751FAF9E76811002008B5FEF7D1
:1045E0003FFDFCE708B5FFF7A5FFFCE780B5324CBF
:1045F0009EB0FBF7ADFDFEF797FCFEF74FFCFEF714
:1046000015FCFEF739FC0FCC25466F4655F8049B88
:1046100004F1180C0DF114080AAE0FC70FCDA8E86D
:104620000F00BCE80F000FC62D68DCF8003004F165
:104630002C0EC7F8009004F1400CC8F8005033600D
:104640000FAF543414AE19ADBEE80F000FC7BCE86D
:104650000F000FC60FCC0FC52468DCF80030DEF861
:104660000020002105A83A6033602C60FCF736FF7B
:10467000124B002118606846FCF730FF104B0021F8
:1046800018600AA8FCF72AFF0E4B002118600FA83B
:10469000FCF724FF0C4B0021186014A8FCF71EFF48
:1046A0000A4B0021186019A8FCF718FF084B186086
:1046B000FCF70EFFFEE700BF204A0008E8110020CB
:1046C000EC110020F4110020FC110020F811002052
:1046D000F0110020114B10B5986982B040F0010034
:1046E00098619C69002204F001040094009CDC693C
:1046F0000F2144F08054DC61DB696FF0010003F0AE
:1047000080530193019BFCF703F8054A536823F09B
:10471000E06343F08063536002B010BD00100240BC
:1047200000000140002310B50168144A86B0914290
:10473000CDE90233CDE9043301D006B010BD032426
:1047400003F1804303F504339A6902A942F400722D
:104750009A619A690A4802F400720092009A9A6972
:1047600042F004029A619B69029403F004030193EE
:10477000019B0394FCF710F806B010BD0024014023
:104780000008014002680C4B9A4200D0704700B507
:1047900083B0FCF705F90120084B0949DA6942F0BA
:1047A0000062DA61DB6903F000630193019B08603A
:1047B00003B05DF804FB00BF002800400010024079
:1047C0003C04424210B5014688B000221E20FBF78F
:1047D0009FFF1E20FBF7D2FF154B01A9DA6903A842
:1047E00042F00402DA61DB69124C03F00403029325
:1047F000029BFCF7BFFBFCF79DFB40F2E731002278
:104800000D4BE160A3FB00130C499B0C013B2046C0
:10481000C4E900132261A260FCF746FD10B101203B
:1048200008B010BD2046FCF78DFD08B010BD00BFDC
:10483000001002400412002083DE1B4300080040E9
:10484000704700BFFEE700BFFEE700BFFEE700BF06
:10485000FEE700BF704700BF0148FCF78BBD00BFFB
:104860000412002030B44FF41F054FF000640E4BCB
:104870000E4A19680E4841F00101196059680A4052
:104880005A601A6822F0847222F480321A601A6820
:1048900022F480221A605A6822F4FE025A609D6057
:1048A000846030BC704700BF001002400000FFF879
:1048B00000ED00E0002103E00B4B5B584350043156
:1048C0000A480B4B42189A42F6D30A4A02E00023E8
:1048D00042F8043B084B9A42F9D3FFF7C3FF00F0BC
:1048E0000FF8FFF783FE7047E45200080000002035
:1048F000F4010020F401002044120020FEE7000033
:1049000070B500250C4E0D4CA41BA410A54209D176
:1049100000F02EF800250A4E0A4CA41BA410A54254
:1049200005D170BD56F8253098470135EEE756F8A9
:10493000253098470135F2E7DC520008DC520008C8
:10494000DC520008E052000810B5431E0A449142B0
:1049500000D110BD11F8014B03F8014FF7E70346F2
:104960000244934200D1704703F8011BF9E70000AD
:10497000F8B500BFF8BC08BC9E467047F8B500BF4C
:08498000F8BC08BC9E4670471C
:1049880002030405060708090A0B0C0D0E0F101088
:1049980002030405060708090A0B0C0D0E0F101078
:1049A80008000000260000000000000000000000D1
:1049B80000000000000000003C000000260000008D
:1049C80000000000000000000000000000000000DF
:1049D800140000000A0000000000000000000000B1
:1049E80000000000000000001E000000140000008D
:1049F80000000000000000000000000000000000AF
:104A08004100000005000000000000000000000058
:104A18000000000000000000B452000879450008BA
:104A2800000000000000000020000000A85200085C
:104A3800A945000800000000000000004000000038
:104A48009C520008DD45000800000000000000003E
:104A58002000000090520008714500080000000086
:104A6800000000008000000088520008614500082E
:104A78000000000000000000400000007C52000818
:104A8800E5450008000000000000000040000000AC
:104A98003008FEFE92DEFE6600FEFE323EFECE00CE
:104AA800FEFEFE007C7EC6DAFAFA70007EFEC0C00A
:104AB800FE7E0000FEFEDADAC000FEFE3EF8E03EB2
:104AC8008EFE00002808C0FC7E16FAFE8E007CFED2
:104AD800C6C2E67E3C0030FECEC0E07E1E00F0FE80
:104AE8000E1C78F0FE0E00F8FEC6C2E67E3C000002
:104AF800202020202020202020202020200000000E
:104B08006767206169206D616E0000000808303C0D
:104B1800FFFFFFFF3C300000081038381818F8F87D
:104B2800F000383C3E3F3B39383000005030FFFF42
:104B380003030303030383838383830303030303BD
:104B4800030303030303030303838383838383032D
:104B5800030303030303030303030303030383039D
:104B6800030303030303030303030303030303030D
:104B7800030303030303038383838303FFFFFFFF0D
:104B8800004020180C0B090800044563584C0A2BF8
:104B98000901406060705048092524020001603016
:104BA800080623311804033F602010084623111813
:104BB80016110868180C0663594C44422121110942
:104BC800434040444625351C00000000FFFFFFFF1E
:104BD80000000000000000000000000000000000CD
:104BE8000000000000000000000000C06070381CD9
:104BF8008C0C0E86868686868C0C1C3870E08000AD
:104C0800000000000000000000000000000000009C
:104C1800000000000000000000000000FFFFFFFF90
:104C2800000000000000C0C0C0600000C0C040C05C
:104C3800C0000000000000000078CF010040606064
:104C48002031F1FD3D79C8880C08000000011FFEE5
:104C5800000000000000000000004040C0C000004C
:104C6800C0C040C0C080000000000000FFFFFFFF80
:104C7800000000000000181F0F00101F1F0702038C
:104C88000300000000000000000003000000404492
:104C9800828381808080808383C6666C3C180F0382
:104CA8000000000000000000101C1C1E1B09001E54
:104CB8001F0702030301000000000000FFFFFFFFC1
:104CC800C0C0C0C0C0C0C0C0C0C0C0C0C0C0C0C0DC
:104CD800C0C0C0C0C0C0C0C0C0C0C0C0C0C0C0C0CC
:104CE800C0C0C1C1C1C1C1C1C0C0C0C0C0C0C0C0B6
:104CF800C0C0C0C0C0C0C0C0C0C0C0C0C0C0C0C0AC
:104D0800C0C0C0C0C0C0C0C0C0C0C0C0FFFF00009D
:104D180008100038989898F8F87000383333333F03
:104D28003F1E00000810003038F8F8F800000000B6
:104D3800003F3F3F000000004030FFFFFFFF0F0F24
:104D48000F0F0F0F0F0F0F0F0F0F0F0F0F0F0F0F6B
:104D58000F0F0F0F0F0F0F0F0F0F0F0F0F0F0F0F5B
:104D68000F0F0F0F0F0F0F0F0F0F0F0F0F0F0F0F4B
:104D78000F0F0F0F0F0FFFFFFFFFFFFFFFFFF8F0F1
:104D8800F0E000000000060F0F0600000000000021
:104D9800000000000000000000000000000000000B
:104DA80000000000000000000000060F0F060000D1
:104DB8000000E0F0F0F8FFFFFFFFFFFFFFFF00003B
:104DC8000000070F0F0E30F0F0F0F0F0F0F0F0F008
:104DD800F0F0F0F0F0F0F0F0F0F0F0F0F0F0F0F0CB
:104DE800F0F0F0F0F0F0F0F0F0F0F0F0F0300E0F3E
:104DF8000F0700000000FFFFFFFFFFFFFFFFF0F0BD
:104E0800F0F0F0F0F0F0F0F0F0F0F0F0F0F0F0F09A
:104E1800F0F0F0F0F0F0F0F0F0F0F0F0F0F0F0F08A
:104E2800F0F0F0F0F0F0F0F0F0F0F0F0F0F0F0F07A
:104E3800F0F0F0F0F0F0FFFFFFFF0000000070F06E
:104E480080C06030000000C07030F000000080F0CA
:104E5800B01090F0600000000000E0F0901010002A
:104E680080C06030101010F0E00000F0F01010105A
:104E7800001010F0F010101000000000101C0E03BD
:104E8800031F1800181C070704041F1E00101F1F0B
:104E980011110D0F00000000001810111B0F060063
:104EA8000F1F181010180C0701001F0F0101010037
:104EB80000001C1F010000000000000000000000AE
:104EC8000000005F00000007000700147F147F1433
:104ED800242A7F2A12231308646236495522500077
:104EE80005030000001C2241000041221C00140898
:104EF8003E081408083E080800503000000808085A
:104F08000808006060000020100804023E5149456E
:104F18003E00427F400042615149462141454B31A4
:104F28001814127F1027454545393C4A4949300134
:104F3800710905033649494936064949291E00368B
:104F480036000000563600000814224100141414DC
:104F5800141400412214080201510906324979410A
:104F68003E7E1111117E7F494949363E4141412219
:104F78007F4141221C7F494949417F090909013E76
:104F88004149497A7F0808087F00417F4100204055
:104F9800413F017F081422417F404040407F020C7E
:104FA800027F7F0408107F3E4141413E7F09090985
:104FB800063E4151215E7F09192946464949493132
:104FC80001017F01013F4040403F1F2040201F3F1B
:104FD8004038403F6314081463070870080761519C
:104FE800494543007F414100020408102000414127
:104FF8007F000402010204404040404000010204D6
:105008000020545454787F48444438384444442059
:10501800384444487F3854545418087E0901020C17
:105028005252523E7F0804047800447D40002040DC
:10503800443D007F1028440000417F40007C041854
:1050480004787C0804047838444444387C141414E4
:1050580008081414187C7C08040408485454542084
:10506800043F4440203C4040207C1C2040201C3C05
:105078004030403C44281028440C5050503C446474
:10508800544C44000836410000007F0000004136BF
:10509800080010080810087846414678737461744F
:1050A800653A2070315F6174310000007374617477
:1050B800653A2070315F3172650000007374617465
:1050C800653A2070315F6174320000007374617456
:1050D800653A2070315F3272650000007374617444
:1050E800653A2070315F62636B000000737461740D
:1050F800653A2070315F626C6B00000073746174F4
:10510800653A2070315F64626100000073746174F5
:10511800653A2070315F64667700000073746174CB
:10512800653A2070315F64656400000073746174CF
:10513800653A2070315F64696500000073746174BA
:10514800653A2070315F667764000000737461749B
:10515800653A2070315F6869740000007374617487
:10516800653A2070315F69646C0000007374617483
:10517800653A2070315F696472000000737461746D
:10518800653A2070315F6D656E000000737461745C
:10519800653A2070315F727374000000101020406F
:1051A800E0A0A0A0E000000000000000000078845B
:1051B80027DC04142F2A5474584040788870000063
:1051C800101088C8FE6AEAAA3E60C060203098883D
:1051D80068380306FF180081E13D05060203010057
:1051E8000000000010108044243FE52525FF60E4FE
:1051F800002424242424CFB084E51423E1CD93A1F2
:10520800E000000001010000101044440404008084
:1052180044243FE52525FF60E0000400E0A090CF8E
:10522800E02415E483B1CD03010000001010000054
:105238000084443F2525253F4080804080000000B1
:10524800E19A44A4252620204854A4428100000065
:10525800101000000084443F2525253F40809740DA
:1052680097000000E19A44A4252620204854A4422F
:10527800810000005031566965775461736B0000F6
:1052880050315461736B00004D656E755461736BDA
:1052980000000000626F74616F5461736B0000005E
:1052A80064656661756C745461736B00496E7465EE
:1052B800727072657465725461736B00000000004F
:1052C80000000000010203040607080900000000AE
:0452D80001020304C8
:0452DC003501000890
:0452E00011010008B0
:1052E4000100000010000000AAAAAAAA0100000000
:1052F400000000009D2F000801000000FD2F0008A1
:1053040002000000C92F0008414C4E520600000064
:10531400000000007131000801000000F1300008B5
:105324000200000011320008030000002D310008C3
:1053340004000000AD3000080500000061320008E0
:1053440006000000E532000807000000C131000833
:10535400080000007D30000809000000B132000898
:10536400204E204E204E204E204E200000000000F3
:10537400693400080100000029340008020000001C
:10538400A9340008030000002535000804000000CB
:10539400D936000805000000593400080600000052
:1053A400D13500080700000025340008080000007B
:1053B400A13500080100000000000000913F000832
:1053C40001000000C53F00080200000095420008EB
:1053D40003000000E94200080400000069400008DE
:1053E400050000001941000806000000C140000843
:1053F400070000005D41000808000000AD410008FE
:10540400090000003D4200080A000000D5410008E0
:105414000B000000FD4100080C00000015400008CE
:105424000D000000F93F00080E00000031400008A4
:105434000F0000004D400008000000005943000820
:105444000100000061430008020000001545000847
:105454000300000025450008040000007143000813
:1054640005000000A54300080600000015440008DC
:1054740007000000DD430008080000004544000860
:1054840009000000C94400080A0000007144000833
:105494000B0000009D4400080C00000005450008B6
:1054A4000D000000FD4400080E0000000D4500083A
:1054B4000F000000F5440008040000001400000080
:1054C40000000000000000000000000000000000D8
:0454D4000024F400BC
:04000005080048B5F2
:00000001FF
